:020000040000FA
:06000000020DBC02026FBC
:03002B00020B8342
:0300330002029135
:030053000201A403
:03007B000208D99F
:10008300020203010020FD000200007811000000BD
:100093000000001A120000D81100006011000000D7
:1000A300000000000000000000000000000000004D
:1000B300000000000006FFFF00035F005F00300048
:1000C30058000000000000000000000000000000D5
:1000D300000000000000000000000000000000001D
:1000E3000000F8064D074D074D074D07550706005D
:1000F30008FD170000000160EA0000C416D01600D6
:1001030000D616DC1600000000000000000000010D
:10011300000000002020202020202020202020205C
:10012300202020200108040100010002ED8102F1DA
:100133008101010104004A18000000E8030000FFE8
:10014300FF1619E803000064006400B801A0BB0DAA
:1001530000A0BB0D00020200F8FF0705021E040108
:10016300051E02051E020A0A0101080801031027E1
:1001730002803E0102FEFFE8030A050001FFFF01C2
:100183000A1401E0010105030101FF0F10FEFF97AF
:100193002D000000006B2C00000000FF000000FF9A
:1001A30000C0E074F1120699A2AFE433F509D2AFAF
:1001B30085A708AFA1EF5508FE74105E6006120E06
:1001C300F675A1EF74085E6008120EFC75A1F78046
:1001D30024EFA2E092F0E508A2E082F050179061CC
:1001E30098E0F890049CE0C398A2D265D033500203
:1001F300E8F075A1FEE509A2E092AF7F0202075580
:10020300C0E074F2120699A2AFE433FED2AF90615C
:10021300A4E0F8759B00E59158540860087591F7C0
:10022300120F448023E59158541060087591EF1222
:100233000F4A8014E591A2E092F0E8A2E082F05028
:1002430007E0C2E0F01210949061A3E0F8E5E958EA
:100253005404600E12106A75E9FB906193E0A2E604
:1002630040F2EEA2E092AF7F01020755C0E074F2C4
:10027300120699A2AFE433FED2AF9061A5E0F8E590
:10028300BF585404600675BFFB1210AC80D4C0E0A5
:1002930074F1120699E59DA2E650FA906206E0F920
:1002A300A2E25034AA2CEA90620BF0F508852D09DE
:1002B30074047808120DEAE508906207F08A08854D
:1002C3002D0974097808120DEAE508543E90620975
:1002D300F0906201E0D2E0F0E9782946F6906202FC
:1002E300E0F50875090074047808120D437829E5D0
:1002F3000846F608E50946F6906204E0F508750934
:100303000074097808120D43782AE50946F6E9A234
:10031300E05003752B017406596003752B00E58BC0
:10032300A2E55006758BDF752B00121496758B00B2
:10033300C2E87F02020755C3E498F8E499F912036F
:100343007B8026C3E49AFAE49BFBE920E7E91203E6
:100353007BE498F8E499F922C3E498F8E499F91254
:10036300037BE498F8E499F9C3E49AFAE49BFB224B
:10037300EB20E7CFE920E7E0B90010BB0008E88AEB
:10038300F084F8AAF022E4FBC8FA22EB70227B1077
:10039300C833C8C933C9335007C39AC3DBF28006D5
:1003A3009A50012ADBEAC833F4C8C933F4C9FA22E4
:1003B30075F008E4C833C8C933C933C99AC99B5017
:1003C30004C92AC93BD5F0ECFBC833F4C8E4C9FA25
:1003D3002212041420F01430E72B74FFFCFBFA7490
:1003E3007F8022E4FCFBFA7480801AB48008BC008E
:1003F300F2BB00EF800F50EBF9E4C39AFAE49BFBE6
:10040300E49CFCE499C6CC18C6CB18C6CA18C6F936
:1004130022E4C9C608CAC608CBC6D3330308CCC670
:100423003392F0C3947F402E94184019C9B907043E
:10043300CACBCC225025C309CA33CACB33CBCC3366
:10044300CC33D9F422F4600DC9CCC313CB13CBCA7C
:1004530013CAD9F6CC22E4FCFBFA2214FCFBFA22E1
:10046300080808EAC0E0EBC0E086F0E7A4FA180940
:1004730086F0E7A42AFA180986F0E7A42AFA1809ED
:1004830086F0E7A42AFA1986F0E7A4FBE5F02AFA36
:10049300190886F0E7A42BFBE5F03AFA190886F071
:1004A300E7A42BFBE5F03AFA18180986F0E7A4C590
:1004B300F02BFBE43AFA1908E7C5F0C6A426F6E5E3
:1004C300F03BFBE43AFA1886F0E7A4F6E5F00826D9
:1004D300F6E43B08F6E43A08F6D0E0FBD0E0FA2273
:1004E300080808E630E711120CBD1204FB080808DF
:1004F300C64480C618181822181818E9799EC60829
:10050300CAC608CBC608CCC6C370207996CACBCC62
:100513007019798ECBCC70137986CC700EF9802A42
:10052300CA33CACB33CBCC33CC331930E7F2CCCB81
:10053300CA3350147004EA30E00DE4CA3ACACB3B24
:10054300CBCC3CCC500209C3E913C6CC182313C649
:10055300CB18C6CA18C6F922E4CFC0E0E4CEC0E087
:10056300E4CDC0E0E4CCC0E075F020E626F608E672
:1005730033F608E633F608E633F6181818EC33FCBE
:10058300ED33FDEE33FEEF33FFC3EC9709ED97092F
:10059300EE9709EF97191919400FFFEC97FC09ED36
:1005A30097FD09EE97FE191906D5F0BFECF709ED93
:1005B300F709EEF709EFF7191919D0E0FCD0E0FDC0
:1005C300D0E0FED0E0FF222518C582C0E0E5193453
:1005D300FFC583C0E0E518C3958224F810AF0885F2
:1005E30083198582188008858319858218D2AFCE36
:1005F300F0A3E520F0A37808E608F0A3DEFAEFF015
:10060300A3E58124FAF8E608F0A3E608F0A3E608D8
:10061300F0A30808E608F0A3E608F0A31581158106
:10062300D0E0FED0E0F8158115811581E8C0E0EE39
:10063300C0E022120E6CB90003020683E47921782C
:100643000DB800028004F709D8FCE490042178C1B6
:1006530079188002F0A3D8FCD9FA7AE17B1B9000C9
:1006630086781F79028015E493A3AD82AE838A82D4
:100673008B83F0A3AA82AB838D828E83D8E9D9E7DB
:100683007582DC7583FC7405120B1475826E758399
:100693002A7400120B14C0D02518C582C0E0E519D6
:1006A30034FFC583C0E0E518C3958224F310AF0877
:1006B3008583198582188008858319858218D2AFAE
:1006C300C8F0A3E9F0A3EAF0A3EBF0A37908E709E4
:1006D300F0A3D8FAECF0A3EDF0A3EEF0A3EFF0A3B0
:1006E300D0E0F0A3D0E0F0A3D0E0F0A3E520F0A3A6
:1006F300E5F0F0A32212010002020000205104A839
:1007030016090001020301090243000201008019D6
:100713000904000001020201000524001001042461
:1007230002020524060001052401000107058203D6
:1007330040004009040100020A000000070584028A
:1007430040000007050402400000130700003607BD
:100753000000851983851882E0C0E0A3E0F9A3E0D7
:10076300FAA3E0FBA37808E0F608A3DFFAE0FCA312
:10077300E0FDA3E0FEA3E0FFA3E0C0E0A3E0C0E050
:10078300A3E0F5D0A3E0F520A3E0A3F5F010AF08B4
:100793008583198582188008858319858218D2AFCD
:1007A300D082D083D0E0F8D0E032E4730975F01042
:1007B3008E218F228582268583258518828519833C
:1007C300E0CEA3E0CF852682852583EBC9EAC8ED79
:1007D300CBECCAC3E833C8E933C9EA33CAEB33CB3A
:1007E300C3EA9EF524EB9FF523B35004AB23AA245D
:1007F300EC33CCED33CDD5F0DAAE21AF2222D0836A
:10080300D082ECC0E0EDC0E0E493A3FCE493A3FD4D
:10081300ED4C600D12091CEC24FFFCED34FFFD8050
:10082300EFE493A3FCE493A3FDED4C600D120A1FC8
:10083300EC24FFFCED34FFFD80EFD0E0FDD0E0FCC5
:10084300E493A3C0E0E493C0E022D083D082E9C064
:10085300E0E493A3C386F0C5F095F0F908E493A30D
:1008630086F0C5F095F0700BE493A3C3994005E9B6
:10087300048002A3E475F002A42582F582E5F03535
:1008830083F583D0E0F9E493A3C0E0E493C0E022CE
:10089300851983851882E0A3FEE0A3F5207808E09C
:1008A300A3F608DFFAE0A3FFE0A3C0E0E0A3C0E003
:1008B300E0A3C0E0E0A3C0E0E0A3C0E010AF088580
:1008C30082188583198008858218858319D2AFD051
:1008D30083D082020B1AC0E074F2120699A2AFE42D
:1008E30033FED2AFE58AA2E2500790045FE0D2E084
:1008F300F0E58AA2E3500790045FE0D2E1F0758A45
:1009030000C2EB7A107B0090045BE0F9121304EE53
:10091300A2E092AF7F01020755C0E0C3E4939608BB
:100923007401939618400FE493667008087401935A
:10093300661870007019A3A3C3E493960874019317
:100943009618A3A3400DD0E0D0E0D0E002083DA369
:10095300A3A3A3A3A3D0E022D083D082C5F0E493C2
:10096300A3C5F0C395F0F5F0E493A3C395F0400558
:10097300E5F0048001E475F002A42582F582E5F038
:100983003583F583E493A3C0E0E493C0E0227404C9
:1009930080087403800474028000CCC0E0EDC0E0E2
:1009A300E518C39CCCAD1950011D10AF068C188DF2
:1009B3001980068C188D19D2AF120A96D0E0FDD09B
:1009C300E0FC2274028000CCC0E0EDC0E0E518C377
:1009D3009CCCAD1950011D10AF068C188D198006E3
:1009E3008C188D19D2AF120A74D0E0FDD0E0FC222E
:1009F300120DCC6025120DDB6020120E8A700302EB
:100A03000E81080808E76670101819E766700A185F
:100A130019E76670041819E76622F422C0E0C0F0F3
:100A230088F0E4936670080874019366187000A850
:100A3300F0A3A3700BD0F0D0E0D0E0D0E002083DEB
:100A4300A3A3D0F0D0E022D083D082CCC0E0E49343
:100A5300A36006120AF51470FAE493A36006120C5D
:100A63002C1470FAD0E0FCE493A3C0E0E493C0E05C
:100A730022CAC0E0E493A3C582CCC582C583CDC599
:100A830083F0A3C582CCC582C583CDC583DAE5D007
:100A9300E0CA22CAC0E0E0A3C582CCC582C583CD2B
:100AA300C583F0A3C582CCC582C583CDC583DAE6F1
:100AB300D0E0CA227009080808226016181818C660
:100AC300C333C608C633C608C633C608C633C6D53D
:100AD300E0EA22C008C3E096F50808A3E0964208BE
:100AE30008A3E096420808A3E09645087001D3D016
:100AF3000822C0E0E493A3D39C5010E493A3C39CC7
:100B0300400AD0E0D0E0D0E0020A67A3A3A3D0E07C
:100B130022C09FF59FE473D09F22D083D082C09FD1
:100B2300E493C0E0740193C0E0740293F59F220044
:100B3300C0D0251810AF08F518500C05198008F51A
:100B43001850020519D2AFD0D0227404800A74035E
:100B53008006740280027401C0E0F404120B68D0B2
:100B6300E0120E17222518F58210AF08F518400C75
:100B730015198008F51840021519D2AF851983227B
:100B8300C0E0C0D0E8C0E0A8A8D2AFC2C7E8A2E7DF
:100B930092AFD0E0F8D0D0D0E032BB0102E722C060
:100BA30082C08389828A83BB0003E08002E493D0FE
:100BB30083D082226016080808C6C313C618C6135A
:100BC300C618C613C618C613C6D5E0EA22C3E0C6C4
:100BD30096F608A3E0C696F608A3E0C696F608A321
:100BE300E0C696F6222518F8E43519F9222518FAF5
:100BF300E43519FB222518FCE43519FD22251810CC
:100C0300AF08F518400C15198008F518400215199E
:100C1300D2AF22BB000EC082C0838A838982F0D008
:100C230083D08222BB0101F722C0E0E493A36C705E
:100C330009D0E0D0E0D0E0020A67A3A3D0E022E726
:100C43006670100809E766700A0809E76670040809
:100C530009E76622C3E09608A3E09608A3E0960896
:100C6300A3E096A2D265D03322E066701008A3E019
:100C730066700A08A3E066700408A3E06622C3E472
:100C830093960874019396087402939608740393D9
:100C93009622C3E096F008A3E096F008A3E096F04E
:100CA30008A3E096F022C3E697F60809E697F6084C
:100CB30009E697F60809E697F622181818E4C3968A
:100CC300F608E496F608E496F608E496F622E0566B
:100CD300F008A3E056F008A3E056F008A3E056F0AE
:100CE30022E627F60809E637F60809E637F6080983
:100CF300E637F622E026F608A3E036F608A3E03648
:100D0300F608A3E036F622E026F008A3E036F00862
:100D1300A3E036F008A3E036F022E657F60809E62A
:100D230057F60809E657F60809E657F622E056F69D
:100D330008A3E056F608A3E056F608A3E056F62209
:100D4300700422600D18C6C333C608C633C6D5E087
:100D5300F41822E493F608740193F608740293F6E8
:100D630008740393F622E647F60809E647F60809EE
:100D7300E647F60809E647F622C3E09608A3E0969D
:100D830008A3E09608A3E09622C6F4C608C6F4C6F4
:100D930008C6F4C608C6F4C622C3E7960809E79650
:100DA3000809E7960809E79622600D08C6A2E7132B
:100DB300C618C613C6D5E0F32275D00075813F75FA
:100DC300182175190400020636E6084608C31346BF
:100DD30008336002E633F422E7094709C3134709DE
:100DE300336002E733F422600C08C6C313C618C687
:100DF30013C6D5E0F422E6F008A3E6F008A3E6F074
:100E030008A3E6F022E0F608A3E0F608A3E0F6085C
:100E1300A3E0F622CAC0E0E6F0A308DAFAD0E0FACB
:100E230022E0FCA3E0FDA3E0FEA3E0FF22EAF0A39F
:100E3300EBF0A3ECF0A3EDF022E0FAA3E0FBA3E0D8
:100E4300FCA3E0FD22E8F0A3E9F0A3EAF0A3EBF0B2
:100E530022ECF0A3EDF0A3EEF0A3EFF022E0F8A371
:100E6300E0F9A3E0FAA3E0FB22E5C754F84401F557
:100E7300C77901222518F582E43519F58322E7277E
:100E830019471947194722E62618461846184622D5
:100E9300C2AF75D69F02000022120B1D1FC505129B
:100EA3000B1D5FC505120B1D9FC505120B1DB3C599
:100EB30005120B1DCCC505120B1DBDC605120B1D5E
:100EC30062C705120B1D76C705120B1D0B85061293
:100ED3000B1D2F8506120B1D488506120B1D7A85E7
:100EE30006120B1DAA8506120B1DD78506120B1DB4
:100EF300398606120B1D488606120B1D52860612F2
:100F03000B1D5F8606120B1D9BF505120B1DBBF512
:100F130005120B1DFAF505120B1D15F605120B1D17
:100F230034F605120B1D9AF605120B1DA3F60512D6
:100F33000B1D00F705120B1D24F705120B1DE5F71A
:100F430005120B1DF2F705120B1D03F805120B1DFD
:100F5300418D06120B1D598D06120B1D858D061230
:100F63000B1D8CD105120B1DE8D205120B1DF6D2F9
:100F730005120B1D09D305120B1D1ED305120B1DE4
:100F830033D305120B1D46D305120B1DBAD305121D
:100F93000B1D1FD405120B1DC1D405120B1D85D5C6
:100FA30005120B1D95D505120B1DA4D505120B1D9E
:100FB3006F8B06120B1D938B06120B1DBB8B061238
:100FC3000B1DE38B06120B1DB9FA05120B1DE0FA7C
:100FD30005120B1DFEFA05120B1D71FB05120B1DED
:100FE30024F005120B1D3DF005120B1D49F00512EF
:100FF3000B1D5DF005120B1D7BF005120B1D85F01B
:1010030005120B1D8FF005120B1DA2F005120B1D0F
:1010130028F105120B1D9DF105120B1DCCF10512D4
:101023000B1D1AF205120B1D69F205120B1D84F23A
:1010330005120B1D8EF205120B1D9FF205120B1DDF
:10104300E2F205120B1DFD8E06120B1D17B20512DF
:101053000B1D41B205120B1D5EB205120B1D71B2C1
:1010630005120B1D87B205120B1DE5B205120B1DF0
:101073001DB305120B1D11B705120B1D56B8051232
:101083000B1D89B805120B1DECB805120B1D56BAC2
:1010930005120B1D7EBA05120B1D93BA05120B1D0B
:1010A300A3BA05120B1DE7BA05120B1D42BB0512AD
:1010B3000B1D52BB05120B1DC8FE05120B1DE2FED4
:1010C30005120B1D0AFF05120B1D23FF05120B1D35
:1010D30047FF05120B1D65FF05120B1D7CFF051253
:1010E3000B1DAAFF05120B1DC5FF05120B1D938FC8
:1010F30006120B1D79E905120B1D89E905120B1D5B
:1011030090EA05120B1DC4EA05120B1DE6EA05124F
:101113000B1D09EB05120B1D27EB05120B1D61EBD4
:1011230005120B1DC6EB05120B1D08EC05120B1D5A
:1011330047EC05120B1D78EC05120B1DAFEC0512E5
:101143000B1DBCFE02120B1DDAFE02120B1D3FFF2C
:1011530002120B1DDEFF02120B1DB18906120B1DBD
:10116300D57E00120B1D1B7F00120B1D6BFE04129C
:101173000B1DAAFF04120B1D079D05120B1DD9A001
:1011830005120B1DC8A205120B1DF6A305120B1D9C
:10119300D3A405120B1D55A605120B1D25A7051279
:1011A3000B1D79A705120B1D008006120B1D218054
:1011B30006120B1D538106120B1D7D8106120B1D9A
:1011C30031F805120B1DA6F805120B1DB1F8051217
:1011D3000B1DD2F805120B1DE8EF01120B1D72F463
:1011E30001120B1DDBF501120B1D92F701120B1DF2
:1011F3001AF801120B1DB1F801120B1D70F901123F
:101203000B1D64FA01120B1D7CFB01120B1DAAFCC2
:1012130001120B1D008005120B1D038005120B1D0F
:10122300E88605120B1D228805120B1D7389051212
:101233000B1D298A05120B1D148B05120B1DF78B31
:1012430005120B1DF38C05120B1DA58D05120B1D2D
:10125300D58D05120B1D918F05120B1D9DFE0312DB
:101263000B1DBDFE03120B1DD0FF03120B1DD3FF7D
:1012730003120B1D698606120B1D9F8606120B1D9A
:10128300B98606120B1DFB8606120B1D0B87061271
:101293000B1DA58706120B1D57F704120B1D61F7D3
:1012A30004120B1D9BF704120B1D04F804120B1DF3
:1012B30021F804120B1D3AF804120B1DDCF804127A
:1012C3000B1DE5F804120B1D2AF904120B1D53F92B
:1012D30004120B1D60F904120B1DD1F904120B1D2E
:1012E3005CFA04120B1DAAFA04120B1DE8FA04128D
:1012F3000B1D4DFB04120B1D70FB04120B1DE7FBB2
:1013030004120B1D3EFC04120B1D79FC04120B1D71
:10131300AEFC04120B1DC0FC04120B1DD2FC041204
:101323000B1DF1FC04120B1DFAFC04120B1DB5FD81
:1013330004120B1D01FE04120B1D3FFE04120B1DB4
:1013430081CC05120B1DC1CD05120B1DE4CD051279
:101353000B1DF5CD05120B1DF4CF05120B1D14D07B
:1013630005120B1D98FD01120B1DCEFD01120B1D65
:1013730016FE01120B1D6FFF01120B1D1F6B0012D6
:101383000B1D436C00120B1D7D6C00120B1D276E91
:1013930000120B1D516E00120B1DC67000120B1DA7
:1013A300067100120B1D9C7200120B1D3973001283
:1013B3000B1D8B7300120B1D2E7400120B1D667414
:1013C30000120B1DA87400120B1D177600120B1DC3
:1013D300657700120B1D967900120B1DC47900125C
:1013E3000B1DEB7900120B1DF47900120B1D447ACF
:1013F30000120B1DD67A00120B1D057E00120B1D69
:10140300887E00120B1D559006120B1D6B90061261
:101413000B1DA08E06120B1D37DA05120B1D4DDABC
:1014230005120B1DF1DA05120B1D30DB05120B1D26
:101433004DDB05120B1D7EDB05120B1DCBDB0512ED
:101443000B1DFEDB05120B1D39DC05120B1D2EDEF9
:1014530005120B1DB18806120B1D108906120B1DF8
:101463004E8906120B1D8F8906120B1DC68D06129F
:101473000B1DF68D06120B1D2B8E06120B1D2D8ECA
:1014830006120B1D2F8E06120B1D408E06120B1D0E
:10149300428E06120B1D458E06120B1D7983061212
:1014A3000B1DEA8306120B1D0C8406120B1D4484CC
:1014B30006120B1D7A8406120B1D07ED05120B1D78
:1014C3004EED05120B1D71ED05120B1DA9EF051253
:1014D3000B1DC3EF05120B1DEEEF05120B1D488FFD
:1014E30006120B1D9EF702120B1D77F802120B1D3D
:1014F30066F902120B1D77F902120B1D88F902120D
:101503000B1DD2F902120B1D8BFB02120B1DE9FC02
:1015130002120B1D19FD02120B1DE3FD02120B1D1E
:1015230043FE02120B1D008004120B1D0C800412DB
:101533000B1D6E8004120B1D788004120B1D078196
:1015430004120B1D438104120B1DF88104120B1DA1
:10155300058204120B1D688204120B1DB58204124E
:101563000B1D618304120B1DDA8304120B1D8B8583
:1015730004120B1DD28704120B1D188904120B1DB4
:101583006C8A04120B1DFD8A04120B1D3C8C041281
:101593000B1D3D8D04120B1D898E04120B1D5393DD
:1015A30004120B1D3C9404120B1DCF9404120B1D4B
:1015B300F49404120B1D199504120B1DB19504121A
:1015C3000B1DC79504120B1D2D9604120B1D499676
:1015D30004120B1D759604120B1D869704120B1D26
:1015E300589804120B1DD39904120B1DF49904127D
:1015F3000B1D779A04120B1D1D9B04120B1D659B7B
:1016030004120B1DDB9B04120B1D379C04120B1DD4
:10161300C89C04120B1D219E04120B1D649F04120F
:101623000B1DEF9F04120B1D52A004120B1D9CA255
:1016330004120B1D34A404120B1D44A404120B1D2D
:1016430078A404120B1DEDA404120B1D27A504128C
:101653000B1D95A504120B1D2AA604120B1D2AA807
:1016630004120B1DEEA804120B1DF0A904120B1D8E
:10167300A5AB04120B1DCB8106120B1D678206124C
:101683000B1D888206120B1DD98F06120B1D72E4E7
:1016930004120B1DA4E404120B1DD6E404120B1D4B
:1016A3007FE504120B1D6BE704120B1D0EE90412F8
:1016B3000B1D85EA04120B1D43EB04120B1D5CEB9F
:1016C30004120B1D89EB04120B1DC4EB04120B1D3A
:1016D300DDEB04120B1DF3EB04120B1DF6EB0412EE
:1016E3000B1D3DEC04120B1D8DED04120B1DB2ED11
:1016F30004120B1DD2EE04120B1D76EF04120B1D08
:10170300ECEF04120B1D01F004120B1D47F404123D
:101713000B1D8EF504120B1D70D603120B1DCBD6B9
:1017230003120B1D55D703120B1DC6D803120B1D35
:101733009ED903120B1D87DA03120B1D9EDA0312C7
:101743000B1DF0DA03120B1D54DB03120B1D95DB8B
:1017530003120B1DA8DB03120B1DFEDB03120B1D73
:1017630057DC03120B1D6FDC03120B1D1FDF03126B
:101773000B1DB4DF03120B1DDEDF03120B1D27E06D
:1017830003120B1D17E203120B1D81E203120B1D43
:1017930055E303120B1D98E303120B1DB2E303126F
:1017A3000B1DF9E303120B1D19E403120B1DC3E414
:1017B30003120B1D9AE503120B1DA5E503120B1D66
:1017C30015E603120B1D6FE603120B1DC0E6031291
:1017D3000B1DCBE703120B1D6FEA03120B1DA5EACA
:1017E30003120B1D17EB03120B1D3CEB03120B1D16
:1017F300B6EB03120B1D7FEC03120B1DBCEC0312A3
:101803000B1D1EED03120B1DDFED03120B1DE2ED8D
:1018130003120B1DECED03120B1DF6ED03120B1D52
:1018230009EE03120B1D85EE03120B1DAEEE031220
:101833000B1DC1EE03120B1DEDEE03120B1D14EF76
:1018430003120B1D38EF03120B1D73EF03120B1D55
:10185300E5EF03120B1D0DF003120B1D4EF00312E7
:101863000B1D68F003120B1D8DF003120B1DBBF053
:1018730003120B1DDBF003120B1D18F103120B1DDA
:101883004FF103120B1D59F203120B1D8CF30312BC
:101893000B1DA2F303120B1DB9F303120B1DCBF3A4
:1018A30003120B1D488E06120B1D608E06120B1DB4
:1018B3008AC705120B1DC8C705120B1D54C8051294
:1018C3000B1D5FC905120B1D7BCB05120B1DF8CB3E
:1018D30005120B1D82BB05120B1DD1BB05120B1D7F
:1018E30071BD05120B1D2CBF05120B1D6EBF05121A
:1018F3000B1D57C005120B1D61C105120B1D83C1C2
:1019030005120B1DCDC105120B1D4EC205120B1D79
:101913002ED802120B1D51D802120B1D44D90212EC
:101923000B1D8DD902120B1DE5D902120B1D41DAD5
:1019330002120B1D8DDA02120B1D03DB02120B1DAB
:101943008FDB02120B1D04DC02120B1D47DC02129B
:101953000B1D18E002120B1D67E202120B1DA1E220
:1019630002120B1D25E302120B1D56E602120B1D7C
:10197300CBE602120B1D5BE802120B1D63E9021298
:101983000B1D79EA02120B1DEFEA02120B1DB6EBD7
:1019930002120B1D1FEC02120B1D22EC02120B1D77
:1019A300F6EC02120B1D32EE02120B1DF2EF0212C5
:1019B3000B1DEDF102120B1DF8F202120B1D94F335
:1019C30002120B1DDFF402120B1DE5F502120B1DB3
:1019D30048F602120B1DE5F602120B1DC6AD0412EA
:1019E3000B1D66AE04120B1DD0AE04120B1DE9AE27
:1019F30004120B1D78AF04120B1DBCAF04120B1D98
:101A0300D4B004120B1D10B104120B1D8DB10412BE
:101A13000B1DD8B104120B1D37B204120B1DE3B218
:101A230004120B1D8CB504120B1DBAB604120B1D48
:101A33003EB704120B1D1BB904120B1DC0B90412CF
:101A43000B1D63BA04120B1DC2BA04120B1D37BB64
:101A530004120B1D90BC04120B1D5ABD04120B1D66
:101A630090BD04120B1DADBD04120B1D53BE041219
:101A73000B1D9FBE04120B1D2BBF04120B1DAAC00E
:101A830004120B1D67C204120B1DE8C304120B1DC5
:101A930046C504120B1D56C604120B1DFCC60412C8
:101AA3000B1D66C704120B1D85C804120B1DC4C988
:101AB30004120B1D3CCA04120B1D84CA04120B1D15
:101AC300C8CA04120B1D11CB04120B1D5BCB0412ED
:101AD3000B1D90CB04120B1D0ECC04120B1D68CCF6
:101AE30004120B1DC1CD04120B1D40CE04120B1D9D
:101AF30057CF04120B1D79CF04120B1D85D004128E
:101B03000B1D96D004120B1DAED004120B1DCED1AB
:101B130004120B1DEBD104120B1DBED204120B1DBC
:101B2300E2D204120B1DF9D204120B1D1DD30412B1
:101B33000B1D3FD304120B1D31D404120B1D89D48A
:101B430004120B1DFFD504120B1D61D604120B1DCD
:101B530078D604120B1DA6D604120B1DD8D7041277
:101B63000B1D55D804120B1DC2D804120B1D02D92C
:101B730004120B1D64D904120B1D14DA04120B1D7D
:101B8300E6DB04120B1DD1DC04120B1DCBDD0412AA
:101B93000B1DD1DE04120B1DEDDF04120B1DE7E557
:101BA30005120B1DD4E004120B1D74E104120B1D6E
:101BB300B8E104120B1DCDE104120B1DDEE2041289
:101BC3000B1D81E304120B1DD9E304120B1D2BE241
:101BD30005120B1DD3E305120B1D90E405120B1D1B
:101BE300E5E405120B1D62E505120B1D3BDE051234
:101BF3000B1D59DE05120B1D9DDE05120B1DC3DEE9
:101C030005120B1DE9DE05120B1D01DF05120B1D6D
:101C130019DF05120B1DAEC205120B1D94DF051251
:101C23000B1DD6DF05120B1DEBDF05120B1D0DE19E
:101C330005120B1D16E105120B1D1FE105120B1DED
:101C430028E105120B1D32E105120B1DDDD505122E
:101C53000B1DBDD905120B1DCBD905120B1DD0D9F8
:101C630005120B1D55FD05120B1DCEFF01120B1D99
:101C7300759006120B1D008002120B1D5780021275
:101C83000B1DC38002120B1D4F8102120B1D058217
:101C930002120B1D4D8202120B1D668202120B1DD6
:101CA300898202120B1DAB8202120B1DE982021202
:101CB3000B1D388302120B1D638302120B1DC1839C
:101CC30002120B1D688402120B1D108502120B1DDC
:101CD3008C8502120B1D598602120B1DA08602125F
:101CE3000B1DEC8602120B1D748702120B1DAD87B0
:101CF30002120B1D038802120B1D1F8802120B1DFB
:101D03004E8802120B1D5A8A02120B1D888B021277
:101D13000B1DB48B02120B1DE88B02120B1D098CD9
:101D230002120B1D188C02120B1D238C02120B1DA9
:101D3300D28C02120B1D428D02120B1DCD8D02128D
:101D43000B1DD58D02120B1D428E02120B1D7E8EB2
:101D530002120B1D448F02120B1D179002120B1D52
:101D63006C9002120B1D0B9102120B1D6591021256
:101D73000B1DAA9102120B1D439402120B1D869593
:101D830002120B1D709802120B1D549902120B1DA7
:101D9300389A02120B1D499A02120B1DBB9A0212AA
:101DA3000B1D529B02120B1DB79B02120B1DA79C0E
:101DB30002120B1DCC9C02120B1DEA9C02120B1D7E
:101DC300069D02120B1D799D02120B1D889D0212A6
:101DD3000B1D109E02120B1D0D9F02120B1D1A9F4D
:101DE30002120B1D239F02120B1D05A102120B1DD4
:101DF30027A202120B1D37A202120B1D65A30212AA
:101E03000B1DE4A302120B1DFFA402120B1D3BA525
:101E130002120B1D15A702120B1DD2AA02120B1DD3
:101E2300E6AA02120B1DF0AA02120B1DFAAA021255
:101E33000B1D04AB02120B1D1DAB02120B1D27ABB6
:101E430002120B1D94AB02120B1D9FAB02120B1D52
:101E5300C7AB02120B1DD2AB02120B1D37AC021221
:101E63000B1D42AC02120B1D66AC02120B1D8AAC99
:101E730002120B1DFCAC02120B1D45AD02120B1D11
:101E830061AD02120B1DD2AD02120B1D1EAE02126A
:101E93000B1D67AE02120B1DA5AE02120B1D26AF62
:101EA30002120B1DCDAF02120B1D9CB102120B1DB2
:101EB30001B202120B1D2FB302120B1D55B30212F6
:101EC3000B1D9DB402120B1DD7B702120B1DD5B902
:101ED30002120B1DA0BB02120B1D39BC02120B1DFB
:101EE3003ABE02120B1DEFBE02120B1D28BF0212D7
:101EF3000B1D8EBF02120B1D98BF02120B1DC1C119
:101F030002120B1D00C302120B1D57C302120B1D3D
:101F130002C402120B1DB2C502120B1DFFC6021230
:101F23000B1D1FC702120B1D74C702120B1D75C8B0
:101F330002120B1D9DC802120B1DFCC802120B1DC1
:101F4300F4C902120B1D6BCA02120B1D7ECB0212C7
:101F53000B1DECCB02120B1DEBCC02120B1D45CF5C
:101F630002120B1D6ECF02120B1DD4D002120B1DD9
:101F730056D202120B1DADD202120B1D5BD30212FD
:101F83000B1D00D402120B1D59D402120B1D17D5C1
:101F930002120B1DA9D502120B1D08D602120B1D2E
:101FA3004AD602120B1D7BD602120B1DD2D7021288
:101FB3000B1D008003120B1D328003120B1D6B805F
:101FC30003120B1D298203120B1DFF8203120B1D2B
:101FD3005E8303120B1D748403120B1DC084031252
:101FE3000B1D4E8703120B1D288A03120B1D6F8BCB
:101FF30003120B1D078C03120B1D138C03120B1DF5
:102003005C8C03120B1D9E8D03120B1D948E031209
:102013000B1DBE8E03120B1D148F03120B1D6D8F30
:1020230003120B1DE08F03120B1D169203120B1DDF
:10203300989303120B1D839403120B1DCD9503126A
:102043000B1D059803120B1D029B03120B1D119B05
:1020530003120B1DA59B03120B1D509C03120B1D9A
:10206300939C03120B1DFB9C03120B1D179D031264
:102073000B1D469D03120B1D859D03120B1D809E98
:1020830003120B1D2F9F03120B1DACA103120B1D7B
:10209300DEA203120B1DB6A303120B1D38A40312F9
:1020A3000B1D6DA803120B1D9CA803120B1DF7A893
:1020B30003120B1D2AA903120B1DA2A903120B1D48
:1020C300D5A903120B1D36AA03120B1D86AA0312F0
:1020D3000B1D53AB03120B1D0CAC03120B1DD0AC29
:1020E30003120B1D4AAF03120B1DACB003120B1DE1
:1020F300FDB103120B1D21B303120B1D24B30312F5
:102103000B1D53B303120B1D4BB503120B1D0AB664
:1021130003120B1D39B603120B1D57B703120B1D08
:102123001FB803120B1DDDB903120B1D0FBA0312E7
:102133000B1D51BA03120B1D50BB03120B1DC3BB66
:1021430003120B1DECBD03120B1D4BBE03120B1D23
:102153009FBE03120B1DCEC003120B1DB1C1031290
:102163000B1D39C203120B1D27C303120B1D3BC3E7
:1021730003120B1D4FC303120B1D7CC303120B1D54
:10218300ACC303120B1D67C503120B1D79C60312E3
:102193000B1DCEC603120B1D17C703120B1D3EC723
:1021A30003120B1D06C803120B1DACC803120B1D33
:1021B30032CA03120B1D79CA03120B1DEBCA031299
:1021C3000B1D40CC03120B1DE9CC03120B1D1DCDBF
:1021D30003120B1D35CD03120B1DD8CD03120B1D9E
:1021E30054D003120B1DFCD103120B1D1AD2031280
:1021F3000B1D38D203120B1D04D303120B1D52D631
:1022030003120B1D248201120B1D5C8201120B1D94
:10221300508701120B1D9C8701120B1DE2870112CF
:102223000B1D188901120B1D7D8901120B1DF28AEA
:1022330001120B1DFC8D01120B1D258F01120B1DAD
:10224300389901120B1DC89901120B1DB29C011282
:102253000B1DBF9D01120B1D229E01120B1D6A9FB8
:1022630001120B1DD8A101120B1D6AA301120B1D34
:10227300F7A301120B1D16A501120B1DA3A5011235
:102283000B1DADA501120B1DD5A501120B1D75A6C6
:1022930001120B1D60A701120B1D2DA801120B1DAE
:1022A3004AA801120B1D73A801120B1DA0A801124D
:1022B3000B1DE7AA01120B1DB6AB01120B1DF5ABEB
:1022C30001120B1D77AC01120B1D18AD01120B1D72
:1022D3004AAD01120B1D91AD01120B1DC4AD0112CC
:1022E3000B1D08AE01120B1D57AE01120B1D5CAE88
:1022F30001120B1DB8AE01120B1DFCAE01120B1D1A
:10230300D6AF01120B1D3BB001120B1DA1B0011280
:102313000B1D1CB101120B1D84B401120B1D87B5DB
:1023230001120B1D05B701120B1D1BBA01120B1D68
:10233300BDBA01120B1D06BD01120B1DC1BD011259
:102343000B1D00BE01120B1DD8BF01120B1DF5BFE3
:1023530001120B1DFEBF01120B1D07C001120B1D45
:1023630012C001120B1D31C001120B1DD5C1011288
:102373000B1D32C201120B1D3CC201120B1D46C2C2
:1023830001120B1DA5C201120B1DEFC201120B1D81
:10239300F0C301120B1D47C401120B1D58C50112D6
:1023A3000B1DA1C501120B1D5BC601120B1D72C7CC
:1023B30001120B1D47C801120B1D8EC901120B1D03
:1023C30092CA01120B1D8BCB01120B1DA3CB011261
:1023D3000B1DDACB01120B1DE4CB01120B1DEECB4F
:1023E30001120B1DF9CB01120B1D17CC01120B1D92
:1023F3005FCC01120B1DBDCC01120B1DE4CC0112ED
:102403000B1DF6CC01120B1DABCD01120B1DE4CD40
:1024130001120B1D06CF01120B1D59CF01120B1D0B
:102423003FD001120B1D66D001120B1DD6D0011235
:102433000B1D52D101120B1DAED201120B1DD5D3B0
:1024430001120B1D97D401120B1D65D501120B1D33
:1024530023D601120B1D0BD701120B1DB5D7011289
:102463000B1D1DD801120B1DD2D801120B1D2ED925
:1024730001120B1D86D901120B1D4CDA01120B1D23
:102483006FDA01120B1D2ADB01120B1D4CDB01124B
:102493000B1DADDB01120B1DDDDD01120B1DD6DEA5
:1024A30001120B1D82DF01120B1DA3E101120B1D93
:1024B300ECE101120B1D37E201120B1D93E2011235
:1024C3000B1DF1E201120B1D15E301120B1D39E384
:1024D30001120B1D6EE301120B1D96E301120B1D7E
:1024E300DBE301120B1D2FE401120B1D88E4011223
:1024F3000B1D82E501120B1D20E701120B1D65E781
:1025030001120B1D8EE701120B1D17E801120B1DA3
:102513008AE801120B1D98E801120B1DBCE8011299
:102523000B1D12E901120B1D2DE901120B1DE8E928
:1025330001120B1D14EA01120B1D57EA01120B1DA8
:10254300BAEA01120B1DC8EC01120B1DF4EC0112C7
:102553000B1DAFED01120B1D93EE01120B1D27EFA7
:1025630001120B1D97A705120B1DCFA705120B1DFB
:10257300F0A705120B1D32A805120B1D96A8051214
:102583000B1DA0A805120B1DB0A805120B1DE7A873
:1025930005120B1D90AC05120B1D58AE05120B1D39
:1025A3003CB005120B1DDEB005120B1D68B1051200
:1025B3000B1D5D3100120B1D063200120B1DE5329F
:1025C30000120B1DF13300120B1D113400120B1DF1
:1025D300333500120B1DE33600120B1D503700126A
:1025E3000B1D213800120B1D273900120B1D9F39BB
:1025F30000120B1DDA3900120B1D333A00120B1DAA
:102603006E3A00120B1DB73A00120B1D4B3B001222
:102613000B1DE13B00120B1DB63C00120B1D893D47
:1026230000120B1D173E00120B1D3D3E00120B1D29
:102633006A3E00120B1D9B3E00120B1D683F0012E9
:102643000B1D783F00120B1DCB3F00120B1DD83F13
:1026530000120B1DE53F00120B1DEE3F00120B1D78
:10266300524000120B1DB04000120B1DFB40001224
:102673000B1D164100120B1D3D4100120B1D5A414B
:1026830000120B1D664100120B1DF74200120B1DB9
:10269300104300120B1D8C4300120B1D9F430012AD
:1026A3000B1DAF4300120B1D534400120B1DBF45FE
:1026B30000120B1DD24600120B1D724700120B1D98
:1026C3007C4700120B1DFB4700120B1D0C48001228
:1026D3000B1D4B4800120B1D794800120B1D464978
:1026E30000120B1D9D4900120B1DD64900120B1D34
:1026F3002C4A00120B1D4A4A00120B1D984A001265
:102703000B1D634B00120B1DB14B00120B1DFE4B37
:1027130000120B1D814C00120B1DAB4C00120B1D44
:10272300E14C00120B1DF04C00120B1D4F4D00121B
:102733000B1DC74D00120B1D084E00120B1D584EEA
:1027430000120B1D834E00120B1D9D4E00120B1D1C
:10275300B74E00120B1D8C4F00120B1D964F00122B
:102763000B1DD14F00120B1DE14F00120B1DEA4F41
:1027730000120B1D3B5000120B1D4F5000120B1D7E
:10278300715100120B1D865100120B1D19520012BC
:102793000B1D8D5200120B1D325300120B1D3D53A6
:1027A30000120B1DA05400120B1DBC5400120B1D74
:1027B300085500120B1D765500120B1DA85500126B
:1027C3000B1DC25500120B1D225600120B1DC156C4
:1027D30000120B1D0C5700120B1D5F5900120B1D2D
:1027E300F75900120B1D6E5A00120B1DCB5C001221
:1027F3000B1DE35C00120B1DE65C00120B1DF25C6B
:1028030000120B1D065D00120B1D0E5D00120B1D49
:10281300455D00120B1D395E00120B1DC35E0012D5
:102823000B1D455F00120B1DC55F00120B1D9C6045
:1028330000120B1DBE6000120B1D576100120B1D11
:10284300B46100120B1DB76100120B1D266200124A
:102853000B1D726300120B1D856400120B1D1065A6
:1028630000120B1D236600120B1DEA6600120B1DDE
:102873001B6700120B1D416700120B1D4A670012F4
:102883000B1D796700120B1D296800120B1DD968F7
:1028930000120B1D4C6900120B1DEF6900120B1D7A
:1028A300626A00120B1DA16A00120B1DEA6A001274
:1028B3000B1D948C06120B1D448C06120B1D0B8CE6
:1028C30006120B1D088C06120B1D988806120B1D91
:1028D300328806120B1DAF8706120B1D378D0612A9
:1028E3000B1DCF8C06120B1DB78C06120B1DA78C6C
:1028F30006120B1DEA7F00120B1D82C205120B1D6F
:102903005AF505120B1D51F505120B1D3CF5051269
:102913000B1DFD7F00120B1D508B06120B1DB28A7F
:1029230006120B1DA18A06120B1D2E9C05120B1DF0
:10293300549B05120B1D8A9A05120B1DF99805125B
:102943000B1DC29805120B1D949805120B1D489878
:1029530005120B1DB19705120B1D219705120B1DB7
:10296300FB9605120B1DB09605120B1D7A960512E8
:102973000B1DFD9505120B1D28F505120B1D9895D2
:1029830005120B1D02F505120B1DDAF405120B1DC2
:1029930017F405120B1DD0F305120B1D97F3051247
:1029A3000B1DEDF205120B1D1D9006120B1D14E9F4
:1029B30005120B1D479505120B1D6F9405120B1D78
:1029C300DF9305120B1D939305120B1D42E70512AE
:1029D3000B1D0E9305120B1DC99205120B1DAD9213
:1029E30005120B1D559105120B1D6EE605120B1DED
:1029F300279105120B1D31DF05120B1DF4900512F3
:102A03000B1D789005120B1D52FE03120B1DF9FDD1
:102A130003120B1DC4FD03120B1D8FFD03120B1DAF
:102A23005BFD03120B1DEEFC03120B1DD6FC031200
:102A33000B1DB1FC03120B1D8AF903120B1D5DF76D
:102A430003120B1D64F503120B1DF0F403120B1D8F
:102A5300A1F403120B1DF5E505120B1D5BF4031224
:102A63000B1DFDF303120B1DFBDF0400000080FBB5
:102A730087000100DD1C35000400A11C25000200B5
:102A8300A51C26000200A71C27000200A91C280081
:102A93000100B31C29000100B41C84000400B51C10
:102AA30086000100B91C2A000100BA1C2B0001009A
:102AB300BB1C2C000100BF1C2D00080098192E0020
:102AC3000100C01C2F000100C11C30000100C21C0A
:102AD30031000100C31C32000100A01933000100C2
:102AE300A11934000100C41C36000100A2193800EA
:102AF3000100C51C39000100BE1C83000200DB1C61
:102B030063000100AD1964000100BC1C65000100F5
:102B1300BD1C6D000100AE1971000800901966001C
:102B23000100DA1C43000100CB1C44000200CC1C52
:102B330045000100CE1C46000200CF1C47000800E0
:102B4300A51948000100D11C4B000100D21C040050
:102B53000100DE1CA1000100E11C37000100E01CA4
:102B630088000100DF1C3C000100A3193D000100A7
:102B7300C61C49000200D31C67000100AF194D00B9
:102B83000200D51C4E000100D71C4F000200D81CC8
:102B93003E000100CA1C51000100C71C5200010085
:102BA300C81C53000100C91C54000100A4190000F3
:102BB300000000000001363601010001020100019E
:102BC30003010001040106060502000007010034A9
:102BD3000801000F090401010D0100FF0E080000A8
:102BE30017020000190100FF1A0100011B0100FE7A
:102BF3001C0100081D0200001F010001200100014B
:102C0300210200002301000F24020000260100011D
:102C130027010008280200FF2A0100072B010240B8
:102C23002C0100002D0100012E0100012F0100FFE6
:102C330030010B1D310800003A0100083B01000F71
:102C43003C0100013D0100FF3E040000420400007E
:102C5300460400004A0400004E0400005204000031
:102C6300560400005A040000010371030103010329
:102C73000103010301032203020301031003000301
:102C830000030003000300030003000342030003E7
:102C93002403060300030003040312032503230391
:102CA3002503230304030403000300030003440375
:102CB300000300032303000365032100350381039D
:102CC300000305030003000300030003250323039C
:102CD300030271023001600211027002010202025A
:102CE30002028002100261023A0041006302730291
:102CF3007202620243020002130238000002000261
:102D03000402120200020002000200020402040292
:102D1300370037003C02440200023900000200027F
:102D2300650200023502810200020502820283026B
:102D330000020101710101010101110101013101D0
:102D4300010101018001100161013B0014006301D5
:102D530073017201620143010001130106013D0188
:102D6300350004011201000100010001000104010A
:102D73000401330133013C014401320136000001F7
:102D83000001650100013500810100010501820197
:102D93008301000103007100300160001100700025
:102DA3003102200350048000100061000000140071
:102DB300630073007200620043000000130006000A
:102DC30000000000040012000000000000000000EA
:102DD30004000400370037003C02440000000000F8
:102DE30000000000650000003500810000000500C0
:102DF3000000830000000304710402046004110452
:102E030070040204020401040204100461040004B7
:102E1300140463047304720462044304000413047B
:102E23000604000400040404120400040004000463
:102E3300000451046400000400040004440400047A
:102E430000040004000465040004350481046400E4
:102E5300050400048304000436000100060000009A
:102E63000F0000000000000000000000000003FF4E
:102E7300FF00000403FFFF0000FFFF0FF401000544
:102E8300C4040320000100000B0000000000000048
:102E93000003010F0000000000000000000000001C
:102EA300000000000000000000000000000000001F
:102EB3000000000000000A16581610164415000002
:102EC30000000000000000000000000000001616D3
:102ED30044151C16441522164415281644152E169F
:102EE3004415341644153A165E1640164415000070
:102EF30000000000000000000000461670164C168B
:102F03004415461670164C1644153A165E1652169C
:102F1300441500001E1A1300A6191F00AC191F80C8
:102F2300B21901001E1A02002E19030034190400FD
:102F33003A190500401906004C1930006A1931008E
:102F430064193200761933007C1935008219340074
:102F5300881936008E1911009A191400A01915004A
:102F63005E19FFFF00000000030020012182000022
:102F7300000020012282000004004201A48000001E
:102F83000500420193800000060042018280000098
:102F9300070020012382000010004203711C00007F
:102FA300110020031018000012001003821C0600F9
:102FB3000000100113180A000000020000000400C2
:102FC3000000080000001000000020000000400086
:102FD3000000800000000001000000020000000467
:102FE3000000000800000010000000200000004066
:102FF3000000014622067022086A220B8822106410
:103003001F024C22055E220752220C2E220D3A2269
:1030130064601DFF000007ECFDFDFDECDCDCCCBCB7
:10302300ACAC9C9C8C7C7C6C6C5C5C5C4C4C3C3C8D
:103033002C2C1C1C03EAF5E5D5D5C5B5A5959585BE
:10304300857575656555554545353525251515052D
:1030530000160F00000B150B020002220F330000B5
:103063000E5A6967426565416C6C69616E636530D0
:103073003901030507090B0D0F00020406080A0CAA
:103083000D0000000406000004060001040600020F
:103093000400034A49434E181A25050200393D3FEF
:1030A300373C3C362C442D000119161816161823EC
:1030B3000300303017181921301B1D1F3030301614
:1030C300181920231A1C1E300C0E020B040B0A07BE
:1030D30008000F020402010101010902E8030000D4
:1030E30000BE040A00007F000E00E8030000050490
:1030F3000400100803030A1E0C0A10080C281EFF04
:10310300000903010C0508150404E00412398DA21B
:10311300E792AF22E4F0A3F0A3F022A3123117A3A6
:10312300F0227F0C020893E0F508E4F509F50AF5AF
:103133000B227401F09004B4E0640F227409120BA3
:10314300327F04020893A3A3E024F5C394132290CF
:1031530004D4125C867A147B0022C082C083901A46
:10316300C97412F0A37426F0A37424F0A37426F098
:10317300901ACD74FAF0A37425F0A374F4F0A37439
:1031830025F0A37430F0A37426F0A37436F0A3746F
:1031930026F0A3742AF0A37426F0A374E2F0A374B8
:1031A30025F0901AD97406F0A37426F0A3740CF0DA
:1031B300A37426F0A37400F0A37426F0A3743CF068
:1031C300A37426F0901AEA125213600612547D1269
:1031D3001376901AE71249367408F0A3E4F0A3F0CB
:1031E300901B8AF0901AECF07C0BFDF97AED7B1AB8
:1031F3001212AA7C0B7D0079007AF87B1A1212AAAC
:1032030002493F74F71205CA74F7120C00EAFEEB89
:10321300FF12475D74051232D37403F0EE2402FAF1
:10322300E43F1232AD242DFCE43FFD8C828D8312EA
:1032330033EB1232BC6008123B3574FFF0A3F0EE9F
:10324300242BE43F1C1CFD8C828D83A3E0C0E08A09
:10325300828B8312476ED0E01232BC88828983123C
:103263004F662403125A501214667408120E7774B0
:1032730003F09004C91209997402120BF87903EE52
:10328300FAEFFB1227D47402120B32E9F508700728
:10329300EEFAEFFB1226B4A9087409023B45F58246
:1032A300E43FF5831266BB124F5BFB8A828B83126A
:1032B30032CBE8F0A3E9F0EE22125CA41232CBE8A1
:1032C300F0A3E9126220E0221233B68A828B8322B2
:1032D300F0A3E4F01232DB22EE240DF582E43FF595
:1032E300832274F11205CAEAFEEBFF8C088D09896B
:1032F3000A1233C08A828B831233B6740F120E778D
:103303001233D9E824FF18E934FFF988828983E569
:103313000A1233CB9004CE1233C89004CD1233C8B3
:103323007411120E771233D9EE2404FCE43FFD88A6
:103333000B8A828B83E0F50C8C828D83E0250CC392
:10334300950B125CA0E8F0A3E91246CAA3A3A3A3BA
:10335300A3A3A3A3E064037008124A26F0A3E480A6
:10336300031236CC1232D67409F0750CED750D1AB2
:10337300750E00780C120B511236C012129E740394
:10338300120B32750CFF750DFF780C120B55AC0840
:10339300AD097903EEFAEFFB1227D47402120B3254
:1033A300E9F5087007EEFAEFFB1226B4A9087F07C8
:1033B300020893E024FFF8A3E034FFF922EE24028D
:1033C300FAE43FFB221233EB1233CF22F0E824FF5F
:1033D30018E934FFF922E0F50CA31233EB1233CFD3
:1033E30088828983E50CF022E08882898322C08267
:1033F300C083901B09E0C39408400474078001E074
:103403008A828B83F033333354F8F902493F74F0E3
:103413001205CAEAFEEBFF890C8C0E8D0F750A00AC
:10342300A2AFE433F50BC2AF901B03803F1234F914
:10343300503712350A64037030EE24F9FEEF34FF7F
:10344300FF850882850983A3A3E02405FCA3E03458
:1034530000FDEEFAEFFB121466EE24FF1EEF34FFBD
:10346300FF7410250AF50A150C1246971266B7E584
:103473000C6006E508450970B4E50BA2E092AFA223
:10348300AFE433F50BC2AF901B03802C2402FAE4A4
:103493003509FB8A828B83125C8F2406F582E4381C
:1034A300F5831235178A828B831234FFA3A3123557
:1034B30017050A150C1246971246AC602212350AFC
:1034C300640270F11234F9E50840C11237FAA2E53B
:1034D30050E3850E82850F837401F0E50C70D6E509
:1034E3000BA2E092AF8E828F83E50AF0EE24FFFAFF
:1034F300EF34FFFB8035123805A2E6221235032292
:10350300126084A3A3A32285088285098312607EA7
:103513001256B822E08E828F83F0EE24FF1EEF3422
:10352300FFFF221228A07404120B327F08020893B3
:1035330074EC1205CA74F5120C0089138A128B0FEE
:10354300851882851983E4F004120BF01225C4E96F
:10355300F89004B3E0292434F508FA7B001212C270
:103563008A0A8B0BAE0AAF0BEE4F70030236B4EE32
:103573002402F50AE43FF50BA808EE28F8E43FF926
:10358300850A82850B831232B52404F510E43FF5D6
:1035930011851082F583E4F09004B3E0FCF8C3E4F2
:1035A30098F895E0F9850A82850B83E028F508A34E
:1035B300E039F5099004B1125948750E00780C12E0
:1035C3000B517D00AA08AB0912129E7403120B3231
:1035D300AC18AD197401120E77E0F9E50824FFFA6F
:1035E300E50934FFFB1225CA8A828B83E4F0EA24BF
:1035F300FFF508EB34FFF509E50FC454F0F9901B10
:103603008BE0C4333354C0F89004ADE0A2E0E4335C
:1036130013134849440F1236D4E512C454F045132A
:10362300850882850983F0A808850A82850B83E0D3
:10363300FA851082851183E02AC398F0850A828572
:103643000B83E8F0A3E509F01236CC1232D6E4F08E
:10365300740A120E77E4F07508F875091AF50A78FA
:1036630008120B511236C012129E7403120B3285CC
:103673001882851983E06009EE240E1247F344088B
:10368300F01227BCE9F9E4F508F5097808120B559F
:103693007404120BF8EEFAEFFB1227D47402120B28
:1036A30032E97006EEFAEFFB800BEEFAEFFB121233
:1036B300C87A007B00740B120B320231257C0B7D20
:1036C30000EE2418FAE43FFB22124761E4F0A32240
:1036D300E08508828509831236DE22F012591C2206
:1036E30074F31205CA8A0A8B0BA2AFE433F50CC23A
:1036F300AF750800750900901B03802C1239215007
:1037030024850A82850B83A3A3126AE48E828F83A6
:10371300A3A31254801227C2E9600A123747C2E6F4
:10372300F08E088F09123916123BCF70CFE508458A
:10373300096006123801D2E6F0E50CA2E092AF7FF1
:103743000502089312374B22125935E02274F01206
:1037530005CAEAFEEBFF8C0C8D0D750E00A2AFE4DB
:1037630033F50FC2AF750800750900901B03802065
:10377300850A08850B09123801D2E4F0E5081237EF
:10378300FAD2E7F0E50A24FBF582E50B34FFF58373
:10379300E0F50AA3E0F50BE50A450B6043E50A12E1
:1037A3004582350BF583E0A2E750D9850A82850B64
:1037B30083A3A3120999AC0CAD0DEEFAEFFB12270C
:1037C300C87402120B32E960BBE508450960A1E544
:1037D30008240D12380D64017006123816D2E4F075
:1037E300E50FA2E092AFE508450960061226AE7523
:1037F3000E01A90E02352E1245AC123810221238D2
:103803000522E508241112380D22F582E43509F565
:1038130083E02285088285098312607EE02274F2A8
:103823001205CA74FE120C00750C00750D00851884
:1038330082851983E4F0A3F0A2AF33F50AC2AF90F7
:103843001B03E0FEA3E0FF8035EE24FBF582EF349B
:10385300FF1266B5780C120B55EEFCEFFD7A037B75
:103863001B1212F87402120B32EEFCEFFDAA18AB16
:10387300191212E6AE08AF09901B09E014F0EE4FDF
:103883006027123921501DEE240BF8E43FF988829A
:103893008983E024FFF0A3E034FFF0888289831258
:1038A300521360A51239128099E50AA2E092AF90F3
:1038B3001B09E060319004B4E0640F6006901B8A3A
:1038C300E070237AE17B1A1228AC908215120991D9
:1038D3007AE17B1A1228A07404120B32800874F068
:1038E300124B5D1226A2AA18AB191212EC8A0A8B8C
:1038F3000BAE0AAF0BEE4F60131225D6123747A259
:10390300E28E828F83A350D674E980D4023BD78E94
:103913000C8F0DEE24FBF582EF34FFF58322123773
:103923004BA2E72274F71205CAEAFEEBFF1225D673
:1039330012476B1207ADE964019004D0700AE024CA
:1039430001F8A3E034008004E0F8A3E0F9124DB9D4
:1039530012516B901B09E070219004B4E0640F7066
:10396300197AE17B1A1228AC9082151209917AE137
:103973007B1A1228A07404120B32A9A8C2AF901BA1
:1039830009E00412398DA2E7800DF0E9A2E7E433E0
:10399300F8E922E508A2E092AF024BF974F71205A9
:1039A300CAEAFEEBFF1239D4F01225D6EEFCEFFD86
:1039B3007A037B1B1212F2A9A8C2AF901B09123122
:1039C3000D9004B4E0640F70057908122774024B5C
:1039D300F912374BC2E42274F71205CA74EA120CC7
:1039E30000EAFEEBFF9004ADE06040851882851984
:1039F300837401F0120E77E4123AAC120E77AA82A6
:103A0300AB831214668E828F8312381CC0E0740A53
:103A1300120E77D0E0125CB5740B120E77AA82AB4C
:103A2300831227ECAA18AB19121C4C7416023B45DF
:103A330074F71205CAEAFEEBFF1225B8E9F974DC44
:103A430069601E74DD69601974E469601474F36954
:103A5300600F74DE69600A74DF69600574DB697086
:103A630007EEFAEFFB12277A024BF974F71205CA35
:103A730074EB120C00EAFEEBFF8518828519837440
:103A830006123AAC120E77AA82AB83121466125C4A
:103A9300BA740A120E77AA82AB831227ECAA18AB68
:103AA30019121C4C7415023B45F0EE2413FCE43F41
:103AB300FD74022274F71205CA74F7120C00EAFEB1
:103AC300EBFFEE242D1247F36065124384AA18AB73
:103AD300191214667408120E777403F09004C91255
:103AE3000999123B351209999004DCE0F974041228
:103AF3000BF8EEFAEFFB1225BE7404120B32E9F950
:103B030074DC69602374DD69601E74E46960197490
:103B1300F369601474DE69600F74DF69600A74E826
:103B230069600574DB697007EEFAEFFB12277A020E
:103B3300329CEE123B3A22242BF582E43FF583229A
:103B43007403120B32024BF974F21205CA8A088B02
:103B530009750C00750D00750AE7A2AFE433F50B88
:103B6300C2AF901B038003123912123BCF60351290
:103B7300392150F31247F0640170ECEE242FF582E3
:103B8300E43F123D7EE06870DE780C120B55EEFCCC
:103B9300EFFD7A037B1B1212F87402120B32901B97
:103BA30009E014F0E50BA2E092AFEE4F6013EEFADA
:103BB300EFFB1225D679F0EEFAEFFB12277A750A9E
:103BC30000A90AAA08AB0912277A800DE0FEA3E038
:103BD300FFEE4F227402120B327F0602089374F435
:103BE3001205CA74F7120C00EAFEEBFF8E828F8374
:103BF300A3E064F37003023C8B8E828F83A3E064A3
:103C0300DF7003023C8B8E828F83A3E064E86078CD
:103C13008E828F83A3E064DB606E122618E9F508B9
:103C2300705EEE240E1247F36056123C9512266026
:103C3300EA4B604C7408120E77123C9F1209997577
:103C430008FF7509FF7808120B558E828F83A3A393
:103C5300A3A3A3A3A3A3E0F97404120BF81225BE34
:103C63007404120B32E9F50874F36508601274DF0B
:103C73006508600C74E86508600674DB6508700FFE
:103C83008E828F83A3E508F0EEFAEFFB122624025F
:103C9300313FEE240FFAE43FFB79092274021264E8
:103CA3007D74FFF0A3123CAC22123CB022124F6F82
:103CB300A3A32274F51205CA8A088B097E008A829F
:103CC3008B83A3A3A3A3A3A312314940027EE88A53
:103CD300828B83A3A3A3A3A3A3A3A3A3A3E0C394BC
:103CE3001040047EE880138A828B83A3A3A3A3A33B
:103CF300A3A3A3A3A3E0640F600A901B67E0540887
:103D030070027EE8EA240BF582E43509123D7EA3B6
:103D1300A3A3A3A3A3A3A3E0C398500CEA240B1269
:103D2300380D640F60027EE89004CDE0F47003A3C5
:103D3300E0F470027EEC7A237B00121370901AEA8F
:103D4300125490901AEA1252136029850882850949
:103D530083A3A3A982AA8389088A09750A0078081C
:103D6300120B517C237D0012547D12129E74031298
:103D73000B3280027E1AEEF902661EF583E0F88AA2
:103D8300828B83A3A32274F51205CAEAFEEBFF8E8E
:103D9300828F83A3A3A3A3A3A3A3A3E09004B4123A
:103DA30063609004CF1263469004AF126365901B67
:103DB3008BF0F9120FF2901B8BE06018EE2404FADB
:103DC300E43FFB7950120FDAEE2406FAE43FFB7965
:103DD300E1120FDA901B8A123135600474018002FC
:103DE3007400901AEC12634C120B517C0B7D007A19
:103DF300ED7B1A12129E7403120B32EE2418F5088F
:103E0300E43FF5097808120B517C0B7D007AF87BAF
:103E13001A02661674F71205CAEAFEEBFF8E828F4A
:103E230083A3E0700612547D12261E8E828F837444
:103E33002C124B5D122786024BF974F71205CAEA5E
:103E4300FEEBFF901AEA125213600D12547D901A82
:103E5300EAE4F0A3F01213768E828F837408124B78
:103E63005D121C4C024BF974F61205CA901B8AE0D2
:103E73006013901AECE0700D123E8B1225D0EA4BC2
:103E830060031226B4025FC09004AFE0FB9004CF3E
:103E9300E0FA9004B4E0F92274F41205CA74E7124C
:103EA3000C00EAFEEBFF750B018E828F83A3A3A3A5
:103EB300A3A3A3A3E0A2E25068EE242BF582E43F80
:103EC300126AE2123F591225DCE9705590815AE0DB
:103ED30064017005750B008048123F61120B517C21
:103EE3000B7D007411120BF012129E7403120B322D
:103EF3001227BCE9FA740E120BE8880889097808BE
:103F0300120B557508307509007808120B55123BD2
:103F130035120999125C5679011227DA7406120BCD
:103F2300328518828519837410123AAC120E77AA5F
:103F330082AB8312145A123B35125C82740B120E3D
:103F43007712516B740D120E77E50B1249D0121CC8
:103F53004C7419023141EE2413FAE43FFB22EE24A0
:103F63000812635422C082C083901B8BE06003124B
:103F7300282E02493FC082C083901B8274C9F0A3DC
:103F8300741AF0A374CDF0A3741AF0A374D9F0A338
:103F9300741AF0901CF574F9F0A3742DF0901B6C57
:103FA30074B2F0A37425F0901B0E74E8F0A374258B
:103FB300F0901B1074EEF0A37425F0901B67E0449F
:103FC300028001E4F002493FC082C083EAFCEBFDBA
:103FD3007903024FDBC082C083EAFCEBFD79050263
:103FE3004FDBC082C0837908026151C082C08374F1
:103FF300FE120C00901B16749CF0A37426F0901B09
:10400300187496F0A37426F0800D7A037B1B1212AA
:10401300EC1249C61227AA901B0312521370EB909D
:104023001B05125213600F7A057B1B1212EC124907
:10403300C61227AA80E9901B03E4F0A3F0901B09A2
:10404300123118740280027411120B3202493F7448
:10405300F61205CAE9FF749F29F582E43430F5832B
:10406300E493FEFA7B001212C2EA4B6011EA2E12AD
:1040730051618A828B83A3A3A3A3E4F0802C7A02E9
:104083007B001212C2EA4B601D74B52FF582E43433
:1040930030F583E4938A828B83F0A3741AF0901B28
:1040A30062E0F91212CE7A007B00025FC0E9FC7471
:1040B3000629F8EAA2E0501EE875F00A84E5F0F953
:1040C3006014740A28C399F8E9C394054004740A78
:1040D30028F8740B28F8ECC3941340047A14800274
:1040E3007A06EA2879002409F85001097A0A7B0044
:1040F300120373E8F9020B1AC082C083901B67E0B6
:104103005402600A121C52E96004790180027900AA
:1041130002493FC082C083901B67E054026016903F
:104123001B09E0700C125210600BE0C81246A45039
:104133000479018002790002493FC082C0839081E3
:1041430057E0F8901B0BE0C39850051212C280048D
:104153007A007B0002493FC082C0831227AA7900FC
:1041630002493F74F71205CA74FE120C00851882C7
:10417300851983EAF0A3EB1242D5A3A3A3A3A3E07B
:10418300600A14606024FE60690242569004B4E041
:10419300640F6018122780E97012851882851983CD
:1041A300125480901B1212476E1207AD9004DCE08C
:1041B300C0E0851882851983124F39D0E01242D5A9
:1041C3007414126479126AE47A057B1B1212E6A84E
:1041D300A8C2AF901B0BE0041254967920122774E7
:1041E3007402023B45851882851983126086741513
:1041F30080D08518828519831242B8A3A3E0605347
:10420300851882851983E02402F8A3E03400F98835
:104213008289831268B7E0C0E0851882851983E03C
:10422300FCA3E0CC2406F582E43CF583D0E0125CE9
:10423300C288828983125490851882851983124516
:10424300A085188285198360131242BD600512424E
:10425300C54043AA18AB191227AA80841242BD6035
:10426300F21242C5501C1246B4FA8518828519838E
:104273001242BFF874D512515C3430F583E4936A6B
:1042830060148518828519831242BD640870C412B4
:1042930046B4640870BD1246B4141242DD240AC049
:1042A300E085188285198312476ED0E01242DD043F
:1042B3000241C5E0F8A3124F8622E0F8A3E01242C0
:1042C300E422851882851983125C931242E5C39414
:1042D3000A221242EFF5838882221242EF1242E44D
:1042E30022C82406F582E438F583E02212647DE0D7
:1042F300F8A3E022C082C083901B1A1252136008F5
:104303001260871207AD8002790002493F74F712E9
:1043130005CAEAFEEBFF1232DB7401F0EE2430F53E
:1043230082E43FF5831259F01232B524321247F377
:10433300C0E0EE2413F582E43FF583D0E0F0EE24F1
:10434300331247F3C0E0EE2414F582E43FF583D043
:10435300E0F0EE242CF582E43FF583120999124331
:1043630084EE242E1247F3F91227D47402120B326F
:10437300E9F5087007EEFAEFFB1226B4A908024B21
:10438300F9EE2423FCE43FFD22C082C08312278080
:10439300E9600479208002790102493FC082C08329
:1043A300EA124582124443D2E0023FC7C082C0836F
:1043B30012443D64017011124448400C8A828B837D
:1043C300A3E0F912277A806FEA2410124440A2E690
:1043D30050128A828B83A3E0F9901B1412476E124A
:1043E30007AD805312443D6401700D1244485008D8
:1043F3008A828B83743080368A828B83A3E0641B2A
:104403008A828B83700474228024A3E0700D12448B
:104413003DF874C012515C3430800B12443DF87483
:10442300B512515C3430F583E4938A828B83F09028
:104433001B62E0F91212CE02493FEA240DF582E431
:104443003BF583E022EA1245AC3BF583E0A2E3228D
:1044530074F71205CAE9FE1252107003024579EE91
:104463006011741B6E7013E0C812457C6405700301
:10447300024544126076E402454874E96E706212A4
:104483004598700B121C58E960051245B2606279B9
:10449300EE120F5C901B0C124595901B0C603B12A7
:1044A30045B5901B0C700B12459514F012111202B6
:1044B30045791245A0C2E71246C012457C640370D9
:1044C3000C125C8C1245821242EAD2E2F079ED12B0
:1044D3000F5C1245881207AD807512607974E9800C
:1044E3006474E16E703E121C58E960551245B27057
:1044F300509004D6E0C0E0125C8C2412F582E438BC
:10450300F583D0E0F09004C5E0C0E0901B0C1242AC
:10451300B61242B6D0E0F09004C5E004F07901127F
:1045230010FA8052741C6E7018901B0C12548090F9
:104533001B1C12476E1207AD901B0CE4F0A3F08016
:1045430035126076EEF0901B0C1254801226A212E4
:104553005C8C125C5EE0548060109004DCE0F91225
:1045630010169004DBE0F912100A901B0CE4F0A380
:10457300F07910122774024BF9240D1242E722241A
:1045830011F582E422901B0C125484901B101260CC
:104593008022E0F8A3E0C824121242E722E0F8A345
:1045A300E0C81245AC1242EA222410F582E42290BC
:1045B3001B0C125C93125C62E054042274F4120527
:1045C300CA750A00750B00A2AFE433FFC2AF1252E3
:1045D30010600302467C12476B1207ADE94410F8E2
:1045E300901B03800985080A85090B12469712461A
:1045F300AC700302467C123801586870E8780A12DE
:104603000B55AC08AD097A037B1B1212F874021226
:104613000B32901B0CE508F0A3E5091246C01246C5
:10462300A4405D901B0AE014F0EFA2E092AF901B50
:104633000CE0240EF8A3E03400F988088909888285
:10464300F583125480901B0C1246BAF9122666E9C0
:10465300901B07F01246C8E05480901B0C60261292
:104663005C8F24131242E7F9121016125C8C241487
:104673001242E7F912100A8018EFA2E092AF8011FC
:10468300901B0980A11245A0A2E1B3E433F91210F3
:10469300FA023144E50824FBF582E50934FFF5838A
:1046A3002224111242E7A2E7221266BBE50845095C
:1046B30022851882851983123503A3E022F0901B0B
:1046C3000C125C9322A3E4F085088285098322748B
:1046D300F71205CAEAFEEBFF1227A4EE24101247D5
:1046E300F3A2E3400C1247F06401700590815580FA
:1046F30003908156E0F9EEFCEFFD7A037B1B121267
:10470300FEE96046EEFAEFFB901B1612476E1207A6
:10471300ADEE240E1247F354047020A8A8C2AF9044
:104723001B0AE004125476FAE8A2E792AF12475D3F
:10473300A3E0540170211226AE801CEEFAEFFB9029
:104743001B0E12476E1207AD800D8E828F83A374EA
:10475300F1124B5D1226A2024BF912476122EE249D
:104763000EF582E43FF58322901B1812608022C06D
:1047730082C0831226AE02493F74F71205CAEAFECD
:10478300EBFF7900901B67E05402700CEE243012AB
:1047930047F35404600279E8901B67E05460700C9F
:1047A300EE24301247F35402600279E88E828F833D
:1047B300A3A3A3A3E0F890815BE0C398500279E838
:1047C300EE242E1247F3700CEE242B1247F37004E1
:1047D30079F5800BE97005122690E9F9E96007EE97
:1047E300FAEFFB12277A024BF934FFF509EE240D99
:1047F300F582E43FF583E022C082C0838A828B8303
:10480300740DF0121C4C02493FC082C0838A828B14
:1048130083E4F0A3F0EA2430124440540490815519
:104823007012E0F8901B0AE0C398401279F1122746
:104833007A02493FE0F8901B09E0C39850EE901BC1
:1048430062E0F91212CE80E974F61205CAE9FE2479
:104853004CFAE43400FB1212C2EA4B6012EE8A8275
:104863008B83A3A3A3A3F0EA244C12516180047A9F
:10487300007B00025FC0C082C083901B1E74FCF0EB
:10488300A37426F0A3742CF0A37427F0A37402F08E
:10489300A37427F0A37408F0A37427F0A37426F07D
:1048A300A37427F0A3741AF0A37427F0A37414F06D
:1048B300A37427F0A37432F0A37427F0A37438F021
:1048C300A37427F0A3743EF0A37427F0A3744AF0F3
:1048D300A37427F0A3740EF0A37427F0A374F6F067
:1048E300A37426F0A374F0F0A37426F0901B3A741B
:1048F30020F0A37427F0A37444F0A37427F0A374E7
:1049030064F0A37428F0A37450F0A37427F0A37485
:1049130056F0A37427F0901B5EE4F0901B61F090B7
:104923001B4A1249367402F0901B53124936740124
:10493300023FC77474F0A37427F0A322D083D082FC
:10494300020B1A74F51205CA74F1120C0085188251
:104953008519837402F07401120E77E9F060047A0A
:10496300FF7BFF7402120E77125490750856750977
:104973001B750A007808120B517C0B7D007407121B
:104983000E77AA82AB8312129E7403120B32AA18FB
:10499300AB19121C4C740F02661B74F71205CA7410
:1049A300FD120C00851882851983740AF0740112B4
:1049B3000E77E9F07402120E77EA1249D0121C4CFA
:1049C300023B43851882851983EAF0A3EBF0AA180A
:1049D300AB192274F61205CA74F7120C00EAFEEB47
:1049E300FF124A261232D37402124B4EAA18AB1985
:1049F30012145AEE242E1232A12430125A5D120BD5
:104A0300557402120BF879831A1AEFFB1227D47428
:104A130002120B32E9F5087007EEFAEFFB1226B427
:104A2300025FB912476174012274F01205CA12655C
:104A330004120E087808790C1204637808120B4DDF
:104A43007A4D7B1B02352674F41205CA74C6120C08
:104A5300009004B4E0640F60108518828519837494
:104A63002E1249D012278680277A447B1B1228AC4A
:104A730012315212037B88088909E4F50AF50B7891
:104A830008120B4D7A447B1B1228A07404120B32BC
:104A9300743A02314174F51205CAEAFEEBFF8E82C5
:104AA3008F83A3E0F86003024B37EE242D1247F304
:104AB30064026007E06403600278E8EE2423F58271
:104AC300E43FF58312314B400478E8806AE8706470
:104AD300EE2423FAE43FFB79E1120FDAEE242EFAF7
:104AE300E43FFB7950120FDAEE242D1247F36402F0
:104AF300700E125C4C125C829004C312516B8012D4
:104B03009004C374FEF0A304124B4E7ABA7B0412D2
:104B13001466EE2418123F64120B517C0B7D007A4D
:104B2300567B1B12129E7403120B32EEFAEFFB122A
:104B330026EAE9F8E86011E88E828F83A3125EAE5D
:104B43007417124B5D12278602661EF0EE2425FCB5
:104B5300E43FFD228E828F837429F0EEFAEFFB226D
:104B630074F61205CA74F7120C00901B61E0703BD7
:104B73007401F0F91210C4AA18AB191227B67508FC
:104B83005675091B7808120B5575080175090078CD
:104B930008120B559004C91209997406120BF87A7E
:104BA3000379051227DA7406120B32025FBB74F71E
:104BB3001205CAEAFEEBFF79011210CA8E828F83B7
:104BC300E064207004A374EBF0901B61E0A2E25058
:104BD30003C2E2F0E0A2E15008124DFB1226E4808A
:104BE3000C8E828F83742A124B5D1227868007EE08
:104BF300FAEFFB1228227F0102089374F41205CA0C
:104C030074FE120C00EAFEEBFF79011210CA7A441B
:104C13007B1B1228AC7A4D7B1B1228AC124F4585A7
:104C23001882851983124F79E0F50B700FAA18AB20
:104C3300197953120FDA1266AB120FDA123F6112AF
:104C43000B517C0B7D007A567B1B12129E74031250
:104C53000B32851882851983125480A90B1226DE24
:104C6300901B61E0A2E1500C7A008E828F83A3E057
:104C7300F91226E4901B61E4F0740202314174F7E7
:104C83001205CAEAFEEBFF8E828F83A374EBF090CA
:104C93001B61E0A2E150077A0079EB1226E4EEFAF9
:104CA300EFFB12271A024BF974F71205CAEAFEEB5F
:104CB300FF79011210CA7A447B1B1228AC7A4D7B10
:104CC3001B1228AC901B5EE4F0901B61F07AFF7B13
:104CD300FF8E828F83A3E0F91226DE024BF974F76D
:104CE3001205CAEAFEEBFF122714024BF274F71205
:104CF30005CAEAFEEBFF79011210CA8E828F83A3E5
:104D0300A3A3A3E060047400800274EB124D42502D
:104D130003C2E2F0E0A2E15008124E441226E480FE
:104D230014A2E050108E828F83742AF0A374EB12C6
:104D33004B5D122786EEFAEFFB1226C6024BF98E65
:104D4300828F83A3F0901B61E0A2E22274F6120526
:104D5300CAEAFEEBFF901B61E0D2E1F07901121089
:104D6300C48E828F83A3E0703C1227BCE9FAEE2441
:104D73000DF508E43FF5097808120B557508017520
:104D830009007808120B55124DB9120999EE240245
:104D9300FCE43FFD79051227DA7406120B32E98E23
:104DA300828F83A3F08E828F83A3E060067A00F95B
:104DB3001226E4025FC0124DBD22EE240BF582E4FD
:104DC3003FF5832274F71205CAEAFEEBFF7901125D
:104DD30010CA8E828F83E064207004A374EBF0907A
:104DE3001B61E0A2E25003C2E2F0E0A2E15006122E
:104DF3004DFB1226E4024BF9C2E1F07A008E828F5A
:104E030083A3E0F92274F71205CAEAFEEBFF7901E6
:104E13001210CA7A447B1B1228AC8E828F83A3A301
:104E2300A3A3E060047400800274EB124D425003AC
:104E3300C2E2F0E0A2E15006124E441226E4024D13
:104E430038C2E1123CACA3E0A2E4E433FA8E828FD1
:104E530083A3E0F92274F71205CAEAFEEBFF790196
:104E63001210CA8E828F83A374EB124D475003C274
:104E7300E2F0E0A2E15006124DFB1226E4024BF9E8
:104E830074F71205CAEAFEEBFF7A447B1B1228ACC7
:104E9300EEFAEFFB12273E024BF274F71205CAEA51
:104EA300FEEBFF7A447B1B1228ACEEFAEFFB1227D2
:104EB3003E024BF974F71205CA74EF120C00EAFEB6
:104EC300EBFF125C567ABA7B04121454E9606285D4
:104ED30018828519837409F07401120E7774EFF048
:104EE300124F45F87402120E77E8124F79A3A3E02C
:104EF300C0E07404120E77D0E0124F666408701598
:104F03008E828F83A3A3124F39E0C0E07405120E83
:104F130077D0E080067405120E77E4125CB5740650
:104F2300120E77AA82AB831227ECAA18AB19121CB4
:104F33004C7411023B45125C932407F582E438F567
:104F43008322124F5BFB8A828B83125C8688828961
:104F530083E0FCA3E0F9EC22EE2402F8E43FF9E855
:104F6300FAE922124F6A22124F6FE022F08E828FEB
:104F730083A3A3A3A322F0A3E9125CA4124F832269
:104F8300E0F8A3126087A3A322C082C08312282E55
:104F930002493FC082C083901B7E741EF0A3741B22
:104FA300F0A3743AF0A3741BF0901CEF7435F0A3D4
:104FB300742DF0A374D3F0A3742CF0901B6A74D8EF
:104FC300F0A37426F0901B67E04401023FC7C08240
:104FD300C083EAFCEBFD790212279202493FC082AB
:104FE300C083790602615174F61205CA74FE120C6D
:104FF30000901B6312521360077A637B1B1227AA6C
:10500300901B69E4F09017B712521360268007AA29
:1050130018AB191227AA901B62E0F91212DA8A0858
:105023008B09A808A90985188285198312516BE891
:105033004970DC7402025FBD74F71205CAE9FA7B9A
:1050430000901B62E0F9121304024BF974F7120586
:10505300CA74F0120C00EAFCEBFDE9FE8C828D832E
:10506300E0F874CB12515C3430F583E493C0E07400
:1050730001120E77D0E0F0640B700DEE8C828D83FD
:10508300A3F012281002514FE0700302514F640C39
:105093006003025140741A6E700B7404120E77E4AD
:1050A300F0A302513F7404120E77ECF0A3EDF0EC81
:1050B300242F125154C0E07403120E77D0E0126211
:1050C30017120E607406120E77120E488C828D83AF
:1050D300125C79740A120E7712516BEC240E125182
:1050E3005454106009851882851983E48013EC24D5
:1050F30012125154F89004D6E0C39885188285198A
:1051030083F0E0C0E0740C120E77D0E0F0EC2415CD
:10511300125154C0E0740D120E77D0E0F0EC241657
:10512300125154C0E0740E120E77D0E0F0EC241745
:10513300125154C0E0740F120E77D0E0F0740212D3
:105143000E77EEF07401120BF0121C4C7410023B3C
:1051530045F582E43DF583E02228F582E422F8E474
:105163003BF98A828B83A3A3E8F0A3E9F022C082F0
:10517300C083901B69E064037004790180027900A5
:1051830002493F74F71205CA901B69E01251FD12E0
:105193006AE28A828B83E0C2E7F025E0F8EC1251E1
:1051A3005C3DF583A3E493FE1251FDF58312521384
:1051B3006005EE901B69F08A828B83E0125209EC42
:1051C30028F582ED39F583E493FCC4540F25E0F808
:1051D300747812515C341BF5831252137005122735
:1051E300FE8014EC540F25E0FCE82CF582E439F53D
:1051F3008312476E1207AD024BF912520974ED2860
:10520300F582741C392225E0F8E433F922901B0C53
:10521300125C86E8492274F11205CA74FE120C006E
:10522300890AEAFEEBFF125315FA7B001212C28AB7
:10523300088B09EA450960388A828B83E50AF0A363
:10524300E4F08E0C8F0DF50E780C120B51A80A1298
:105253005322EA2402FAE43509FB12129E74031264
:105263000B32AA08AB09901B62E0F91212CE80122E
:10527300851882851983E50AF0791AAA18AB1912E1
:10528300277A7402120B320233B174F21205CA7414
:10529300FE120C00890B8A088B09125315F50AFAC2
:1052A3007B001212C28A0C8B0DAE0CAF0DEE4F6059
:1052B3004A8E828F83E50BF0A3E4F0A80AEE28F868
:1052C300E43FF98E828F831251698E828F83A3A369
:1052D300A3A3E4F0F50A7808120B51A80B1253228A
:1052E3001236C412129E7403120B32EEFAEFFB90C5
:1052F3001B62E0F91212CE79008014851882851999
:1053030083E50BF0791AAA18AB1912277A791A02D6
:105313003BD7749429F582E43430F583E493227403
:10532300AA28F582E43430F583E493FC7D0022C09F
:1053330082C083E9901B62023FC774F61205CA74E8
:10534300FE120C00EAFEEBFFEE542070378040A8FB
:10535300A8C2AF901B0BE014125476F508E8A2E73D
:1053630092AF8A828B8312546D901B6512549012F4
:105373002786851882851983E0641560077A657B23
:105383001B1227AA7A057B1B1212ECEA4B70C0EFA3
:1053930054807012801C901B651254901227867AD9
:1053A300657B1B1227AA901B62E0F91212DAEA4B03
:1053B30070E4EE5410600E851882851983742D12E3
:1053C30049D0122786EEA2E0500E851882851983F4
:1053D30074241249D0122786EE5402600E85188277
:1053E30085198374251249D0122786EE5404600E62
:1053F30085188285198374261249D0122786EE54A4
:1054030008600E85188285198374281249D01227E3
:1054130086EE544060107401120E77126478742C77
:105423001249D0122786EE548060107401120E7751
:10543300126478742F1249D0122786901B6312527C
:10544300136020A8A8C2AF901B63125480901B6303
:10545300E4F0A312549612548F1227867A657B1BAD
:105463001227AA7A007B00025036E085188285193C
:1054730083F022F0E8A2E7E43322901AEA1254847C
:1054830022E0FAA3E0FB22A3A3A3A3A3A3EAF0A32E
:10549300EBF022125476FEE8A2E792AF22C082C05C
:1054A30083901B65125C82EA687002EB6970079057
:1054B3001B65E4F0A3F002493F74F71205CAEAFE44
:1054C300EBFFEE4F7003122912A2AFE433F508C2CB
:1054D300AF8E828F831252136028E824FBFAE934DB
:1054E300FFFB901B65126AE4E86C7002E96D7007BC
:1054F300901B65E4F0A3F08E828F83E4F0A3F01297
:105503001376023996C082C083901B8C74F2F0A389
:105513007427F0A37404F0A37428F0A3740AF0A30F
:105523007428F0A374C0F0A37426F0A37410F0A33E
:105533007428F0A374BAF0A37426F0A374C6F0A37E
:105543007426F0901B9A7440F0A37428F0A3741689
:10555300F0A37428F0A3741CF0A37428F0A3742898
:10556300F0A37428F0A37422F0A37428F0901B8B8B
:10557300023FC6C082C0839004C3E064FE7003A3ED
:10558300E0F470097CBA7D0412145A80158A828B68
:1055930083A3A3A3A3A3A3A3A37402F01256F81295
:1055A300516B02493FC082C0839004CDC3E094FE97
:1055B300A3E094FF400479038002790202493FC0CB
:1055C30082C0831257038C828D831256B868703958
:1055D300740268701C8A828B83125611E0687029EA
:1055E3008A828B83A3125611A3E068701C79018011
:1055F3001A7403687013EC2405FC50010DEA2405AA
:10560300FA50010B1214608002790002493FA3A3F0
:10561300A3A3A3E0F88C828D83A3A3A3A3A32274E3
:10562300F61205CA7E00740A120E77E01256ACFF1A
:105633008A828B83A3A3A3A3A3A3A3A3E06F706412
:1056430074026F704E8A828B83C082C08388828982
:1056530083A3A3A3A3A3E0F50888828983A3A3A3B9
:10566300A3A3A3E0FBAA08D083D082E06A7003A3BC
:10567300E06B703088828983A3A3A3E0FA888289D0
:1056830083A3A3A3A3E0F9EA6C7002E96D70157E0E
:1056930001801174036F700CE82405FCE439FD12DA
:1056A3001460E9FEEEF9025FC0F8A3E0F98882898D
:1056B300831256B822A3E01313543F540322C0822B
:1056C300C0838A828B83A3A3A3A3A3A3A3A3E0641E
:1056D3000270141256F8E0687003A3E0697004794D
:1056E30001800F7900800BEAFCEBFD7ABA7B041290
:1056F300145402493F9004C3125C868A828B83222E
:105703008A828B831256B8F82274EC1205CAEAFE19
:10571300EBFF8C128D13750A008C828D83A3A3A3D8
:10572300A3A3A3A3A3E0F510E9A2E75008750CFF18
:10573300750DFF80069004C9125948E9C2E7F511B7
:10574300EE240E1247F3542060071259297408807F
:1057530004125929E4125950540460071259317440
:10576300808005125931741012595054106006127A
:105773005901E4800B9004D6E0C0E0125901D0E057
:10578300125950A2E05003750A20540860067410A1
:10579300450AF50A8E828F83A3A3E024FFF508A3AD
:1057A300E01247ECC39402E0400B640B6005E01485
:1057B3001236D47403450AF50A750B009004E9E028
:1057C300640170118E828F83A3A3A3A3E0C39467A4
:1057D3004003750B1085110E750F00740E780E12B1
:1057E3000D43E50F450BF50B7414120E77E0F50E20
:1057F300A3E0F50F74026511700E9004CE1236D338
:105803009004CD12593F801374036511701212591D
:105813000B7CDD7D04AA08FB121466125918800460
:10582300E5116028E5106014E50E650C7004E50FC2
:10583300650D70087440450AF50A80108508828555
:105843000983E50D125956E50C1236DA85100C75ED
:105853000D00740A780C120D43E50D450BF50B741E
:105863000265107015851282851383A31236D385C2
:10587300128285138312593F8013740365107012CB
:1058830012590BAC12AD13AA08FB12146612591865
:105893008004E5106010850882850983E50F12599D
:1058A30056E50E1236DAA808A909E824FFF508E937
:1058B3001247EC70059004B980039004C5E0FA0424
:1058C300F0EA888289831246CAE50B125956E50A23
:1058D300F0EE2404F8E43FF91233C0AC088A828B5B
:1058E30083E0F50A88828983E0250AC39C125CA0C1
:1058F300ECF0A3E509125E1CE4F0F9023125EE2475
:1059030012F582E43FF58322E50824F9F508E50959
:1059130034FFF5092212591C22E50824FFF508E596
:105923000934FFF50922EE1245AC3FF583221259E3
:105933003522EE2411F582E43FF58322E0850882C7
:10594300850983F022E0F50CA3E0F50D22F0124760
:1059530061E0221236DE850882F5832274EE120599
:10596300CA890A8A0B8C108D11750C1A7416120EC3
:10597300771266B7AA08FB1226608A0E8B0FAE0E4B
:10598300AF0FEE4F60607414120E771259F0E8F007
:10599300A3E91232D6E50AF085080C85090D750EC8
:1059A30000780C120B511236C012129E7403120BA4
:1059B300327412120E77120999AC10AD11A90BEEC5
:1059C300FAEFFB1227D47402120B32E9F50C7016AE
:1059D300E50A24F96003147006123747D2E5F0EEA6
:1059E300FAEFFB1226B4A90C7F0A02089312609502
:1059F3001247622274F61205CA74F7120C00EAFE0B
:105A0300EBFF7801EE242F1247F36002780512476B
:105A13005DE81232D37404125A5012145AEE242C35
:105A23001232A1242E125A5D120B557402120BF876
:105A330079031A1AEFFB1227D47402120B32E9F519
:105A4300087007EEFAEFFB1226B4025FB9F0EE24FA
:105A530023FCE43FFDAA18AB1922F582E43FF5834A
:105A63001233EB124F6A04F078082274F21205CA5B
:105A73008A088B09ECFEEDFF8A828B837405F0EEB6
:105A830024321247F38A828B83A3A3F0EA2403F51B
:105A93000AE43509F50B850A82F583125948125C2D
:105AA3004C120E60E50C124582350DF583120E483B
:105AB300125C56AA0CAB0D12145A850A82850B830D
:105AC30012608DFAA3E0FB88828983A3A3A31254F7
:105AD3008AEE242F1247F3C0E0125C6BD0E0125C15
:105AE300AA2415F582E438F583E4125CAA125C5EFD
:105AF300E4125CB5850A82850B83E02416FAA3E0E1
:105B03003400FB1227EC8E828F83A3A3A3A3A3A34A
:105B1300A3E0C0E0850A82850B83125C8F240DF518
:105B230082E438F583D0E0125C99FAA3E0FB850A9E
:105B330082850B83125C82E8240BFCE439FD8A82A4
