:020000040000FA
:06000000020C330202397C
:03002B00020A2D99
:0300330002025B6B
:0300530002016E39
:03007B00020799E0
:100083000201CD010020FD00020000B30F000000BB
:100093000000004F1000000D1000009B0F00000037
:1000A300000000000000000000000000000000004D
:1000B300000000000006FFFF060008C21700000052
:1000C3000160EA00003914451400004B1451140078
:1000D30000000000000000000001000000002020DC
:1000E3002020202020202020202020202020010844
:1000F3000401000100021681021A810101010400BA
:100103000E18000000E8030000FFFFDA18E8030000
:100113000064006400B801A0BB0D00A0BB0D000289
:100123000200F8FF0705021E0401051E02051E0258
:100133000A0A010108080103102702803E0102FE9A
:10014300FFE8030A050001FFFF010A1401E00101B2
:1001530005030101FF0F10FEFFBA2A000000008E05
:100163002900000000FF000000FF00C0E074F1124E
:10017300055CA2AFE433F509D2AF85A708AFA1EFC1
:100183005508FE74105E6006120D3175A1EF7408F8
:100193005E6008120D3775A1F78024EFA2E092F09C
:1001A300E508A2E082F05017906198E0F89004937C
:1001B300E0C398A2D265D0335002E8F075A1FEE502
:1001C30009A2E092AF7F02020618C0E074F21205A2
:1001D3005CA2AFE433FED2AF9061A4E0F8759B005C
:1001E300E59158540860087591F7120D7F8023E557
:1001F3009158541060087591EF120D858014E591A4
:10020300A2E092F0E8A2E082F05007E0C2E0F01230
:100213000ECF9061A3E0F8E5E9585404600E120E86
:10022300A575E9FB906193E0A2E640F2EEA2E092AD
:10023300AF7F01020618C0E074F212055CA2AFE4BE
:1002430033FED2AF9061A5E0F8E5BF5854046006D1
:1002530075BFFB120EE780D4C0E074F112055CE5B4
:100263009DA2E650FA906206E0F9A2E25034AA2A6F
:10027300EA90620BF0F508852B0974047808120CD8
:1002830052E508906207F08A08852B0974097808FB
:10029300120C52E508543E906209F0906201E0D2DC
:1002A300E0F0E9782746F6906202E0F50875090068
:1002B30074047808120B967827E50846F608E509D2
:1002C30046F6906204E0F50875090074097808128F
:1002D3000B967828E50946F6E9A2E0500375290153
:1002E3007406596003752900E58BA2E55006758BEA
:1002F300DF752900121295758B00C2E87F02020692
:1003030018C3E498F8E499F91203458026C3E49AE4
:10031300FAE49BFBE920E7E9120345E498F8E49942
:10032300F922C3E498F8E499F9120345E498F8E450
:1003330099F9C3E49AFAE49BFB22EB20E7CFE92087
:10034300E7E0B90010BB0008E88AF084F8AAF022BD
:10035300E4FBC8FA22EB70227B10C833C8C933C947
:10036300335007C39AC3DBF280069A50012ADBEAB3
:10037300C833F4C8C933F4C9FA2275F008E4C833A2
:10038300C8C933C933C99AC99B5004C92AC93BD5C3
:10039300F0ECFBC833F4C8E4C9FA22080808EAC041
:1003A300E0EBC0E086F0E7A4FA180986F0E7A42A98
:1003B300FA180986F0E7A42AFA180986F0E7A42AAE
:1003C300FA1986F0E7A4FBE5F02AFA190886F0E7A4
:1003D300A42BFBE5F03AFA190886F0E7A42BFBE51A
:1003E300F03AFA18180986F0E7A4C5F02BFBE43AB3
:1003F300FA1908E7C5F0C6A426F6E5F03BFBE43A94
:10040300FA1886F0E7A4F6E5F00826F6E43B08F6CA
:10041300E43A08F6D0E0FBD0E0FA22E4CFC0E0E40F
:10042300CEC0E0E4CDC0E0E4CCC0E075F020E62629
:10043300F608E633F608E633F608E633F618181836
:10044300EC33FCED33FDEE33FEEF33FFC3EC9709E2
:10045300ED9709EE9709EF97191919400FFFEC97DC
:10046300FC09ED97FD09EE97FE191906D5F0BFECCF
:10047300F709EDF709EEF709EFF7191919D0E0FCC1
:10048300D0E0FDD0E0FED0E0FF222518C582C0E019
:10049300E51934FFC583C0E0E518C3958224F8103D
:1004A300AF0885831985821880088583198582188A
:1004B300D2AFCEF0A3E520F0A37808E608F0A3DEE0
:1004C300FAEFF0A3E58124FAF8E608F0A3E608F0D2
:1004D300A3E608F0A30808E608F0A3E608F0A315CE
:1004E300811581D0E0FED0E0F8158115811581E8F2
:1004F300C0E0EEC0E022120CC5B90003020546E4D9
:100503007921780BB800028004F709D8FCE4900441
:1005130021788579188002F0A3D8FCD9FA7AA57BD3
:100523001B90008678E979018015E493A3AD82AE30
:10053300838A828B83F0A3AA82AB838D828E83D836
:10054300E9D9E775825E7583E074051209A47582A3
:100553008F75832774001209A4C0D02518C582C0E3
:10056300E0E51934FFC583C0E0E518C3958224F3A1
:1005730010AF0885831985821880088583198582C1
:1005830018D2AFC8F0A3E9F0A3EAF0A3EBF0A37984
:1005930008E709F0A3D8FAECF0A3EDF0A3EEF0A37B
:1005A300EFF0A3D0E0F0A3D0E0F0A3D0E0F0A3E518
:1005B30020F0A3E5F0F0A3221201000202000020C4
:1005C3005104A816090001020301090243000201B4
:1005D3000080190904000001020201000524001033
:1005E3000104240202052406000105240100010779
:1005F30005820340004009040100020A00000007CD
:1006030005840240000007050402400000D60500EF
:1006130000F9050000851983851882E0C0E0A3E096
:10062300F9A3E0FAA3E0FBA37808E0F608A3DFFA56
:10063300E0FCA3E0FDA3E0FEA3E0FFA3E0C0E0A392
:10064300E0C0E0A3E0F5D0A3E0F520A3E0A3F5F03C
:1006530010AF0885831985821880088583198582E0
:1006630018D2AFD082D083D0E0F8D0E03275F0104A
:100673008E218F228582268583258518828519837D
:10068300E0CEA3E0CF852682852583EBC9EAC8EDBA
:10069300CBECCAC3E833C8E933C9EA33CAEB33CB7B
:1006A300C3EA9EF524EB9FF523B35004AB23AA249E
:1006B300EC33CCED33CDD5F0DAAE21AF2222D083AB
:1006C300D082ECC0E0EDC0E0E493A3FCE493A3FD8F
:1006D300ED4C600D1207DCEC24FFFCED34FFFD80D4
:1006E300EFE493A3FCE493A3FDED4C600D1208AF7C
:1006F300EC24FFFCED34FFFD80EFD0E0FDD0E0FC07
:10070300E493A3C0E0E493C0E022D083D082E9C0A5
:10071300E0E493A3C386F0C5F095F0F908E493A34E
:1007230086F0C5F095F0700BE493A3C3994005E9F7
:10073300048002A3E475F002A42582F582E5F03576
:1007430083F583D0E0F9E493A3C0E0E493C0E0220F
:10075300851983851882E0A3FEE0A3F5207808E0DD
:10076300A3F608DFFAE0A3FFE0A3C0E0E0A3C0E044
:10077300E0A3C0E0E0A3C0E0E0A3C0E010AF0885C1
:1007830082188583198008858218858319D2AFD092
:1007930083D0820209AAC0E074F212055CA2AFE41E
:1007A30033FED2AFE58AA2E2500790045FE0D2E0C5
:1007B300F0E58AA2E3500790045FE0D2E1F0758A86
:1007C30000C2EB7A107B0090045BE0F912112DEE6E
:1007D300A2E092AF7F01020618C0E0C3E49396083B
:1007E3007401939618400FE493667008087401939C
:1007F300661870007019A3A3C3E493960874019359
:100803009618A3A3400DD0E0D0E0D0E00206FDA3EC
:10081300A3A3A3A3A3D0E022D083D082C5F0E49303
:10082300A3C5F0C395F0F5F0E493A3C395F0400599
:10083300E5F0048001E475F002A42582F582E5F079
:100843003583F583E493A3C0E0E493C0E02274040A
:10085300800474028000CCC0E0EDC0E0E518C39CC6
:10086300CCAD1950011D10AF068C188D1980068C64
:10087300188D19D2AF120926D0E0FDD0E0FC227406
:10088300028000CCC0E0EDC0E0E518C39CCCAD19FC
:1008930050011D10AF068C188D1980068C188D1908
:1008A300D2AF120904D0E0FDD0E0FC22C0E0C0F0DA
:1008B30088F0E4936670080874019366187000A8C2
:1008C300F0A3A3700BD0F0D0E0D0E0D0E00206FD9F
:1008D300A3A3D0F0D0E022D083D082CCC0E0E493B5
:1008E300A360061209471470FAE493A36006120A80
:1008F300A61470FAD0E0FCE493A3C0E0E493C0E054
:1009030022CAC0E0E493A3C582CCC582C583CDC50A
:1009130083F0A3C582CCC582C583CDC583DAE5D078
:10092300E0CA22CAC0E0E0A3C582CCC582C583CD9C
:10093300C583F0A3C582CCC582C583CDC583DAE662
:10094300D0E0CA22C0E0E493A3D39C5010E493A365
:10095300C39C400AD0E0D0E0D0E00208F7A3A3A3F1
:10096300D0E0227009080808226016181818C6C3B8
:1009730033C608C633C608C633C608C633C6D5E071
:10098300EA22C008C3E096F50808A3E096420808E7
:10099300A3E096420808A3E09645087001D3D00867
:1009A30022C09FF59FE473D09F22D083D082C09F43
:1009B300E493C0E0740193C0E0740293F59F222591
:1009C30018F58210AF08F518400C15198008F518B2
:1009D30040021519D2AF8519832200C0D025181003
:1009E300AF08F518500C05198008F51850020519C1
:1009F300D2AFD0D0227404800A74038006740280BC
:100A0300027401C0E0F4041209C2D0E0120C702297
:100A1300BB0102E722C082C08389828A83BB0003B1
:100A2300E08002E493D083D08222C0E0C0D0E8C04B
:100A3300E0A8A8D2AFC2C7E8A2E792AFD0E0F8D04F
:100A4300D0D0E0326016080808C6C313C618C61310
:100A5300C618C613C618C613C6D5E0EA222518F869
:100A6300E43519F9222518FAE43519FB222518FC77
:100A7300E43519FD22C3E0C696F608A3E0C696F650
:100A830008A3E0C696F608A3E0C696F6222518103A
:100A9300AF08F518400C15198008F5184002151910
:100AA300D2AF22C0E0E493A36C7009D0E0D0E0D0D1
:100AB300E00208F7A3A3D0E022C3E09608A3E096E0
:100AC30008A3E09608A3E096A2D265D03322E76696
:100AD30070100809E766700A0809E76670040809D8
:100AE300E76622E066701008A3E066700A08A3E0D8
:100AF30066700408A3E06622C3E697F60809E69742
:100B0300F60809E697F60809E697F622C3E096F099
:100B130008A3E096F008A3E096F008A3E096F0227D
:100B2300C3E4939608740193960874029396087429
:100B330003939622E627F60809E637F60809E6370F
:100B4300F60809E637F622E056F608A3E056F6085B
:100B5300A3E056F608A3E056F622E647F60809E6B0
:100B630047F60809E647F60809E647F622E026F0C5
:100B730008A3E036F008A3E036F008A3E036F0223D
:100B8300E493F608740193F608740293F608740369
:100B930093F622700422600D18C6C333C608C63309
:100BA300C6D5E0F41822E657F60809E657F6080911
:100BB300E657F60809E657F622E026F608A3E036DC
:100BC300F608A3E036F608A3E036F622E056F0086E
:100BD300A3E056F008A3E056F008A3E056F022E4A1
:100BE300C396F608E496F608E496F608E496F62229
:100BF300C6F4C608C6F4C608C6F4C608C6F4C622B8
:100C0300600D08C6A2E713C618C613C6D5E0F322C3
:100C1300C3E7960809E7960809E7960809E79622C5
:100C2300C3E09608A3E09608A3E09608A3E0962203
:100C330075D00075813F751821751904000204F9F8
:100C4300E6F008A3E6F008A3E6F008A3E6F02260C6
:100C53000C08C6C313C618C613C6D5E0F422E0F6C3
:100C630008A3E0F608A3E0F608A3E0F622CAC0E072
:100C7300E6F0A308DAFAD0E0FA22E8F0A3E9F0A359
:100C8300EAF0A3EBF022E0F8A3E0F9A3E0FAA3E093
:100C9300FB22ECF0A3EDF0A3EEF0A3EFF022E0FCD7
:100CA300A3E0FDA3E0FEA3E0FF22EAF0A3EBF0A3A1
:100CB300ECF0A3EDF022E0FAA3E0FBA3E0FCA3E059
:100CC300FD22E5C754F84401F5C77901222518F53B
:100CD30082E43519F58322C2AF75D69F0200002244
:100CE3001209AD38B3051209AD4CB3051209AD6550
:100CF300B3051209AD56B4051209ADFBB4051209CB
:100D0300AD0FB5051209AD16E7051209AD3AE705B2
:100D13001209AD53E7051209AD85E7051209ADB513
:100D2300E7051209ADE2E7051209AD44E80512092A
:100D3300AD53E8051209AD5DE8051209AD6AE80592
:100D43001209AD6FD9051209AD8FD9051209ADCEC0
:100D5300D9051209ADE9D9051209AD08DA05120959
:100D6300AD6EDA051209AD77DA051209ADD4DA05ED
:100D73001209ADF8DA051209ADB9DB051209ADC6E2
:100D8300DB051209ADD7DB051209AD26F005120903
:100D9300AD3EF0051209AD6AF0051209AD25BF0598
:100DA3001209AD81C0051209AD8FC0051209ADA2AC
:100DB300C0051209ADB7C0051209ADCCC0051209B3
:100DC300ADDFC0051209AD53C1051209ADB8C105A8
:100DD3001209AD5AC2051209AD1EC3051209AD2E83
:100DE300C3051209AD3DC3051209AD5EEE05120937
:100DF300AD82EE051209ADAAEE051209ADD2EE05DC
:100E03001209AD3BDE051209AD62DE051209AD80A4
:100E1300DE051209ADF3DE051209AD9CD6051209F4
:100E2300ADB5D6051209ADC1D6051209ADD5D605A6
:100E33001209ADF3D6051209ADFDD6051209AD07AA
:100E4300D7051209AD1AD7051209ADA0D7051209A6
:100E5300AD15D8051209AD44D8051209AD92D805D0
:100E63001209ADE1D8051209ADFCD8051209AD068A
:100E7300D9051209AD17D9051209AD5AD9051209B9
:100E8300AD08F1051209ADB09F051209ADDA9F0552
:100E93001209ADF79F051209AD0AA0051209AD208D
:100EA300A0051209AD7EA0051209ADB6A005120971
:100EB300ADAAA4051209ADEFA5051209AD22A60539
:100EC3001209AD85A6051209ADEFA7051209AD17E5
:100ED300A8051209AD2CA8051209AD3CA8051209F5
:100EE300AD80A8051209ADDBA8051209ADEBA80575
:100EF3001209AD74E8051209AD8EE8051209ADB605
:100F0300E8051209ADCFE8051209ADF3E8051209AA
:100F1300AD11E9051209AD28E9051209AD56E90538
:100F23001209AD71E9051209AD53F1051209AD0EB0
:100F3300D3051209AD1ED3051209AD25D405120937
:100F4300AD59D4051209AD7BD4051209AD9ED40564
:100F53001209ADBCD4051209ADF6D4051209AD5B77
:100F6300D5051209AD9DD5051209ADDCD5051209CC
:100F7300AD0DD6051209AD44D6051209ADB1FE0477
:100F83001209ADCFFE041209AD34FF041209ADD32B
:100F9300FF041209ADBBEC051209ADA4E905120962
:100FA300ADEAE9051209ADA8FE021209ADCCFF02B4
:100FB3001209ADA08A051209AD728E051209AD6141
:100FC30090051209AD8F91051209AD6C92051209B6
:100FD300ADEE93051209ADBE94051209AD12950548
:100FE3001209AD4AE2051209AD6BE2051209ADA57E
:100FF300E3051209ADCFE3051209ADDDF1051209D1
:10100300ADEDF1051209ADF7F1051209AD72E40476
:101013001209ADFCE8041209AD65EA041209AD1C1E
:10102300EC041209ADA4EC041209AD3BED04120962
:10103300ADFAED041209ADEEEE041209AD06F004AB
:101043001209AD34F1041209AD14EF011209AD1701
:10105300EF011209ADFCF5011209AD36F7011209D2
:10106300AD87F8011209AD3DF9011209AD28FA0166
:101073001209AD0BFB011209AD07FC011209ADB951
:10108300FC011209ADE9FC011209ADA5FE0112092B
:10109300ADB3E5051209ADD3E5051209ADE6E605E5
:1010A3001209ADE9E6051209ADABED051209ADE193
:1010B300ED051209ADFBED051209AD3DEE05120973
:1010C300AD4DEE051209AD9EF7021209ADD8F70238
:1010D3001209AD41F8021209AD5EF8021209AD77AB
:1010E300F8021209AD19F9021209AD22F902120927
:1010F300AD67F9021209AD90F9021209AD9DF9022B
:101103001209AD0EFA021209AD99FA021209ADE7FE
:10111300FA021209AD25FB021209AD8AFB0212097C
:10112300ADADFB021209AD24FC021209AD7BFC023A
:101133001209ADB6FC021209ADEBFC021209ADFDBA
:10114300FC021209AD0FFD021209AD2EFD021209B8
:10115300AD37FD021209ADF2FD021209AD3EFE02EA
:101163001209AD7CFE021209AD1ABA051209AD5A75
:10117300BB051209AD7DBB051209AD8EBB05120976
:10118300AD8DBD051209ADADBD051209AD05DC057B
:101193001209AD3BDC051209AD83DC051209ADDC98
:1011A300DD051209AD4368001209AD676900120934
:1011B300ADA169001209AD4B6B001209AD756B004F
:1011C3001209ADEA6D001209AD2A6E001209ADC015
:1011D3006F001209AD5D70001209ADAF7000120906
:1011E300AD5271001209AD8A71001209ADCC7100C4
:1011F3001209AD3B73001209AD8974001209ADBA2F
:1012030076001209ADE876001209AD0F77001209D6
:10121300AD1877001209AD6877001209ADFA7700AF
:101223001209AD297B001209ADAC7B001209AD7C1C
:10123300F2051209AD92F2051209ADABF0051209E0
:10124300ADF97B001209AD0F7C001209ADB37C0030
:101253001209ADF27C001209AD0F7D001209AD40F9
:101263007D001209AD8D7D001209ADC07D0012090C
:10127300ADFB7D001209ADF07F001209ADBBEB059C
:101283001209AD1AEC051209AD58EC051209AD9916
:10129300EC051209ADFD7F001209AD0080041209AF
:1012A300AD0C80041209AD6E80041209AD78800480
:1012B3001209AD0781041209AD4381041209ADF887
:1012C30081041209AD0582041209AD688204120972
:1012D300ADB582041209AD6183041209ADDA83044A
:1012E3001209AD8B85041209ADD287041209AD181A
:1012F30089041209AD6C8A041209ADFD8A0412092E
:10130300AD3C8C041209AD3D8D041209AD898E04E8
:101313001209AD5393041209AD3C94041209ADCFE5
:1013230094041209ADF494041209AD199504120939
:10133300ADB195041209ADC795041209AD2D9604FC
:101343001209AD4996041209AD7596041209AD86CA
:1013530097041209AD5898041209ADD399041209E0
:10136300ADF499041209AD779A041209AD1D9B04DB
:101373001209AD659B041209ADDB9B041209AD375D
:101383009C041209ADC89C041209AD219E041209E4
:10139300AD649F041209ADEF9F041209AD52A0047E
:1013A3001209AD9CA2041209AD34A4041209AD4480
:1013B300A4041209AD78A4041209ADEDA404120922
:1013C300AD27A5041209AD95A5041209AD2AA604FB
:1013D3001209AD2AA8041209ADEEA8041209ADF052
:1013E300A9041209ADA5AB041209AD0CE405120959
:1013F300ADA8E4051209ADC9E4051209AD99F105DB
:101403001209ADFDF3031209AD2FF4031209AD6107
:10141300F4031209ADEFF4031209ADDBF60312096D
:10142300AD7FF8031209ADF3F9031209ADBBFA035B
:101433001209ADD4FA031209AD01FB031209AD3C45
:10144300FB031209AD55FB031209AD6DFB03120932
:10145300AD70FB031209ADB9FB031209AD0BFD031C
:101463001209AD30FD031209AD52FE031209AD702E
:10147300D6031209ADCBD6031209AD55D703120912
:10148300ADC6D8031209AD9ED9031209AD87DA039D
:101493001209AD9EDA031209ADF0DA031209AD5455
:1014A300DB031209AD95DB031209ADA8DB031209B7
:1014B300ADFEDB031209AD57DC031209AD6FDC038C
:1014C3001209AD1FDF031209ADB4DF031209ADDE4C
:1014D300DF031209AD27E0031209AD17E203120976
:1014E300AD81E2031209AD55E3031209AD98E3039D
:1014F3001209ADB2E3031209ADF9E3031209AD1901
:10150300E4031209ADC3E4031209AD9AE50312091A
:10151300ADA5E5031209AD15E6031209AD6FE603A8
:101523001209ADC0E6031209ADCBE7031209AD6F93
:10153300EA031209ADA5EA031209AD17EB03120979
:10154300AD3CEB031209ADB6EB031209AD7FEC031F
:101553001209ADBCEC031209AD1EED031209ADDF98
:10156300ED031209ADE2ED031209ADECED0312092F
:10157300ADF6ED031209AD09EE031209AD85EE03D5
:101583001209ADAEEE031209ADC1EE031209ADEDC2
:10159300EE031209AD14EF031209AD38EF0312097C
:1015A300AD73EF031209ADE5EF031209AD0DF003BF
:1015B3001209AD4EF0031209AD68F0031209AD8DA7
:1015C300F0031209ADBBF0031209ADDBF0031209FE
:1015D300AD18F1031209AD4FF1031209AD59F2032E
:1015E3001209AD8CF3031209ADA2F3031209ADB9CD
:1015F300F3031209ADCBF3031209AD8CFF011209FA
:10160300ADA4FF011209AD23B5051209AD61B505FE
:101613001209ADEDB5051209ADF8B6051209AD1401
:10162300B9051209AD91B9051209AD1BA905120936
:10163300AD6AA9051209AD0AAB051209ADC5AC0522
:101643001209AD07AD051209ADF0AD051209ADFAEA
:10165300AE051209AD1CAF051209AD66AF0512093F
:10166300ADE7AF051209AD2ED8021209AD51D8026C
:101673001209AD44D9021209AD8DD9021209ADE5A3
:10168300D9021209AD41DA021209AD8DDA0212094B
:10169300AD03DB021209AD8FDB021209AD04DC02DC
:1016A3001209AD47DC021209AD18E0021209AD6759
:1016B300E2021209ADA1E2021209AD25E302120909
:1016C300AD56E6021209ADCBE6021209AD5BE802A4
:1016D3001209AD63E9021209AD79EA021209ADEF0D
:1016E300EA021209ADB6EB021209AD1FEC021209B0
:1016F300AD22EC021209ADF6EC021209AD32EE0294
:101703001209ADF2EF021209ADEDF1021209ADF8C3
:10171300F2021209AD94F3021209ADDFF4021209C9
:10172300ADE5F5021209AD48F6021209ADE5F60280
:101733001209ADC6AD041209AD66AE041209ADD0EF
:10174300AE041209ADE9AE041209AD78AF04120973
:10175300ADBCAF041209ADD4B0041209AD10B1048D
:101763001209AD8DB1041209ADD8B1041209AD3718
:10177300B2041209ADE3B2041209AD8CB504120927
:10178300ADBAB6041209AD3EB7041209AD1BB904D4
:101793001209ADC0B9041209AD63BA041209ADC28E
:1017A300BA041209AD37BB041209AD90BC04120987
:1017B300AD5ABD041209AD90BD041209ADADBD040F
:1017C3001209AD53BE041209AD9FBE041209AD2B1D
:1017D300BF041209ADAAC0041209AD67C2041209FD
:1017E300ADE8C3041209AD46C5041209AD56C604DB
:1017F3001209ADFCC6041209AD66C7041209AD8512
:10180300C8041209ADC4C9041209AD3CCA041209C3
:10181300AD84CA041209ADC8CA041209AD11CB04C0
:101823001209AD5BCB041209AD90CB041209AD0EC6
:10183300CC041209AD68CC041209ADC1CD04120960
:10184300AD40CE041209AD57CF041209AD79CF04D0
:101853001209AD85D0041209AD96D0041209ADAEBC
:10186300D0041209ADCED1041209ADEBD104120993
:10187300ADBED2041209ADE2D2041209ADF9D2040D
:101883001209AD1DD3041209AD3FD3041209AD31C2
:10189300D4041209AD89D4041209ADFFD504120989
:1018A300AD61D6041209AD78D6041209ADA6D604EB
:1018B3001209ADD8D7041209AD55D8041209ADC227
:1018C300D8041209AD02D9041209AD64D90412096E
:1018D300AD14DA041209ADE6DB041209ADD1DC0460
:1018E3001209ADCBDD041209ADD1DE041209ADED51
:1018F300DF041209ADFBDF041209ADD4E0041209C1
:10190300AD74E1041209ADB8E1041209ADCDE104EF
:101913001209ADDEE2041209AD81E3041209ADD967
:10192300E3041209ADC0CB051209AD68CD05120958
:10193300AD25CE051209AD7ACE051209ADF7CE0558
:101943001209ADD0C7051209ADEEC7051209AD32B4
:10195300C8051209AD58C8051209AD7EC80512099C
:10196300AD96C8051209ADAEC8051209ADF7EE056F
:101973001209AD29C9051209AD6BC9051209AD805C
:10198300C9051209ADA2CA051209ADABCA051209F0
:10199300ADB4CA051209ADBDCA051209ADC7CA0562
:1019A3001209AD76C3051209AD56C7051209AD6418
:1019B300C7051209AD69C7051209ADD7E0051209BC
:1019C300AD50F2051209AD0080021209AD57800235
:1019D3001209ADC380021209ADF8B2051209AD05B3
:1019E30082021209AD4D82021209AD66820212090A
:1019F300AD8982021209ADAB82021209ADE98202FE
:101A03001209AD3883021209AD6383021209ADC115
:101A130083021209AD6884021209AD10850212090E
:101A2300AD8C85021209AD5986021209ADA086025A
:101A33001209ADEC86021209AD7487021209ADAD2D
:101A430087021209AD0388021209AD1F8802120929
:101A5300AD4E88021209AD5A8A021209AD888B0273
:101A63001209ADB48B021209ADE88B021209AD095C
:101A73008C021209AD188C021209AD238C021209D3
:101A8300ADD28C021209AD428D021209ADCD8D0289
:101A93001209ADD58D021209AD428E021209AD7E37
:101AA3008E021209AD448F021209AD17900212097A
:101AB300AD6C90021209AD0B91021209AD65910252
:101AC3001209ADAA91021209AD4394021209AD861F
:101AD30095021209AD7098021209AD5499021209C8
:101AE300AD389A021209AD499A021209ADBB9A02A6
:101AF3001209AD529B021209ADB79B021209ADA7A1
:101B03009C021209ADCC9C021209ADEA9C02120997
:101B1300AD069D021209AD799D021209AD889D02A1
:101B23001209AD109E021209AD0D9F021209AD1AE2
:101B33009F021209AD239F021209AD05A1021209EA
:101B4300AD27A2021209AD37A2021209AD65A302A5
:101B53001209ADE4A3021209ADFFA4021209AD3BC1
:101B6300A5021209AD15A7021209ADD2AA021209E4
:101B7300ADE6AA021209ADF0AA021209ADFAAA0251
:101B83001209AD04AB021209AD1DAB021209AD2758
:101B9300AB021209AD94AB021209AD9FAB0212095D
:101BA300ADC7AB021209ADD2AB021209AD37AC021D
:101BB3001209AD42AC021209AD66AC021209AD8A3C
:101BC300AC021209ADFCAC021209AD45AD0212091B
:101BD300AD61AD021209ADD2AD021209AD1EAE0266
:101BE3001209AD67AE021209ADA5AE021209AD2608
:101BF300AF021209ADCDAF021209AD9CB1021209B9
:101C0300AD01B2021209AD2FB3021209AD55B302F1
:101C13001209AD9DB4021209ADD7B7021209ADD5B1
:101C2300B9021209ADA0BB021209AD39BC021209F7
:101C3300AD3ABE021209ADEFBE021209AD28BF02D2
:101C43001209AD8EBF021209AD98BF021209ADC1D0
:101C5300C1021209AD00C3021209AD57C302120932
:101C6300AD02C4021209ADB2C5021209ADFFC6022C
:101C73001209AD1FC7021209AD74C7021209AD756F
:101C8300C8021209AD9DC8021209ADFCC8021209AF
:101C9300ADF4C9021209AD6BCA021209AD7ECB02C3
:101CA3001209ADECCB021209ADEBCC021209AD4522
:101CB300CF021209AD6ECF021209ADD4D0021209C0
:101CC300AD56D2021209ADADD2021209AD5BD302F9
:101CD3001209AD00D4021209AD59D4021209AD178D
:101CE300D5021209ADA9D5021209AD08D60212090F
:101CF300AD4AD6021209AD7BD6021209ADD2D70284
:101D03001209AD0080031209AD3280031209AD6BD5
:101D130080031209AD2982031209ADFF8203120960
:101D2300AD5E83031209AD7484031209ADC084034D
:101D33001209AD4E87031209AD288A031209AD6F4C
:101D43008B031209AD078C031209AD138C0312091F
:101D5300AD5C8C031209AD9E8D031209AD948E0305
:101D63001209ADBE8E031209AD148F031209AD6DB6
:101D73008F031209ADE08F031209AD169203120906
:101D8300AD9893031209AD8394031209ADCD950366
:101D93001209AD0598031209AD029B031209AD1197
:101DA3009B031209ADA59B031209AD509C031209B5
:101DB300AD939C031209ADFB9C031209AD179D0360
:101DC3001209AD469D031209AD859D031209AD802D
:101DD3009E031209AD2F9F031209ADACA103120993
:101DE300ADDEA2031209ADB6A3031209AD38A403F5
:101DF3001209AD6DA8031209AD9CA8031209ADF732
:101E0300A8031209AD2AA9031209ADA2A903120955
:101E1300ADD5A9031209AD36AA031209AD86AA03EB
:101E23001209AD53AB031209AD0CAC031209ADD0CB
:101E3300AC031209AD4AAF031209ADACB0031209EA
:101E4300ADFDB1031209AD21B3031209AD24B303F0
:101E53001209AD53B3031209AD4BB5031209AD0A11
:101E6300B6031209AD39B6031209AD57B703120908
:101E7300AD1FB8031209ADDDB9031209AD0FBA03E3
:101E83001209AD51BA031209AD50BB031209ADC318
:101E9300BB031209ADECBD031209AD4BBE0312091E
:101EA300AD9FBE031209ADCEC0031209ADB1C1038C
:101EB3001209AD39C2031209AD27C3031209AD3BA1
:101EC300C3031209AD4FC3031209AD7CC303120947
:101ED300ADACC3031209AD67C5031209AD79C603DF
:101EE3001209ADCEC6031209AD17C7031209AD3EE1
:101EF300C7031209AD06C8031209ADACC803120922
:101F0300AD32CA031209AD79CA031209ADEBCA0394
:101F13001209AD40CC031209ADE9CC031209AD1D82
:101F2300CD031209AD35CD031209ADD8CD03120986
:101F3300AD54D0031209ADFCD1031209AD1AD2037B
:101F43001209AD38D2031209AD04D3031209AD52FD
:101F5300D6031209AD5081011209AD88810112091E
:101F6300AD7C86011209ADC886011209AD0E870149
:101F73001209AD4488011209ADA988011209AD1EE9
:101F83008A011209AD288D011209AD518E01120982
:101F9300AD6498011209ADF498011209ADDE9B01FD
:101FA3001209ADEB9C011209AD4E9D011209AD96CC
:101FB3009E011209AD04A1011209AD96A2011209F5
:101FC300AD23A3011209AD42A4011209ADCFA401AF
:101FD3001209ADD9A4011209AD01A5011209ADA1E0
:101FE300A5011209AD8CA6011209AD59A701120969
:101FF300AD76A7011209AD9FA7011209ADCCA701C8
:102003001209AD13AA011209ADE2AA011209AD2109
:10201300AB011209ADA3AB011209AD44AC01120926
:10202300AD76AC011209ADBDAC011209ADF0AC0146
:102033001209AD34AD011209AD83AD011209AD88AA
:10204300AD011209ADE4AD011209AD28AE011209CB
:10205300AD02AF011209AD67AF011209ADCDAF01FA
:102063001209AD48B0011209ADB0B3011209ADB305
:10207300B4011209AD31B6011209AD47B901120914
:10208300ADE9B9011209AD32BC011209ADEDBC01D4
:102093001209AD2CBD011209AD04BF011209AD2116
:1020A300BF011209AD2ABF011209AD33BF011209E5
:1020B300AD3EBF011209AD5DBF011209AD01C10102
:1020C3001209AD5EC1011209AD68C1011209AD72F9
:1020D300C1011209ADD1C1011209AD1BC20112091F
:1020E300AD1CC3011209AD73C3011209AD84C40150
:1020F3001209ADCDC4011209AD87C5011209AD9E08
:10210300C6011209AD73C7011209ADBAC80112099C
:10211300ADBEC9011209ADB7CA011209ADCFCA01DB
:102123001209AD06CB011209AD10CB011209AD1A8C
:10213300CB011209AD25CB011209AD43CB01120925
:10214300AD8BCB011209ADE9CB011209AD10CC0166
:102153001209AD22CC011209ADD7CC011209AD1081
:10216300CD011209AD32CE011209AD85CE0112099E
:10217300AD6BCF011209AD92CF011209AD02D001AF
:102183001209AD7ED0011209ADDAD1011209AD01F8
:10219300D3011209ADC3D3011209AD91D4011209C0
:1021A300AD4FD5011209AD37D6011209ADE1D60104
:1021B3001209AD49D7011209ADFED7011209AD5A73
:1021C300D8011209ADB2D8011209AD78D9011209AB
:1021D300AD9BD9011209AD56DA011209AD78DA01C6
:1021E3001209ADD9DA011209AD09DD011209AD02F7
:1021F300DE011209ADAEDE011209ADCFE001120915
:10220300AD18E1011209AD63E1011209ADBFE101AE
:102213001209AD1DE2011209AD41E2011209AD65DA
:10222300E2011209AD9AE2011209ADC2E2011209FB
:10223300AD07E3011209AD5BE3011209ADB4E3019C
:102243001209ADAEE4011209AD4CE6011209AD91DC
:10225300E6011209ADBAE6011209AD43E70112091D
:10226300ADB6E7011209ADC4E7011209ADE8E70114
:102273001209AD3EE8011209AD59E8011209AD1486
:10228300E9011209AD40E9011209AD83E90112091F
:10229300ADE6E9011209ADF4EB011209AD20EC0141
:1022A3001209ADDBEC011209ADBFED011209AD530B
:1022B300EE011209AD3095051209AD6895051209B5
:1022C300AD8995051209ADCB95051209AD2F96057C
:1022D3001209AD3996051209AD4996051209AD806B
:1022E30096051209AD299A051209ADF19B0512094C
:1022F300ADD59D051209AD779E051209AD019F0568
:102303001209AD812E001209AD2A2F001209AD0961
:1023130030001209AD1531001209AD353100120933
:10232300AD5732001209AD0734001209AD74340001
:102333001209AD4535001209AD4B36001209ADC384
:1023430036001209ADFE36001209AD5737001209E7
:10235300AD9237001209ADDB37001209AD6F3800BB
:102363001209AD0539001209ADDA39001209ADAD14
:102373003A001209AD3B3B001209AD613B00120963
:10238300AD8E3B001209ADBF3B001209AD8C3C0082
:102393001209AD9C3C001209ADEF3C001209ADFCE3
:1023A3003C001209AD093D001209AD123D001209AE
:1023B300AD763D001209ADD43D001209AD1F3E00BC
:1023C3001209AD3A3E001209AD613E001209AD7E1D
:1023D3003E001209AD8A3E001209AD1B40001209EE
:1023E300AD3440001209ADB040001209ADC3400046
:1023F3001209ADD340001209AD7741001209ADE3D4
:1024030042001209ADF643001209AD9644001209C9
:10241300ADA044001209AD1F45001209AD304500BF
:102423001209AD6F45001209AD9D45001209AD6A51
:1024330046001209ADC146001209ADFA4600120961
:10244300AD5047001209AD6E47001209ADBC4700FD
:102453001209AD8748001209ADD548001209AD2213
:1024630049001209ADA549001209ADCF490012096F
:10247300AD054A001209AD144A001209AD734A00B2
:102483001209ADEB4A001209AD2C4B001209AD7CC9
:102493004B001209ADA74B001209ADC14B00120945
:1024A300ADDB4B001209ADB04C001209ADBA4C00C4
:1024B3001209ADF54C001209AD054D001209AD0E20
:1024C3004D001209AD5F4D001209AD734D001209A5
:1024D300AD954E001209ADAA4E001209AD3D4F0055
:1024E3001209ADB14F001209AD5650001209AD618A
:1024F30050001209ADC451001209ADE05100120998
:10250300AD2C52001209AD9A52001209ADCC520003
:102513001209ADE652001209AD4653001209ADE5AA
:1025230053001209AD3054001209AD83560012094D
:10253300AD1B57001209AD9257001209ADEF5900B8
:102543001209AD075A001209AD0A5A001209AD1655
:102553005A001209AD2A5A001209AD325A00120963
:10256300AD695A001209AD5D5B001209ADE75B006E
:102573001209AD695C001209ADE95C001209ADC036
:102583005D001209ADE25D001209AD7B5E00120928
:10259300ADD85E001209ADDB5E001209AD4A5F00E3
:1025A3001209AD9660001209ADA961001209AD349C
:1025B30062001209AD4763001209AD0E64001209EF
:1025C300AD3F64001209AD6564001209AD6E64008D
:1025D3001209AD9D64001209AD4D65001209ADFDF0
:1025E30065001209AD7066001209AD136700120988
:1025F300AD8667001209ADC567001209AD0E68000C
:102603001209ADA2EB051209AD3CEB051209ADB9F8
:10261300EA051209AD23F0051209ADBBEF05120956
:10262300ADA6EF051209AD96EF051209ADE4FF0162
:102633001209ADF7FF011209ADCBFF031209AD2D4E
:10264300FF031209AD1CFF031209ADD8FD041209E3
:10265300ADFEFC041209AD34FC041209ADA3FA0467
:102663001209AD6CFA041209AD3EFA041209ADF277
:10267300F9041209AD5BF9041209ADCBF804120990
:10268300ADA5F8041209AD5AF8041209AD24F804F3
:102693001209ADA7F7041209ADB8B2051209AD428C
:1026A300F7041209AD47B0051209AD1BB0051209B5
:1026B300AD18F2051209ADA9D2051209ADD7D0059F
:1026C3001209AD03D0051209AD8ACF051209AD7CFD
:1026D300CF051209ADF1F6041209AD19F60412097A
:1026E300AD89F5041209AD3DF5041209AD83EF057B
:1026F3001209ADB8F4041209AD73F4041209AD570D
:10270300F4041209ADFFF2041209AD33EF05120907
:10271300ADD1F2041209AD4F81021209AD9EF2044C
:102723001209AD22F2041209AD558A051209ADFC56
:1027330089051209ADC789051209AD9289051209E8
:10274300AD5E89051209ADF188051209ADD9880579
:102753001209ADB488051209AD8D85051209AD6066
:1027630083051209AD6781051209ADF380051209CE
:10277300ADA480051209ADFAEE051209AD5E800520
:102783001209AD0080051209ADC6C805000000801E
:10279300FBE473870001006B1C350004002F1C252C
:1027A300000200331C26000200351C2700020037FC
:1027B3001C28000100411C29000100421C84000464
:1027C30000431C86000100471C2A000100481C2B03
:1027D300000100491C2C0001004D1C2D0008005C69
:1027E300192E0001004E1C2F0001004F1C30000168
:1027F30000501C31000100511C32000100641933E8
:10280300000100651934000100521C360001006606
:102813001938000100531C390001004C1C830002CD
:1028230000691C630001007119640001004A1C6502
:102833000001004B1C6D0001007219710008005467
:102843001966000100681C43000100591C44000282
:10285300005A1C450001005C1C460002005D1C4739
:102863000008006919480001005F1C4B000100606B
:102873001C040001006C1CA10001006F1C37000147
:10288300006E1C880001006D1C3C00010067193DAF
:10289300000100541C49000200611C670001007321
:1028A300194D000200631C4E000100651C4F00021D
:1028B30000661C3E000100581C51000100551C52CB
:1028C300000100561C53000100571C54000100680E
:1028D300190000000000000001363601010001026A
:1028E30001000103010001040106060502000007BF
:1028F3000100340801000F090401010D0100FF0E5E
:1029030008000017020000190100FF1A0100011B53
:102913000100FE1C0100081D0200001F0100012030
:10292300010001210200002301000F240200002600
:1029330001000127010008280200FF2A0100072BDC
:102943000102402C0100002D0100012E0100012F86
:102953000100FF30010B1D310800003A0100083B64
:1029630001000F3C0100013D0100FF3E0400004255
:10297300040000460400004A0400004E0400005214
:10298300040000560400005A04000001037103010F
:1029930003010301030103010322030203010310E3
:1029A30003000300030003000300030003000342CA
:1029B3000300032403060300030003040312032597
:1029C3000323032503230304030403000300030079
:1029D30003440300030003230300036503210035BD
:1029E3000381030003050300030003000300032521
:1029F300032303030271023001600211027002011A
:102A030002020202028002100261023A00410063E4
:102A130002730272026202430200021302380000D0
:102A23000200020402120200020002000200020479
:102A3300020402370037003C02440200023900005E
:102A430002000265020002350281020002050282D1
:102A5300028302000201017101010101011101015F
:102A6300013101010101018001100161013B0014E9
:102A73000063017301720162014301000113010646
:102A8300013D0135000401120100010001000100B4
:102A93000104010401330133013C014401320136D5
:102AA30000000100016501000135008101000105FD
:102AB30001820183010001030071003001600011F4
:102AC30000700031022003500480001000610000F8
:102AD30000140063007300720062004300000013DF
:102AE30000060000000000040012000000000000C7
:102AF30000000004000400370037003C02440000DB
:102B030000000000000000650000003500810000A7
:102B13000005000000830000000304710402046048
:102B23000411047004020402040104020410046189
:102B33000400041404630473047204620443040071
:102B43000413040604000400040404120400040033
:102B5300040004000451046400000400040004445D
:102B63000400040004000400046504000435048127
:102B73000464000504000483040004360001000615
:102B83000000000F00000000000000000000000033
:102B93000003FFFF00000403FFFF0000FFFF0FF42B
:102BA300010005C4040320000100000B0000000025
:102BB3000000000003010F000000000000000000FF
:102BC3000000000000000000000000000000000002
:102BD3000000000000000000007F13CD138513B92F
:102BE30012000000000000000000000000000000D0
:102BF300008B13B9129113B9129713B9129D13B91C
:102C030012A313B912A913B912AF13D313B513B97E
:102C130012000000000000000000000000BB13E5EC
:102C230013C113B912BB13E513C113B912AF13D3F5
:102C330013C713B912000075171300FD161F000305
:102C4300171F800917010075170200851603008BF3
:102C53001604009116050097160600A3163000C14E
:102C6300163100BB163200CD163300D3163500D90A
:102C7300163400DF163600E5161100F1161400F7BE
:102C8300161500B516FFFF00000000030020014DDC
:102C9300810000000020014E810000040042014B2E
:102CA300800000050042013A800000060042015CFA
:102CB300800000070020014F81000010004203FF45
:102CC3001B000011002003D4170000120010031092
:102CD3001C060000001001D7170A000000020000C4
:102CE30000040000000800000010000000200000A5
:102CF300004000000080000000000100000002000E
:102D03000000040000000800000010000000200084
:102D1300000040000001971F06C11F08BB1F0BD90D
:102D23001F10B51C029D1F05AF1F07A31F0C7F1F9C
:102D33000D8B1F64B11AFF000007ECFDFDFDECDCF9
:102D4300DCCCBCACAC9C9C8C7C7C6C6C5C5C5C4CD0
:102D53004C3C3C2C2C1C1C03EAF5E5D5D5C5B5A58C
:102D63009595858575756565555545453535252590
:102D730015150500160F00000B150B020002220F9C
:102D83003300000E5A6967426565416C6C69616E78
:102D93006365303901030507090B0D0F00020406B3
:102DA300080A0C0D000000040600000406000104DC
:102DB3000600020400034A49434E181A250502007F
:102DC300393D3F373C3C362C442D0001191618166B
:102DD3001618230300303017181921301B1D1F301C
:102DE300303016181920231A1C1E300C0E020B0447
:102DF3000B0A0708000F020402010101010902E89E
:102E030003000000BE040A00007F000E00E8030078
:102E1300000905040400100803030A1E0C0A100825
:102E23000C281EFF000903010C0508150404E00427
:102E33001236B1A2E792AF22E4F0A3F0A3F022A3EB
:102E4300122E3BA3F0227F0C020753E0F508E4F5B2
:102E530009F50AF50B227401F09004ABE0640F222C
:102E630074091209DD7F04020753A3A3E024F5C309
:102E73009413229004CB1259AA7A147B0022C082A5
:102E8300C083901A8D7463F0A37423F0A37475F058
:102E9300A37423F0901A91744BF0A37423F0A374DA
:102EA30045F0A37423F0A37481F0A37423F0A374F7
:102EB30087F0A37423F0A3747BF0A37423F0A374AB
:102EC30033F0A37423F0901A9D7457F0A37423F086
:102ED300A3745DF0A37423F0A37451F0A37423F0DF
:102EE300A3748DF0A37423F0901AAE124F376006CB
:102EF3001251A112119F901AAB12465A7408F0A3F3
:102F0300E4F0A3F0901B4EF0901AB0F07C0BFDF9A7
:102F13007AB17B1A1210D37C0B7D0079007ABC7BCB
:102F23001A1210D302466374F712048D74F7120A4F
:102F330090EAFEEBFF1244817405122FF77403F03D
:102F4300EE2402FAE43F122FD1242DFCE43FFD8C42
:102F5300828D8312310F122FE0600812385974FFEB
:102F6300F0A3F0EE242BE43F1C1CFD8C828D83A385
:102F7300E0C0E08A828B83124492D0E0122FE08873
:102F8300828983124C8A240312577412128F740895
:102F9300120CD07403F09004C01208557402120A84
:102FA300707903EEFAEFFB12252574021209DDE9AD
:102FB300F5087007EEFAEFFB122405A9087409025D
:102FC3003869F582E43FF5831263DF124C7FFB8A95
:102FD300828B83122FEFE8F0A3E9F0EE221259C897
:102FE300122FEFE8F0A3E9125F44E0221230DA8AED
:102FF300828B8322F0A3E4F0122FFF22EE240DF53F
:1030030082E43FF5832274F112048DEAFEEBFF8C18
:10301300088D09890A1230E48A828B831230DA74AC
:103023000F120CD01230FDE824FF18E934FFF988A1
:10303300828983E50A1230EF9004C51230EC9004C4
:10304300C41230EC7411120CD01230FDEE2404FCC7
:10305300E43FFD880B8A828B83E0F50C8C828D83A1
:10306300E0250CC3950B1259C4E8F0A3E91243EE13
:10307300A3A3A3A3A3A3A3A3E06403700812474AD3
:10308300F0A3E480031233F0122FFA7409F0750CE5
:10309300B1750D1A750E00780C1209FC1233E41287
:1030A30010C774031209DD750CFF750DFF780C1240
:1030B3000A00AC08AD097903EEFAEFFB122525747B
:1030C300021209DDE9F5087007EEFAEFFB12240599
:1030D300A9087F07020753E024FFF8A3E034FFF9B0
:1030E30022EE2402FAE43FFB2212310F1230F322C4
:1030F300F0E824FF18E934FFF922E0F50CA31231BC
:103103000F1230F388828983E50CF022E0888289EC
:103113008322C082C083901ACDE0C3940840047414
:10312300078001E08A828B83F033333354F8F9024A
:10313300466374F012048DEAFEEBFF890C8C0E8D4E
:103143000F750A00A2AFE433F50BC2AF901AC78024
:103153003F12321D503712322E64037030EE24F9C1
:10316300FEEF34FFFF850882850983A3A3E02405CE
:10317300FCA3E03400FDEEFAEFFB12128FEE24FF06
:103183001EEF34FFFF7410250AF50A150C1243BB1A
:103193001263DBE50C6006E508450970B4E50BA294
:1031A300E092AFA2AFE433F50BC2AF901AC7802C05
:1031B3002402FAE43509FB8A828B831259B324066D
:1031C300F582E438F58312323B8A828B83123223F1
:1031D300A3A312323B050A150C1243BB1243D06062
:1031E3002212322E640270F112321DE50840C11220
:1031F300351EA2E550E3850E82850F837401F0E549
:103203000C70D6E50BA2E092AF8E828F83E50AF0B5
:10321300EE24FFFAEF34FFFB8035123529A2E622B4
:1032230012322722125DA8A3A3A32285088285094F
:1032330083125DA21253DC22E08E828F83F0EE2490
:10324300FF1EEF34FFFF221225F174041209DD7F04
:103253000802075374EC12048D74F5120A90891353
:103263008A128B0F851882851983E4F004120A6889
:10327300122315E9F89004AAE0292434F508FA7B0F
:10328300001210EB8A0A8B0BAE0AAF0BEE4F7003E2
:103293000233D8EE2402F50AE43FF50BA808EE2822
:1032A300F8E43FF9850A82850B83122FD92404F5AC
:1032B30010E43FF511851082F583E4F09004AAE051
:1032C300FCF8C3E498F895E0F9850A82850B83E05E
:1032D30028F508A3E039F5099004A812566C750E79
:1032E30000780C1209FC7D00AA08AB091210C77400
:1032F300031209DDAC18AD197401120CD0E0F9E525
:103303000824FFFAE50934FFFB12231B8A828B830F
:10331300E4F0EA24FFF508EB34FFF509E50FC454A4
:10332300F0F9901B4FE0C4333354C0F89004A4E089
:10333300A2E0E43313134849440F1233F8E512C4EF
:1033430054F04513850882850983F0A808850A820D
:10335300850B83E0FA851082851183E02AC398F0F8
:10336300850A82850B83E8F0A3E509F01233F01296
:103373002FFAE4F0740A120CD0E4F07508BC750956
:103383001AF50A78081209FC1233E41210C7740301
:103393001209DD851882851983E06009EE240E1277
:1033A30045174408F012250DE9F9E4F508F5097805
:1033B30008120A007404120A70EEFAEFFB122525B4
:1033C30074021209DDE97006EEFAEFFB800BEEFAE8
:1033D300EFFB1210F17A007B00740B1209DD022E51
:1033E300497C0B7D00EE2418FAE43FFB221244854E
:1033F300E4F0A322E085088285098312340222F0D7
:103403001256402274F312048D8A0A8B0BA2AFE486
:1034130033F50CC2AF750800750900901AC7802CEC
:103423001236455024850A82850B83A3A3126808AC
:103433008E828F83A3A31251A4122513E9600A126B
:10344300346BC2E6F08E088F0912363A1238F370E5
:10345300CFE50845096006123525D2E6F0E50CA252
:10346300E092AF7F0502075312346F22125659E0E0
:103473002274F012048DEAFEEBFF8C0C8D0D750E99
:1034830000A2AFE433F50FC2AF75080075090090D1
:103493001AC78020850A08850B09123525D2E4F066
:1034A300E50812351ED2E7F0E50A24FBF582E50BA9
:1034B30034FFF583E0F50AA3E0F50BE50A450B605D
:1034C30043E50A1242A6350BF583E0A2E750D985FE
:1034D3000A82850B83A3A3120855AC0CAD0DEEFA3B
:1034E300EFFB12251974021209DDE960BBE50845FB
:1034F3000960A1E508240D12353164017006123507
:103503003AD2E4F0E50FA2E092AFE5084509600680
:103513001223FF750E01A90E0232521242D0123548
:10352300342212352922E508241112353122F5827D
:10353300E43509F583E022850882850983125DA2BB
:10354300E02274F212048D74FE120A90750C007559
:103553000D00851882851983E4F0A3F0A2AF33F53B
:103563000AC2AF901AC7E0FEA3E0FF8035EE24FB4A
:10357300F582EF34FF1263D9780C120A00EEFCEFE8
:10358300FD7AC77B1A12112174021209DDEEFCEFDA
:10359300FDAA18AB1912110FAE08AF09901ACDE0AE
:1035A30014F0EE4F6027123645501DEE240BF8E45D
:1035B3003FF988828983E024FFF0A3E034FFF08899
:1035C300828983124F3760A51236368099E50AA2A5
:1035D300E092AF901ACDE060319004ABE0640F60ED
:1035E30006901B4EE070237AA57B1A1225FD90816D
:1035F300461208517AA57B1A1225F174041209DDCB
:10360300800874F01248811223F3AA18AB1912111F
:10361300158A0A8B0BAE0AAF0BEE4F6013122327EA
:1036230012346BA2E28E828F83A350D674E980D4C6
:103633000238FB8E0C8F0DEE24FBF582EF34FFF581
:10364300832212346FA2E72274F712048DEAFEEB91
:10365300FF12232712448F122794E964019004C7B1
:10366300700AE02401F8A3E034008004E0F8A3E04A
:10367300F9124ADD124E8F901ACDE070219004ABFF
:10368300E0640F70197AA57B1A1225FD908146120A
:1036930008517AA57B1A1225F174041209DDA9A831
:1036A300C2AF901ACDE0041236B1A2E7800DF0E963
:1036B300A2E7E433F8E922E508A2E092AF02491D4C
:1036C30074F712048DEAFEEBFF1236F8F01223278B
:1036D300EEFCEFFD7AC77B1A12111BA9A8C2AF90AB
:1036E3001ACD122E319004ABE0640F7005790812E5
:1036F30024C502491D12346FC2E42274F712048DEB
:1037030074EA120A90EAFEEBFF9004A4E06040859D
:1037130018828519837401F0120CD0E41237D01289
:103723000CD0AA82AB8312128F8E828F8312354004
:10373300C0E0740A120CD0D0E01259D9740B120CE9
:10374300D0AA82AB8312253DAA18AB191219A37410
:103753001602386974F712048DEAFEEBFF1223098F
:10376300E9F974DC69601E74DD69601974E46960E9
:103773001474F369600F74DE69600A74DF696005AD
:1037830074DB697007EEFAEFFB1224CB02491D7458
:10379300F712048D74EB120A90EAFEEBFF85188290
:1037A30085198374061237D0120CD0AA82AB831208
:1037B300128F1259DE740A120CD0AA82AB8312251F
:1037C3003DAA18AB191219A37415023869F0EE2437
:1037D30013FCE43FFD74022274F712048D74F71294
:1037E3000A90EAFEEBFFEE242D12451760651240A6
:1037F300A8AA18AB1912128F7408120CD07403F014
:103803009004C01208551238591208559004D3E099
:10381300F97404120A70EEFAEFFB12230F74041208
:1038230009DDE9F974DC69602374DD69601E74E401
:1038330069601974F369601474DE69600F74DF6979
:10384300600A74E869600574DB697007EEFAEFFBE0
:103853001224CB022FC0EE12385E22242BF582E411
:103863003FF5832274031209DD02491D74F2120429
:103873008D8A088B09750C00750D00750AE7A2AFD8
:10388300E433F50BC2AF901AC780031236361238F1
:10389300F3603512364550F3124514640170ECEEB3
:1038A300242FF582E43F123AA2E06870DE780C120E
:1038B3000A00EEFCEFFD7AC77B1A12112174021283
:1038C30009DD901ACDE014F0E50BA2E092AFEE4FC4
:1038D3006013EEFAEFFB12232779F0EEFAEFFB12F7
:1038E30024CB750A00A90AAA08AB091224CB800DC0
:1038F300E0FEA3E0FFEE4F2274021209DD7F060211
:10390300075374F412048D74F7120A90EAFEEBFF66
:103913008E828F83A3E064F370030239AF8E828FAC
:1039230083A3E064DF70030239AF8E828F83A3E049
:1039330064E860788E828F83A3E064DB606E122379
:1039430069E9F508705EEE240E12451760561239C8
:10395300B91223B1EA4B604C7408120CD01239C36C
:103963001208557508FF7509FF7808120A008E8240
:103973008F83A3A3A3A3A3A3A3A3E0F97404120AAD
:103983007012230F74041209DDE9F50874F3650856
:10399300601274DF6508600C74E86508600674DB08
:1039A3006508700F8E828F83A3E508F0EEFAEFFBB4
:1039B300122375022E63EE240FFAE43FFB790922EA
:1039C30074021261A174FFF0A31239D0221239D408
:1039D30022124C93A3A32274F512048D8A088B0937
:1039E3007E008A828B83A3A3A3A3A3A3122E6D407D
:1039F300027EE88A828B83A3A3A3A3A3A3A3A3A387
:103A0300A3E0C3941040047EE880138A828B83A3CF
:103A1300A3A3A3A3A3A3A3A3A3E0640F600A901B80
:103A23002BE0540870027EE8EA240BF582E43509A2
:103A3300123AA2A3A3A3A3A3A3A3A3E0C398500CE6
:103A4300EA240B123531640F60027EE89004C4E06F
:103A5300F47003A3E0F470027EEC7A237B0012116E
:103A630099901AAE1251B4901AAE124F376029854D
:103A73000882850983A3A3A982AA8389088A097571
:103A83000A0078081209FC7C237D001251A1121050
:103A9300C774031209DD80027E1AEEF9026342F550
:103AA30083E0F88A828B83A3A32274F512048DEA40
:103AB300FEEBFF8E828F83A3A3A3A3A3A3A3A3E001
:103AC3009004AB1260849004C612606A9004A6123C
:103AD3006089901B4FF0F9120E2D901B4FE0601878
:103AE300EE2404FAE43FFB7950120E15EE2406FA95
:103AF300E43FFB79E1120E15901B4E122E59600420
:103B0300740180027400901AB01260701209FC7C78
:103B13000B7D007AB17B1A1210C774031209DDEE14
:103B23002418F508E43FF50978081209FC7C0B7D9D
:103B3300007ABC7B1A02633A74F712048DEAFEEB37
:103B4300FF8E828F83A3E070061251A112236F8E22
:103B5300828F83742C1248811224D702491D74F773
:103B630012048DEAFEEBFF901AAE124F37600D126E
:103B730051A1901AAEE4F0A3F012119F8E828F83AD
:103B830074081248811219A302491D74F612048D98
:103B9300901B4EE06013901AB0E0700D123BAF1211
:103BA3002321EA4B6003122405025CE49004A6E09F
:103BB300FB9004C6E0FA9004ABE0F92274F412041B
:103BC3008D74E7120A90EAFEEBFF750B018E828F6C
:103BD30083A3A3A3A3A3A3A3E0A2E25068EE242B91
:103BE300F582E43F126806123C7D12232DE97055DD
:103BF3009080BBE064017005750B008048123C8522
:103C03001209FC7C0B7D007411120A681210C77430
:103C1300031209DD12250DE9FA740E120A608808F1
:103C230089097808120A00750830750900780812A6
:103C33000A0012385912085512597A790112252BA4
:103C430074061209DD85188285198374101237D022
:103C5300120CD0AA82AB831212831238591259A6BE
:103C6300740B120CD0124E8F740D120CD0E50B1284
:103C730046F41219A37419022E65EE2413FAE43FD5
:103C8300FB22EE240812607822C082C083901B4F6F
:103C9300E0600312257F024663C082C083901B4607
:103CA300748DF0A3741AF0A37491F0A3741AF0A3A3
:103CB300749DF0A3741AF0901C83741CF0A3742BEE
:103CC300F0901B307403F0A37423F0901AD274396C
:103CD300F0A37423F0901AD4743FF0A37423F090EC
:103CE3001B2BE044028001E4F0024663C082C083E0
:103CF300EAFCEBFD7903024CFFC082C083EAFCEBD4
:103D0300FD7905024CFFC082C0837908025E75C04D
:103D130082C08374FE120A90901ADA74EDF0A374D1
:103D230023F0901ADC74E7F0A37423F0800D7AC7B4
:103D33007B1A1211151246EA1224FB901AC7124F6E
:103D43003770EB901AC9124F37600F7AC97B1A127A
:103D530011151246EA1224FB80E9901AC7E4F0A376
:103D6300F0901ACD122E3C7402800274111209DDF8
:103D730002466374F612048DE9FF74C229F582E4E6
:103D8300342DF583E493FEFA7B001210EBEA4B60CB
:103D930011EA2E124E858A828B83A3A3A3A3E4F098
:103DA300802C7A027B001210EBEA4B601D74D82F33
:103DB300F582E4342DF583E4938A828B83F0A37434
:103DC3001AF0901B26E0F91210F77A007B00025CD0
:103DD300E4E9FC740629F8EAA2E0501EE875F00A4B
:103DE30084E5F0F96014740A28C399F8E9C39405CB
:103DF3004004740A28F8740B28F8ECC394134004A5
:103E03007A1480027A06EA2879002409F850010915
:103E13007A0A7B0012033DE8F90209AAC082C08333
:103E2300901B2BE05402600A1219A9E9600479017E
:103E330080027900024663C082C083901B2BE0544A
:103E4300026016901ACDE0700C124F34600BE0C87C
:103E53001243C85004790180027900024663C0828C
:103E6300C0839080B8E0F8901ACFE0C39850051251
:103E730010EB80047A007B00024663C082C0831289
:103E830024FB790002466374F712048D74FE120A50
:103E930090851882851983EAF0A3EB123FF9A3A357
:103EA300A3A3A3E0600A14606024FE6069023F7A62
:103EB3009004ABE0640F60181224D1E970128518E6
:103EC300828519831251A4901AD612449212279410
:103ED3009004D3E0C0E0851882851983124C5DD02D
:103EE300E0123FF9741412619D1268087AC97B1AB3
:103EF30012110FA8A8C2AF901ACFE0041251BA79D9
:103F0300201224C574020238698518828519831228
:103F13005DAA741580D0851882851983123FDCA3AE
:103F2300A3E06053851882851983E02402F8A3E097
:103F33003400F9888289831265DBE0C0E08518824A
:103F4300851983E0FCA3E0CC2406F582E43CF583E9
:103F5300D0E01259E6888289831251B4851882858C
:103F630019831242C48518828519836013123FE1B5
:103F73006005123FE94043AA18AB191224FB808461
:103F8300123FE160F2123FE9501C1243D8FA851840
:103F930082851983123FE3F874F8124E80342DF5AD
:103FA30083E4936A6014851882851983123FE16460
:103FB3000870C41243D8640870BD1243D814124069
:103FC30001240AC0E0851882851983124492D0E047
:103FD30012400104023EE9E0F8A3124CAA22E0F8E1
:103FE300A3E0124008228518828519831259B7125B
:103FF3004009C3940A22124013F583888222124097
:104003001312400822C82406F582E438F583E0221F
:104013001261A1E0F8A3E022C082C083901ADE12ED
:104023004F376008125DAB12279480027900024675
:104033006374F712048DEAFEEBFF122FFF7401F095
:10404300EE2430F582E43FF583125714122FD9245E
:1040530032124517C0E0EE2413F582E43FF583D016
:10406300E0F0EE2433124517C0E0EE2414F582E4A9
:104073003FF583D0E0F0EE242CF582E43FF5831284
:1040830008551240A8EE242E124517F9122525745F
:10409300021209DDE9F5087007EEFAEFFB122405B9
:1040A300A90802491DEE2423FCE43FFD22C082C07F
:1040B300831224D1E96004792080027901024663E6
:1040C300C082C083EA1242A6124167D2E0023CEBEF
:1040D300C082C0831241616401701112416C400CB3
:1040E3008A828B83A3E0F91224CB806FEA24101217
:1040F3004164A2E650128A828B83A3E0F9901AD816
:1041030012449212279480531241616401700D127C
:10411300416C50088A828B83743080368A828B8309
:10412300A3E0641B8A828B83700474228024A3E03F
:10413300700D124161F874E3124E80342D800B121E
:104143004161F874D8124E80342DF583E4938A824A
:104153008B83F0901B26E0F91210F7024663EA24E2
:104163000DF582E43BF583E022EA1242D03BF5836E
:10417300E0A2E32274F712048DE9FE124F347003B8
:1041830002429DEE6011741B6E7013E0C81242A0D0
:1041930064057003024268125D9AE402426C74E99A
:1041A3006E70621242BC700B1219AFE960051242C5
:1041B300D6606279EE120D97901AD01242B9901A16
:1041C300D0603B1242D9901AD0700B1242B914F04E
:1041D300120F4D02429D1242C4C2E71243E412423F
:1041E300A06403700C1259B01242A612400ED2E220
:1041F300F079ED120D971242AC1227948075125D7F
:104203009D74E9806474E16E703E1219AFE96055E4
:104213001242D670509004CDE0C0E01259B024127F
:10422300F582E438F583D0E0F09004BCE0C0E09080
:104233001AD0123FDA123FDAD0E0F09004BCE00467
:10424300F07901120F358052741C6E7018901AD0D9
:104253001251A4901AE0124492122794901AD0E4B7
:10426300F0A3F08035125D9AEEF0901AD01251A4AB
:104273001223F31259B0125982E054806010900453
:10428300D3E0F9120E519004D2E0F9120E45901AC0
:10429300D0E4F0A3F079101224C502491D240D12B5
:1042A300400B222411F582E422901AD01251A890D7
:1042B3001AD4125DA422E0F8A3E0C8241212400B22
:1042C30022E0F8A3E0C81242D012400E222410F5D7
:1042D30082E422901AD01259B7125986E05404226C
:1042E30074F412048D750A00750B00A2AFE433FF5A
:1042F300C2AF124F3460030243A012448F122794BB
:10430300E94410F8901AC7800985080A85090B1239
:1043130043BB1243D070030243A012352558687083
:10432300E8780A120A00AC08AD097AC77B1A1211A1
:104333002174021209DD901AD0E508F0A3E50912F1
:1043430043E41243C8405D901ACEE014F0EFA2E0BC
:1043530092AF901AD0E0240EF8A3E03400F9880855
:1043630089098882F5831251A4901AD01243DEF989
:104373001223B7E9901ACBF01243ECE05480901A61
:10438300D060261259B3241312400BF9120E5112A6
:1043930059B0241412400BF9120E458018EFA2E015
:1043A30092AF8011901ACD80A11242C4A2E1B3E46E
:1043B30033F9120F35022E68E50824FBF582E5096F
:1043C30034FFF58322241112400BA2E7221263DF8C
:1043D300E508450922851882851983123227A3E04F
:1043E30022F0901AD01259B722A3E4F085088285EF
:1043F30009832274F712048DEAFEEBFF1224F5EE13
:104403002410124517A2E3400C12451464017005F1
:104413009080B680039080B7E0F9EEFCEFFD7AC799
:104423007B1A121127E96046EEFAEFFB901ADA12B3
:104433004492122794EE240E12451754047020A8B8
:10444300A8C2AF901ACEE00412519AFAE8A2E792FA
:10445300AF124481A3E0540170211223FF801CEEAC
:10446300FAEFFB901AD2124492122794800D8E8297
:104473008F83A374F11248811223F302491D12445E
:104483008522EE240EF582E43FF58322901ADC1296
:104493005DA422C082C0831223FF02466374F71215
:1044A300048DEAFEEBFF7900901B2BE05402700CA5
:1044B300EE24301245175404600279E8901B2BE078
:1044C3005460700CEE24301245175402600279E8F0
:1044D3008E828F83A3A3A3A3E0F89080BCE0C3984C
:1044E300500279E8EE242E124517700CEE242B129D
:1044F3004517700479F5800BE970051223E1E9F99A
:10450300E96007EEFAEFFB1224CB02491D34FFF5F5
:1045130009EE240DF582E43FF583E022C082C083D7
:104523008A828B83740DF01219A3024663C082C082
:10453300838A828B83E4F0A3F0EA2430124164542B
:10454300049080B67012E0F8901ACEE0C39840123F
:1045530079F11224CB024663E0F8901ACDE0C398B8
:1045630050EE901B26E0F91210F780E974F612045E
:104573008DE9FE244CFAE43400FB1210EBEA4B60A5
:1045830012EE8A828B83A3A3A3A3F0EA244C124ED8
:104593008580047A007B00025CE4C082C083901AA9
:1045A300E2744DF0A37424F0A3747DF0A37424F09B
:1045B300A37453F0A37424F0A37459F0A37424F0E8
:1045C300A37477F0A37424F0A3746BF0A37424F0A2
:1045D300A37465F0A37424F0A37483F0A37424F08C
:1045E300A37489F0A37424F0A3748FF0A37424F04C
:1045F300A3749BF0A37424F0A3745FF0A37424F05A
:10460300A37447F0A37424F0A37441F0A37424F0BB
:10461300901AFE7471F0A37424F0A37495F0A3743C
:1046230024F0A374B5F0A37425F0A374A1F0A374CC
:1046330024F0A374A7F0A37424F0901B22E4F09059
:104643001B25F0901B0E12465A7402F0901B171292
:10465300465A7401023CEB74C5F0A37424F0A32200
:10466300D083D0820209AA74F512048D74F1120A60
:10467300908518828519837402F07401120CD0E9B5
:10468300F060047AFF7BFF7402120CD01251B475F0
:10469300081A75091B750A0078081209FC7C0B7D42
:1046A300007407120CD0AA82AB831210C7740312D2
:1046B30009DDAA18AB191219A3740F02633F74F72B
:1046C30012048D74FD120A90851882851983740A69
:1046D300F07401120CD0E9F07402120CD0EA124605
:1046E300F41219A3023867851882851983EAF0A3A7
:1046F300EBF0AA18AB192274F612048D74F7120AA0
:1047030090EAFEEBFF12474A122FF7740212487227
:10471300AA18AB19121283EE242E122FC5243012BD
:104723005781120A007402120A7079831A1AEFFB76
:1047330012252574021209DDE9F5087007EEFAEF78
:10474300FB122405025CDD12448574012274F0120D
:10475300048D126228120C617808790C12039E787A
:10476300081209F87A117B1B02324A74F412048D81
:1047730074C6120A909004ABE0640F60108518822F
:10478300851983742E1246F41224D780277A087B66
:104793001B1225FD122E7612034588088909E4F5BC
:1047A3000AF50B78081209F87A087B1B1225F174B5
:1047B300041209DD743A022E6574F512048DEAFEC3
:1047C300EBFF8E828F83A3E0F8600302485BEE2445
:1047D3002D12451764026007E06403600278E8EE77
:1047E3002423F582E43FF583122E6F400478E8809A
:1047F3006AE87064EE2423FAE43FFB79E1120E15B4
:10480300EE242EFAE43FFB7950120E15EE242D12FE
:1048130045176402700E1259701259A69004BA1209
:104823004E8F80129004BA74FEF0A3041248727A79
:10483300B17B0412128FEE2418123C881209FC7CFF
:104843000B7D007A1A7B1B1210C774031209DDEE6D
:10485300FAEFFB12243BE9F8E86011E88E828F83BC
:10486300A3125BD274171248811224D7026342F059
:10487300EE2425FCE43FFD228E828F837429F0EE23
:10488300FAEFFB2274F612048D74F7120A90901B50
:1048930025E0703B7401F0F9120EFFAA18AB191250
:1048A300250775081A75091B7808120A007508018F
:1048B3007509007808120A009004C012085574069E
:1048C300120A707A03790512252B74061209DD0288
:1048D3005CDF74F712048DEAFEEBFF7901120F051A
:1048E3008E828F83E064207004A374EBF0901B2509
:1048F300E0A2E25003C2E2F0E0A2E15008124B1F33
:10490300122435800C8E828F83742A1248811224DC
:10491300D78007EEFAEFFB1225737F01020753746A
:10492300F412048D74FE120A90EAFEEBFF79011271
:104933000F057A087B1B1225FD7A117B1B1225FDBF
:10494300124C69851882851983124C9DE0F50B7012
:104953000FAA18AB197953120E151263CF120E1545
:10496300123C851209FC7C0B7D007A1A7B1B12100A
:10497300C774031209DD8518828519831251A4A90E
:104983000B12242F901B25E0A2E1500C7A008E829B
:104993008F83A3E0F9122435901B25E4F0740202FF
:1049A3002E6574F712048DEAFEEBFF8E828F83A3CC
:1049B30074EBF0901B25E0A2E150077A0079EB122B
:1049C3002435EEFAEFFB12246B02491D74F712042F
:1049D3008DEAFEEBFF7901120F057A087B1B122586
:1049E300FD7A117B1B1225FD901B22E4F0901B2501
:1049F300F07AFF7BFF8E828F83A3E0F912242F02CC
:104A0300491D74F712048DEAFEEBFF122465024977
:104A13001674F712048DEAFEEBFF7901120F058E6F
:104A2300828F83A3A3A3A3E060047400800274EBCA
:104A3300124A665003C2E2F0E0A2E15008124B684A
:104A43001224358014A2E050108E828F83742AF0D2
:104A5300A374EB1248811224D7EEFAEFFB1224174A
:104A630002491D8E828F83A3F0901B25E0A2E222D0
:104A730074F612048DEAFEEBFF901B25E0D2E1F001
:104A83007901120EFF8E828F83A3E0703C12250DF5
:104A9300E9FAEE240DF508E43FF5097808120A0057
:104AA3007508017509007808120A00124ADD120818
:104AB30055EE2402FCE43FFD790512252B74061202
:104AC30009DDE98E828F83A3F08E828F83A3E0605A
:104AD300067A00F9122435025CE4124AE122EE243C
:104AE3000BF582E43FF5832274F712048DEAFEEBA3
:104AF300FF7901120F058E828F83E064207004A377
:104B030074EBF0901B25E0A2E25003C2E2F0E0A2B6
:104B1300E15006124B1F12243502491DC2E1F07AFF
:104B2300008E828F83A3E0F92274F712048DEAFECC
:104B3300EBFF7901120F057A087B1B1225FD8E828C
:104B43008F83A3A3A3A3E060047400800274EB1219
:104B53004A665003C2E2F0E0A2E15006124B68122B
:104B63002435024A5CC2E11239D0A3E0A2E4E43363
:104B7300FA8E828F83A3E0F92274F712048DEAFE82
:104B8300EBFF7901120F058E828F83A374EB124A18
:104B93006B5003C2E2F0E0A2E15006124B1F122455
:104BA3003502491D74F712048DEAFEEBFF7A087B88
:104BB3001B1225FDEEFAEFFB12248F02491674F740
:104BC30012048DEAFEEBFF7A087B1B1225FDEEFA39
:104BD300EFFB12248F02491D74F712048D74EF1238
:104BE3000A90EAFEEBFF12597A7AB17B0412127D26
:104BF300E960628518828519837409F07401120CC7
:104C0300D074EFF0124C69F87402120CD0E8124C15
:104C13009DA3A3E0C0E07404120CD0D0E0124C8A30
:104C2300640870158E828F83A3A3124C5DE0C0E0ED
:104C33007405120CD0D0E080067405120CD0E41277
:104C430059D97406120CD0AA82AB8312253DAA1837
:104C5300AB191219A374110238691259B72407F555
:104C630082E438F58322124C7FFB8A828B831259AC
:104C7300AA88828983E0FCA3E0F9EC22EE2402F8FF
:104C8300E43FF9E8FAE922124C8E22124C93E02217
:104C9300F08E828F83A3A3A3A322F0A3E91259C8A2
:104CA300124CA722E0F8A3125DABA3A322C082C0DB
:104CB3008312257F024663C082C083901B4274E245
:104CC300F0A3741AF0A374FEF0A3741AF0901C7D81
:104CD3007458F0A3742AF0A374F6F0A37429F09027
:104CE3001B2E7429F0A37424F0901B2BE0440102C3
:104CF3003CEBC082C083EAFCEBFD79021224E302A1
:104D03004663C082C0837906025E7574F612048D11
:104D130074FE120A90901B27124F3760077A277B85
:104D23001B1224FB901B2DE4F09017A8124F376041
:104D3300268007AA18AB191224FB901B26E0F91250
:104D430011038A088B09A808A90985188285198384
:104D5300124E8FE84970DC7402025CE174F71204AE
:104D63008DE9FA7B00901B26E0F912112D02491DF3
:104D730074F712048D74F0120A90EAFCEBFDE9FE5D
:104D83008C828D83E0F874EE124E80342DF583E42B
:104D930093C0E07401120CD0D0E0F0640B700DEE00
:104DA3008C828D83A3F0122561024E73E07003029F
:104DB3004E73640C6003024E64741A6E700B7404B9
:104DC300120CD0E4F0A3024E637404120CD0ECF086
:104DD300A3EDF0EC242F124E78C0E07403120CD034
:104DE300D0E0125F3B120C897406120CD0120C7DBA
:104DF3008C828D8312599D740A120CD0124E8FEC43
:104E0300240E124E7854106009851882851983E4A4
:104E13008013EC2412124E78F89004CDE0C39885E9
:104E23001882851983F0E0C0E0740C120CD0D0E036
:104E3300F0EC2415124E78C0E0740D120CD0D0E0C3
:104E4300F0EC2416124E78C0E0740E120CD0D0E0B1
:104E5300F0EC2417124E78C0E0740F120CD0D0E09F
:104E6300F07402120CD0EEF07401120A681219A346
:104E73007410023869F582E43DF583E02228F58257
:104E8300E422F8E43BF98A828B83A3A3E8F0A3E945
:104E9300F022C082C083901B2DE06403700479016B
:104EA3008002790002466374F712048D901B2DE093
:104EB300124F211268068A828B83E0C2E7F025E055
:104EC300F8EC124E803DF583A3E493FE124F21F5D7
:104ED30083124F376005EE901B2DF08A828B83E09F
:104EE300124F2DEC28F582ED39F583E493FCC4547D
:104EF3000F25E0F8743C124E80341BF583124F37B4
:104F0300700512254F8014EC540F25E0FCE82CF5B6
:104F130082E439F58312449212279402491D124FF9
:104F23002D747B28F582741C392225E0F8E433F9CB
:104F330022901AD01259AAE8492274F112048D74EE
:104F4300FE120A90890AEAFEEBFF125039FA7B003F
:104F53001210EB8A088B09EA450960388A828B8331
:104F6300E50AF0A3E4F08E0C8F0DF50E780C120910
:104F7300FCA80A125046EA2402FAE43509FB12108F
:104F8300C774031209DDAA08AB09901B26E0F912C6
:104F930010F78012851882851983E50AF0791AAA19
:104FA30018AB191224CB74021209DD0230D574F246
:104FB30012048D74FE120A90890B8A088B09125011
:104FC30039F50AFA7B001210EB8A0C8B0DAE0CAF8D
:104FD3000DEE4F604A8E828F83E50BF0A3E4F0A8B9
:104FE3000AEE28F8E43FF98E828F83124E8D8E826B
:104FF3008F83A3A3A3A3E4F0F50A78081209FCA8FE
:105003000B1250461233E81210C774031209DDEE77
:10501300FAEFFB901B26E0F91210F7790080148554
:105023001882851983E50BF0791AAA18AB19122493
:10503300CB791A0238FB74B729F582E4342DF58352
:10504300E4932274CD28F582E4342DF583E493FCB4
:105053007D0022C082C083E9901B26023CEB74F6DC
:1050630012048D74FE120A90EAFEEBFFEE542070D8
:10507300378040A8A8C2AF901ACFE01412519AF516
:1050830008E8A2E792AF8A828B83125191901B2981
:105093001251B41224D7851882851983E0641560F0
:1050A300077A297B1B1224FB7AC97B1A121115EA92
:1050B3004B70C0EF54807012801C901B291251B4A6
:1050C3001224D77A297B1B1224FB901B26E0F912AA
:1050D3001103EA4B70E4EE5410600E8518828519B3
:1050E30083742D1246F41224D7EEA2E0500E8518D5
:1050F3008285198374241246F41224D7EE54026075
:105103000E85188285198374251246F41224D7EE6E
:105113005404600E85188285198374261246F4128E
:1051230024D7EE5408600E851882851983742812DB
:1051330046F41224D7EE544060107401120CD012BE
:10514300619C742C1246F41224D7EE5480601074C0
:1051530001120CD012619C742F1246F41224D790C2
:105163001B27124F376020A8A8C2AF901B271251EC
:10517300A4901B27E4F0A31251BA1251B31224D7FF
:105183007A297B1B1224FB7A007B00024D5AE085AF
:105193001882851983F022F0E8A2E7E43322901AFB
:1051A300AE1251A822E0FAA3E0FB22A3A3A3A3A378
:1051B300A3EAF0A3EBF02212519AFEE8A2E792AF22
:1051C30022C082C083901B291259A6EA687002EBA1
:1051D300697007901B29E4F0A3F002466374F71289
:1051E300048DEAFEEBFFEE4F7003122633A2AFE409
:1051F30033F508C2AF8E828F83124F376028E824BD
:10520300FBFAE934FFFB901B29126808E86C700273
:10521300E96D7007901B29E4F0A3F08E828F83E47D
:10522300F0A3F012119F0236BAC082C083901B50C4
:105233007443F0A37425F0A37455F0A37425F0A36D
:10524300745BF0A37425F0A37411F0A37424F0A38A
:105253007461F0A37425F0A3740BF0A37424F0A37A
:105263007417F0A37424F0901B5E7491F0A374255B
:10527300F0A37467F0A37425F0A3746DF0A37425F1
:10528300F0A37479F0A37425F0A37473F0A37425C9
:10529300F0901B4F023CEAC082C0839004BAE064E2
:1052A300FE7003A3E0F470097CB17D0412128380C5
:1052B300158A828B83A3A3A3A3A3A3A3A37402F03E
:1052C30012541C124E8F024663C082C0839004C4E2
:1052D300C3E094FEA3E094FF4004790380027902C3
:1052E300024663C082C0831254278C828D8312537B
:1052F300DC687039740268701C8A828B83125335A0
:10530300E06870298A828B83A3125335A3E0687007
:105313001C7901801A7403687013EC2405FC500196
:105323000DEA2405FA50010B12128980027900025A
:105333004663A3A3A3A3A3E0F88C828D83A3A3A3B3
:10534300A3A32274F612048D7E00740A120CD0E01B
:105353001253D0FF8A828B83A3A3A3A3A3A3A3A3E4
:10536300E06F706474026F704E8A828B83C082C058
:105373008388828983A3A3A3A3A3E0F508888289F2
:1053830083A3A3A3A3A3A3E0FBAA08D083D082E0B3
:105393006A7003A3E06B703088828983A3A3A3E0C0
:1053A300FA88828983A3A3A3A3E0F9EA6C7002E9D4
:1053B3006D70157E01801174036F700CE82405FC79
:1053C300E439FD121289E9FEEEF9025CE4F8A3E088
:1053D300F9888289831253DC22A3E01313543F54C8
:1053E3000322C082C0838A828B83A3A3A3A3A3A324
:1053F300A3A3E06402701412541CE0687003A3E0DA
:105403006970047901800F7900800BEAFCEBFD7A67
:10541300B17B0412127D0246639004BA1259AA8A20
:10542300828B83228A828B831253DCF82274EC12E0
:10543300048DEAFEEBFF8C128D13750A008C828DAE
:1054430083A3A3A3A3A3A3A3A3E0F510E9A2E75017
:1054530008750CFF750DFF80069004C012566CE9A9
:10546300C2E7F511EE240E124517542060071256B9
:105473004D7408800412564DE412567454046007A8
:105483001256557480800512565574101256745472
:10549300106006125625E4800B9004CDE0C0E012A4
:1054A3005625D0E0125674A2E05003750A20540822
:1054B30060067410450AF50A8E828F83A3A3E02445
:1054C300FFF508A3E0124510C39402E0400B640B00
:1054D3006005E0141233F87403450AF50A750B00EE
:1054E3009004E0E0640170118E828F83A3A3A3A3D1
:1054F300E0C394674003750B1085110E750F00749C
:105503000E780E120B96E50F450BF50B7414120C67
:10551300D0E0F50EA3E0F50F74026511700E900450
:10552300C51233F79004C4125663801374036511D4
:10553300701212562F7CD47D04AA08FB12128F120C
:10554300563C8004E5116028E5106014E50E650CF7
:105553007004E50F650D70087440450AF50A801064
:10556300850882850983E50D12567AE50C1233FE10
:1055730085100C750D00740A780C120B96E50D4519
:105583000BF50B740265107015851282851383A3C6
:105593001233F785128285138312566380137403C3
:1055A3006510701212562FAC12AD13AA08FB12121B
:1055B3008F12563C8004E5106010850882850983AC
:1055C300E50F12567AE50E1233FEA808A909E8245E
:1055D300FFF508E912451070059004B080039004AC
:1055E300BCE0FA04F0EA888289831243EEE50B12E9
:1055F300567AE50AF0EE2404F8E43FF91230E4ACFD
:10560300088A828B83E0F50A88828983E0250AC3AE
:105613009C1259C4ECF0A3E509125B40E4F0F902D3
:105623002E49EE2412F582E43FF58322E50824F99E
:10563300F508E50934FFF5092212564022E508244E
:10564300FFF508E50934FFF50922EE1242D03FF5D4
:10565300832212565922EE2411F582E43FF5832268
:10566300E0850882850983F022E0F50CA3E0F50DBF
:1056730022F0124485E022123402850882F5832247
:1056830074EE12048D890A8A0B8C108D11750C1A15
:105693007416120CD01263DBAA08FB1223B18A0E14
:1056A3008B0FAE0EAF0FEE4F60607414120CD0125E
:1056B3005714E8F0A3E9122FFAE50AF085080C85E0
:1056C300090D750E00780C1209FC1233E41210C791
:1056D30074031209DD7412120CD0120855AC10AD0C
:1056E30011A90BEEFAEFFB12252574021209DDE96D
:1056F300F50C7016E50A24F9600314700612346B76
:10570300D2E5F0EEFAEFFB122405A90C7F0A02079B
:1057130053125DB91244862274F612048D74F71283
:105723000A90EAFEEBFF7801EE242F124517600280
:105733007805124481E8122FF77404125774121279
:1057430083EE242C122FC5242E125781120A0074C3
:1057530002120A7079031A1AEFFB1225257402123A
:1057630009DDE9F5087007EEFAEFFB122405025C88
:10577300DDF0EE2423FCE43FFDAA18AB1922F582E9
:10578300E43FF58312310F124C8E04F07808227433
:10579300F212048D8A088B09ECFEEDFF8A828B835B
:1057A3007405F0EE24321245178A828B83A3A3F08B
:1057B300EA2403F50AE43509F50B850A82F5831219
:1057C300566C125970120C89E50C1242A6350DF570
:1057D30083120C7D12597AAA0CAB0D121283850A1F
:1057E30082850B83125DB1FAA3E0FB88828983A3D0
:1057F300A3A31251AEEE242F124517C0E012598F06
:10580300D0E01259CE2415F582E438F583E4125919
:10581300CE125982E41259D9850A82850B83E0247A
:1058230016FAA3E03400FB12253D8E828F83A3A3D7
:10583300A3A3A3A3A3E0C0E0850A82850B83125927
:10584300B3240DF582E438F583D0E01259BDFAA3F1
:10585300E0FB850A82850B831259A6E8240BFCE43E
:1058630039FD8A828B83E08C828D83F0A3E4125905
:10587300E6E0F50B8C828D83A3E0450B1259C4A39C
:10588300E0FCA30A0AAB83A2E7E433C0E0E8240FF9
:10589300F582E439F583D0E0F074075C60047801A5
:1058A3008002780075F00374075CA428F8EA28FAEC
:1058B300E43BFBE5082405F8E43509F98A828B8388
:1058C30012310F1259E68508828509831251AE8879
:1058D300828983E0F50A540725E0FCE50AC4540FE6
:1058E3005407F50A750B007403780A120B96EC251E
:1058F3000AF8EA28F8E43BF9850882850983A3A31B
:10590300A3A3A3A3A3A3A3E8F0A3E9124C8AFA8E4B
:10591300828F83A3A3E02AFAA3E03400FBC3EA98AF
:10592300EB9940308E828F83A3A3E0F885088285AC
:105933000983A3A3A3A3A3A3A3A3A3E0FA8E828FA4
:1059430083A3A3A3A3E0C39A28850882850983A31D
:10595300A3A38010850882850983A3A3A3A3A3A37C
:10596300A31243ECA3A3A3A3A3F0023900EE2425BF
:10597300F582E43FF58322EE2413FCE43FFD22127B
:10598300598622240EF582E438F583221259932294
:10599300E82410F582E439F58322A3A3A3A3A3A3E8
:1059A300A3A3A31259AA22E0F8A3E0F922901AD0E4
:1059B3001259B722E0F8A3E0C822125BD2A3A3E0F6
:1059C300221259C822F08A828B8322F0850A8285AB
:1059D3000B831259B722F01259DE22EE2408FCE49D
:1059E3003FFD221259C8A3AA82AB832274F5120485
:1059F3008D8C088D09750A0078081209FC7C0B7DD3
:105A03000002633A0209AAC082C08379181224CB28
:105A1300024663C082C0838A828B83E0C3940B50A7
:105A230003122549024663C082C083791980DE745C
:105A3300F712048DEAFEEBFF901B27124F3760101D
:105A4300901B271251A41225557A277B1B1224FB86
:105A5300EEFAEFFB1224F5901B27EEF0A3EF800282
:105A6300F0A3F002491D74F712048D74DE120A903C
:105A7300EAFEEBFF8E828F83E024FD601124FE603B
:105A83001524ED600924FA600D14600A803D741634
:105A9300120CD0E480077416120CD07401F012407B
:105AA300A8740B120CD0AA82AB8312128F74131238
:105AB3000CD0125B45120CD0124E8F740A120CD00C
:105AC300125B51120CD0124E8F80427416120CD0FE
:105AD3007402F012597A740B120CD0AA82AB83129F
:105AE300128F7413120CD0125B45120CD0124E8F0E
:105AF300740A120CD0125B51120CD0122FD9125906
:105B0300DF7417120CD0AA82AB8312253D8518824D
:105B1300851983740B125B40E0C0E07401120CD052
:105B2300D0E01259D97417120CD0AA82AB83122574
:105B33003DAA18AB191219A37422023869125BD259
