:020000040000FA
:06000000020D6A02023944
:03002B00020B477E
:0300330002025B6B
:0300530002016E39
:03007B000208A1D7
:100083000201CD010020FD00020000F0100000007D
:100093000000008C1100004A110000D8100000007D
:1000A300000000000000000000000000000000004D
:1000B300000000000006FFFF060008C21700000052
:1000C3000160EA000082158E15000094159A150050
:1000D30000000000000000000001000000002020DC
:1000E3002020202020202020202020202020010844
:1000F30004010001000291810295810101010400C4
:100103000F18000000E8030000FFFFDB18E80300FE
:100113000064006400B801A0BB0D00A0BB0D000289
:100123000200F8FF0705021E0401051E02051E0258
:100133000A0A010108080103102702803E0102FE9A
:10014300FFE8030A050001FFFF010A1401E00101B2
:1001530005030101FF0F10FEFF512C0000000025D5
:100163002B00000000FF000000FF00C0E074F1124C
:100173000663A2AFE433F509D2AF85A708AFA1EFB9
:100183005508FE74105E6006120E6E75A1EF7408BA
:100193005E6008120E7475A1F78024EFA2E092F05E
:1001A300E508A2E082F05017906198E0F89004937C
:1001B300E0C398A2D265D0335002E8F075A1FEE502
:1001C30009A2E092AF7F0202071FC0E074F2120699
:1001D30063A2AFE433FED2AF9061A4E0F8759B0055
:1001E300E59158540860087591F7120EBC8023E519
:1001F3009158541060087591EF120EC28014E59166
:10020300A2E092F0E8A2E082F05007E0C2E0F01230
:10021300100C9061A3E0F8E5E9585404600E120F46
:10022300E275E9FB906193E0A2E640F2EEA2E09270
:10023300AF7F0102071FC0E074F2120663A2AFE4AE
:1002430033FED2AF9061A5E0F8E5BF5854046006D1
:1002530075BFFB12102480D4C0E074F1120663E56D
:100263009DA2E650FA906206E0F9A2E25034AA2A6F
:10027300EA90620BF0F508852B0974047808120DD7
:1002830098E508906207F08A08852B0974097808B5
:10029300120D98E508543E906209F0906201E0D295
:1002A300E0F0E9782746F6906202E0F50875090068
:1002B30074047808120D047827E50846F608E50962
:1002C30046F6906204E0F50875090074097808128F
:1002D3000D047828E50946F6E9A2E05003752901E3
:1002E3007406596003752900E58BA2E55006758BEA
:1002F300DF7529001213DE758B00C2E87F02020747
:100303001FC3E498F8E499F91203458026C3E49ADD
:10031300FAE49BFBE920E7E9120345E498F8E49942
:10032300F922C3E498F8E499F9120345E498F8E450
:1003330099F9C3E49AFAE49BFB22EB20E7CFE92087
:10034300E7E0B90010BB0008E88AF084F8AAF022BD
:10035300E4FBC8FA22EB70227B10C833C8C933C947
:10036300335007C39AC3DBF280069A50012ADBEAB3
:10037300C833F4C8C933F4C9FA2275F008E4C833A2
:10038300C8C933C933C99AC99B5004C92AC93BD5C3
:10039300F0ECFBC833F4C8E4C9FA221203DE20F000
:1003A3001430E72B74FFFCFBFA747F8022E4FCFB20
:1003B300FA7480801AB48008BC00F2BB00EF800F8F
:1003C30050EBF9E4C39AFAE49BFBE49CFCE499C682
:1003D300CC18C6CB18C6CA18C6F922E4C9C608CABF
:1003E300C608CBC6D3330308CCC63392F0C3947F7D
:1003F300402E94184019C9B90704CACBCC22502502
:10040300C309CA33CACB33CBCC33CC33D9F422F4AC
:10041300600DC9CCC313CB13CBCA13CAD9F6CC22F4
:10042300E4FCFBFA2214FCFBFA22080808EAC0E009
:10043300EBC0E086F0E7A4FA180986F0E7A42AFAED
:10044300180986F0E7A42AFA180986F0E7A42AFA1D
:100453001986F0E7A4FBE5F02AFA190886F0E7A469
:100463002BFBE5F03AFA190886F0E7A42BFBE5F03D
:100473003AFA18180986F0E7A4C5F02BFBE43AFA18
:100483001908E7C5F0C6A426F6E5F03BFBE43AFA03
:100493001886F0E7A4F6E5F00826F6E43B08F6E450
:1004A3003A08F6D0E0FBD0E0FA22080808E630E785
:1004B30011120C571204C5080808C64480C6181840
:1004C3001822181818E9799EC608CAC608CBC608A8
:1004D300CCC6C370207996CACBCC7019798ECBCC9D
:1004E30070137986CC700EF9802ACA33CACB33CB0A
:1004F300CC33CC331930E7F2CCCBCA33501470046D
:10050300EA30E00DE4CA3ACACB3BCBCC3CCC500238
:1005130009C3E913C6CC182313C6CB18C6CA18C619
:10052300F922E4CFC0E0E4CEC0E0E4CDC0E0E4CC07
:10053300C0E075F020E626F608E633F608E633F663
:1005430008E633F6181818EC33FCED33FDEE33FEF2
:10055300EF33FFC3EC9709ED9709EE9709EF97196E
:100563001919400FFFEC97FC09ED97FD09EE97FE73
:10057300191906D5F0BFECF709EDF709EEF709EF06
:10058300F7191919D0E0FCD0E0FDD0E0FED0E0FF70
:10059300222518C582C0E0E51934FFC583C0E0E514
:1005A30018C3958224F810AF0885831985821880B3
:1005B30008858319858218D2AFCEF0A3E520F0A376
:1005C3007808E608F0A3DEFAEFF0A3E58124FAF851
:1005D300E608F0A3E608F0A3E608F0A30808E60897
:1005E300F0A3E608F0A315811581D0E0FED0E0F872
:1005F300158115811581E8C0E0EEC0E022120E1AC4
:10060300B9000302064DE47921780BB80002800497
:10061300F709D8FCE4900421788679188002F0A3C6
:10062300D8FCD9FA7AA67B1B90008678E9790180F9
:1006330015E493A3AD82AE838A828B83F0A3AA824F
:10064300AB838D828E83D8E9D9E77582097583FEE2
:100653007404120AD87582267583297400120AD885
:10066300C0D02518C582C0E0E51934FFC583C0E0BA
:10067300E518C3958224F310AF0885831985821882
:100683008008858319858218D2AFC8F0A3E9F0A347
:10069300EAF0A3EBF0A37908E709F0A3D8FAECF0AA
:1006A300A3EDF0A3EEF0A3EFF0A3D0E0F0A3D0E02E
:1006B300F0A3D0E0F0A3E520F0A3E5F0F0A322122D
:1006C300010002020000205104A8160900010203E0
:1006D300010902430002010080190904000001021C
:1006E300020100052400100104240202052406006F
:1006F30001052401000107058203400040090401AC
:1007030000020A00000007058402400000070504F8
:1007130002400000DD060000000700008519838504
:100723001882E0C0E0A3E0F9A3E0FAA3E0FBA3781A
:1007330008E0F608A3DFFAE0FCA3E0FDA3E0FEA3D4
:10074300E0FFA3E0C0E0A3E0C0E0A3E0F5D0A3E0B6
:10075300F520A3E0A3F5F010AF088583198582186F
:100763008008858319858218D2AFD082D083D0E0E8
:10077300F8D0E0320975F0108E218F22858226850C
:100783008325851882851983E0CEA3E0CF85268251
:10079300852583EBC9EAC8EDCBECCAC3E833C8E9C6
:1007A30033C9EA33CAEB33CBC3EA9EF524EB9FF597
:1007B30023B35004AB23AA24EC33CCED33CDD5F0D3
:1007C300DAAE21AF2222D083D082ECC0E0EDC0E0CC
:1007D300E493A3FCE493A3FDED4C600D1208E4EC59
:1007E30024FFFCED34FFFD80EFE493A3FCE493A32B
:1007F300FDED4C600D1209E3EC24FFFCED34FFFD2D
:1008030080EFD0E0FDD0E0FCE493A3C0E0E493C02C
:10081300E022D083D082E9C0E0E493A3C386F0C58D
:10082300F095F0F908E493A386F0C5F095F0700B0A
:10083300E493A3C3994005E9048002A3E475F0029D
:10084300A42582F582E5F03583F583D0E0F9E493BE
:10085300A3C0E0E493C0E022851983851882E0A356
:10086300FEE0A3F5207808E0A3F608DFFAE0A3FF93
:10087300E0A3C0E0E0A3C0E0E0A3C0E0E0A3C0E0E9
:10088300E0A3C0E010AF088582188583198008852E
:100893008218858319D2AFD083D082020ADEC0E0EA
:1008A30074F2120663A2AFE433FED2AFE58AA2E28A
:1008B300500790045FE0D2E0F0E58AA2E35007908E
:1008C300045FE0D2E1F0758A00C2EB7A107B0090FE
:1008D300045BE0F9121276EEA2E092AF7F01020709
:1008E3001FC0E0C3E49396087401939618400FE485
:1008F3009366700808740193661870007019A3A3B7
:10090300C3E49396087401939618A3A3400DD0E013
:10091300D0E0D0E0020805A3A3A3A3A3A3D0E022C1
:10092300D083D082C5F0E493A3C5F0C395F0F5F06E
:10093300E493A3C395F04005E5F0048001E475F06A
:1009430002A42582F582E5F03583F583E493A3C001
:10095300E0E493C0E0227404800474028000CCC0FD
:10096300E0EDC0E0E518C39CCCAD1950011D10AFFC
:10097300068C188D1980068C188D19D2AF120A5A5D
:10098300D0E0FDD0E0FC2274028000CCC0E0EDC0DA
:10099300E0E518C39CCCAD1950011D10AF068C18AF
:1009A3008D1980068C188D19D2AF120A38D0E0FD4C
:1009B300D0E0FC22120D7A6025120D896020120E00
:1009C300387003020E2F080808E76670101819E73D
:1009D30066700A1819E76670041819E76622F4228C
:1009E300C0E0C0F088F0E493667008087401936671
:1009F300187000A8F0A3A3700BD0F0D0E0D0E0D023
:100A0300E0020805A3A3D0F0D0E022D083D082CCAB
:100A1300C0E0E493A36006120AB91470FAE493A346
:100A23006006120BDA1470FAD0E0FCE493A3C0E082
:100A3300E493C0E022CAC0E0E493A3C582CCC5829C
:100A4300C583CDC583F0A3C582CCC582C583CDC57F
:100A530083DAE5D0E0CA22CAC0E0E0A3C582CCC5F0
:100A630082C583CDC583F0A3C582CCC582C583CDA2
:100A7300C583DAE6D0E0CA227009080808226016A6
:100A8300181818C6C333C608C633C608C633C60803
:100A9300C633C6D5E0EA22C008C3E096F50808A32A
:100AA300E096420808A3E096420808A3E0964508AA
:100AB3007001D3D00822C0E0E493A3D39C5010E488
:100AC30093A3C39C400AD0E0D0E0D0E0020A2BA35A
:100AD300A3A3D0E022C09FF59FE473D09F22D083CD
:100AE300D082C09FE493C0E0740193C0E07402938A
:100AF300F59F227404800A740380067402800274D2
:100B030001C0E0F404120B11D0E0120DC522251828
:100B1300F58210AF08F518400C15198008F5184038
:100B2300021519D2AF8519832200C0D0251810AF42
:100B330008F518500C05198008F51850020519D24C
:100B4300AFD0D022C0E0C0D0E8C0E0A8A8D2AFC2E6
:100B5300C7E8A2E792AFD0E0F8D0D0D0E032BB0133
:100B630002E722C082C08389828A83BB0003E080BC
:100B730002E493D083D082226016080808C6C31308
:100B8300C618C613C618C613C618C613C6D5E0EAD8
:100B930022C3E0C696F608A3E0C696F608A3E0C60D
:100BA30096F608A3E0C696F6222518F8E43519F957
:100BB300222518FAE43519FB222518FCE43519FD22
:100BC30022251810AF08F518400C15198008F518E0
:100BD30040021519D2AF22C0E0E493A36C7009D090
:100BE300E0D0E0D0E0020A2BA3A3D0E022E06670BD
:100BF3001008A3E066700A08A3E066700408A3E087
:100C03006622E76670100809E766700A0809E76656
:100C130070040809E76622C3E09608A3E09608A3D8
:100C2300E09608A3E096A2D265D03322C3E096F003
:100C330008A3E096F008A3E096F008A3E096F0225C
:100C4300C3E697F60809E697F60809E697F6080952
:100C5300E697F622181818E4C396F608E496F60801
:100C6300E496F608E496F622C3E493960874019397
:100C7300960874029396087403939622E026F60866
:100C8300A3E036F608A3E036F608A3E036F622E042
:100C930056F608A3E056F608A3E056F608A3E05676
:100CA300F622E056F008A3E056F008A3E056F00859
:100CB300A3E056F022E647F60809E647F60809E6F8
:100CC30047F60809E647F622E657F60809E657F617
:100CD3000809E657F60809E657F622E026F008A3C6
:100CE300E036F008A3E036F008A3E036F022E49300
:100CF300F608740193F608740293F608740393F6E6
:100D030022700422600D18C6C333C608C633C6D585
:100D1300E0F41822E627F60809E637F60809E6376D
:100D2300F60809E637F622C3E09608A3E09608A37F
:100D3300E09608A3E09622C6F4C608C6F4C608C621
:100D4300F4C608C6F4C622C3E7960809E79608095D
:100D5300E7960809E79622600D08C6A2E713C618AE
:100D6300C613C6D5E0F32275D00075813F751821EF
:100D730075190400020600E6084608C31346083343
:100D83006002E633F422E7094709C31347093360D6
:100D930002E733F422600C08C6C313C618C613C691
:100DA300D5E0F422E6F008A3E6F008A3E6F008A3F2
:100DB300E6F022E0F608A3E0F608A3E0F608A3E0D5
:100DC300F622CAC0E0E6F0A308DAFAD0E0FA22E09D
:100DD300FCA3E0FDA3E0FEA3E0FF22EAF0A3EBF017
:100DE300A3ECF0A3EDF022E0FAA3E0FBA3E0FCA365
:100DF300E0FD22E8F0A3E9F0A3EAF0A3EBF022EC94
:100E0300F0A3EDF0A3EEF0A3EFF022E0F8A3E0F9F6
:100E1300A3E0FAA3E0FB22E5C754F84401F5C77940
:100E230001222518F582E43519F58322E7271947AE
:100E33001947194722E62618461846184622C2AF14
:100E430075D69F02000022120AE180EE05120AE124
:100E530099EE05120AE1CBEE05120AE1FBEE05124B
:100E63000AE128EF05120AE18AEF05120AE199EF78
:100E730005120AE1A3EF05120AE1B0EF05120AE138
:100E830046FD01120AE166FD01120AE1A5FD011208
:100E93000AE1C0FD01120AE1DFFD01120AE145FE8C
:100EA30001120AE14EFE01120AE1ABFE01120AE150
:100EB300CFFE01120AE190FF01120AE19DFF011228
:100EC3000AE1AEFF01120AE102FA05120AE11AFA77
:100ED30005120AE146FA05120AE18CCA05120AE173
:100EE300E8CB05120AE1F6CB05120AE109CC05129B
:100EF3000AE11ECC05120AE133CC05120AE146CC05
:100F030005120AE1BACC05120AE11FCD05120AE166
:100F1300C1CD05120AE185CE05120AE195CE05126F
:100F23000AE1A4CE05120AE13AF805120AE15EF8D5
:100F330005120AE186F805120AE1AEF805120AE184
:100F4300D0E805120AE1F7E805120AE115E90512EE
:100F53000AE188E905120AE107E605120AE120E63B
:100F630005120AE12CE605120AE140E605120AE140
:100F73005EE605120AE168E605120AE172E6051269
:100F83000AE185E605120AE10BE705120AE180E7AB
:100F930005120AE1AFE705120AE1FDE705120AE1CE
:100FA3004CE805120AE167E805120AE171E8051247
:100FB3000AE182E805120AE1C5E805120AE13CFBF1
:100FC30005120AE117B205120AE141B205120AE15C
:100FD3005EB205120AE171B205120AE187B2051287
:100FE3000AE1E5B205120AE11DB305120AE111B7E0
:100FF30005120AE156B805120AE189B805120AE199
:10100300ECB805120AE156BA05120AE17EBA0512D6
:101013000AE193BA05120AE1A3BA05120AE1E7BA93
:1010230005120AE142BB05120AE152BB05120AE1AD
:1010330035F205120AE14FF205120AE177F20512C1
:101043000AE190F205120AE1B4F205120AE1D2F2C2
:1010530005120AE1E9F205120AE117F305120AE1A2
:1010630032F305120AE187FB05120AE179E2051260
:101073000AE189E205120AE190E305120AE1C4E3F9
:1010830005120AE1E6E305120AE109E405120AE1A1
:1010930027E405120AE161E405120AE1C6E4051238
:1010A3000AE108E505120AE147E505120AE178E5D8
:1010B30005120AE1AFE505120AE1FEF005120AE1A5
:1010C3001CF105120AE181F105120AE120F2051271
:1010D3000AE17CF605120AE165F305120AE1ABF3B6
:1010E30005120AE1BAEF05120AE1DEF005120AE180
:1010F300079D05120AE1D9A005120AE1C8A205124B
:101103000AE1F6A305120AE1D3A405120AE155A6E2
:1011130005120AE125A705120AE179A705120AE1DA
:10112300F3EA05120AE114EB05120AE14EEC05128B
:101133000AE178EC05120AE1C57F00120AE1D57FC6
:1011430000120AE1DF7F00120AE18CEF01120AE1CB
:1011530016F401120AE17FF501120AE136F70112D2
:101163000AE1BEF701120AE155F801120AE114F986
:1011730001120AE108FA01120AE120FB01120AE155
:101183004EFC01120AE1008005120AE103800512F8
:101193000AE1E88605120AE1228805120AE1738949
:1011A30005120AE1298A05120AE1148B05120AE1E4
:1011B300F78B05120AE1F38C05120AE1A58D0512DE
:1011C3000AE1D58D05120AE1918F05120AE19DFE10
:1011D30003120AE1BDFE03120AE1D0FF03120AE182
:1011E300D3FF03120AE1B2FE02120AE1E8FE021281
:1011F3000AE102FF02120AE144FF02120AE154FF6C
:1012030002120AE1EEFF02120AE19EF702120AE15C
:10121300A8F702120AE1E2F702120AE14BF80212FE
:101223000AE168F802120AE181F802120AE123F9DD
:1012330002120AE12CF902120AE171F902120AE11F
:101243009AF902120AE1A7F902120AE118FA021244
:101253000AE1A3FA02120AE1F1FA02120AE12FFBF0
:1012630002120AE194FB02120AE1B7FB02120AE13D
:101273002EFC02120AE185FC02120AE1C0FC0212F2
:101283000AE1F5FC02120AE107FD02120AE119FD67
:1012930002120AE138FD02120AE141FD02120AE1DB
:1012A300FCFD02120AE148FE02120AE186FE021266
:1012B3000AE181C505120AE1C1C605120AE1E4C6C5
:1012C30005120AE1F5C605120AE1F4C805120AE19E
:1012D30014C905120AE18F7D00120AE1C57D0012CF
:1012E3000AE10D7E00120AE1667F00120AE1D96964
:1012F30000120AE1FD6A00120AE1376B00120AE1EB
:10130300E16C00120AE10B6D00120AE1806F00121A
:101313000AE1C06F00120AE1567100120AE1F3718B
:1013230000120AE1457200120AE1E87200120AE1B2
:10133300207300120AE1627300120AE1D1740012F1
:101343000AE11F7600120AE1507800120AE17E7862
:1013530000120AE1A57800120AE1AE7800120AE150
:10136300FE7800120AE1907900120AE1BF7C0012B4
:101373000AE1427D00120AE1DCFF01120AE1F2FFF9
:1013830001120AE1DFFA05120AE137D305120AE175
:101393004DD305120AE1F1D305120AE130D4051247
:1013A3000AE14DD405120AE17ED405120AE1CBD439
:1013B30005120AE1FED405120AE139D505120AE144
:1013C3002ED705120AE17CF505120AE1DBF50512B9
:1013D3000AE119F605120AE15AF605120AE1FCFFC1
:1013E30001120AE1008004120AE10C8004120AE1EE
:1013F3006E8004120AE1788004120AE10781041264
:101403000AE1438104120AE1F88104120AE1058228
:1014130004120AE1688204120AE1B58204120AE1A5
:10142300618304120AE1DA8304120AE18B85041250
:101433000AE1D28704120AE1188904120AE16C8ACC
:1014430004120AE1FD8A04120AE13C8C04120AE147
:101453003D8D04120AE1898E04120AE153930412AA
:101463000AE13C9404120AE1CF9404120AE1F494D1
:1014730004120AE1199504120AE1B19504120AE172
:10148300C79504120AE12D9604120AE14996041243
:101493000AE1759604120AE1869704120AE1589844
:1014A30004120AE1D39904120AE1F49904120AE13D
:1014B300779A04120AE11D9B04120AE1659B041248
:1014C3000AE1DB9B04120AE1379C04120AE1C89C7F
:1014D30004120AE1219E04120AE1649F04120AE144
:1014E300EF9F04120AE152A004120AE19CA2041223
:1014F3000AE134A404120AE144A404120AE178A420
:1015030004120AE1EDA404120AE127A504120AE178
:1015130095A504120AE12AA604120AE12AA80412D4
:101523000AE1EEA804120AE1F0A904120AE1A5AB4C
:1015330004120AE1B5EC05120AE151ED05120AE1C4
:1015430072ED05120AE1CDFB05120AE172E4041201
:101553000AE1A4E404120AE1D6E404120AE17AE5FA
:1015630004120AE166E704120AE109E904120AE136
:1015730080EA04120AE13EEB04120AE157EB04127B
:101583000AE184EB04120AE1BFEB04120AE1D8EB8F
:1015930004120AE1EEEB04120AE1F1EB04120AE190
:1015A30038EC04120AE188ED04120AE1ADED0412ED
:1015B3000AE1CDEE04120AE176EF04120AE1ECEF40
:1015C30004120AE101F004120AE13AF404120AE1F6
:1015D30040F504120AE170D603120AE1CBD60312D6
:1015E3000AE155D703120AE1C6D803120AE19ED9CC
:1015F30003120AE187DA03120AE19EDA03120AE10F
:10160300F0DA03120AE154DB03120AE195DB031259
:101613000AE1A8DB03120AE1FEDB03120AE157DC4D
:1016230003120AE16FDC03120AE11FDF03120AE16E
:10163300B4DF03120AE1DEDF03120AE127E003123B
:101643000AE117E203120AE181E203120AE155E318
:1016530003120AE198E303120AE1B2E303120AE177
:10166300F9E303120AE119E403120AE1C3E40312E2
:101673000AE19AE503120AE1A5E503120AE115E678
:1016830003120AE16FE603120AE1C0E603120AE15C
:10169300CBE703120AE16FEA03120AE1A5EA031298
:1016A3000AE117EB03120AE13CEB03120AE1B6EB82
:1016B30003120AE17FEC03120AE1BCEC03120AE114
:1016C3001EED03120AE1DFED03120AE1E2ED03125C
:1016D3000AE1ECED03120AE1F6ED03120AE109EE69
:1016E30003120AE185EE03120AE1AEEE03120AE1E8
:1016F300C1EE03120AE1EDEE03120AE114EF031245
:101703000AE138EF03120AE173EF03120AE1E5EF8E
:1017130003120AE10DF003120AE14EF003120AE18B
:1017230068F003120AE18DF003120AE1BBF0031221
:101733000AE1DBF003120AE118F103120AE14FF1A7
:1017430003120AE159F203120AE18CF303120AE1CC
:10175300A2F303120AE1B9F303120AE1CBF3031272
:101763000AE187FA05120AE19FFA05120AE18AC023
:1017730005120AE1C8C005120AE154C105120AE1C3
:101783005FC205120AE17BC405120AE1F8C405121F
:101793000AE109F704120AE158F704120AE1F8F81A
:1017A30004120AE1B3FA04120AE1F5FA04120AE197
:1017B300DEFB04120AE1E8FC04120AE10AFD04124A
:1017C3000AE154FD04120AE1D5FD04120AE12ED800
:1017D30002120AE151D802120AE144D902120AE1C3
:1017E3008DD902120AE1E5D902120AE141DA0212A5
:1017F3000AE18DDA02120AE103DB02120AE18FDB4E
:1018030002120AE104DC02120AE147DC02120AE1D5
:1018130018E002120AE167E202120AE1A1E20212EF
:101823000AE125E302120AE156E602120AE1CBE6D7
:1018330002120AE15BE802120AE163E902120AE119
:1018430079EA02120AE1EFEA02120AE1B6EB0212A6
:101853000AE11FEC02120AE122EC02120AE1F6ECA1
:1018630002120AE132EE02120AE1F2EF02120AE177
:10187300EDF102120AE1F8F202120AE194F3021204
:101883000AE1DFF402120AE1E5F502120AE148F681
:1018930002120AE1E5F602120AE1C6AD04120AE1F8
:1018A30066AE04120AE1D0AE04120AE1E9AE0412F4
:1018B3000AE178AF04120AE1BCAF04120AE1D4B022
:1018C30004120AE110B104120AE18DB104120AE113
:1018D300D8B104120AE137B204120AE1E3B20412E6
:1018E3000AE18CB504120AE1BAB604120AE13EB762
:1018F30004120AE11BB904120AE1C0B904120AE195
:1019030063BA04120AE1C2BA04120AE137BB041231
:101913000AE190BC04120AE15ABD04120AE190BD27
:1019230004120AE1ADBD04120AE153BE04120AE136
:101933009FBE04120AE12BBF04120AE1AAC00412DB
:101943000AE167C204120AE1E8C304120AE146C5C8
:1019530004120AE156C604120AE1FCC604120AE1A3
:1019630066C704120AE185C804120AE1C4C9041255
:101973000AE13CCA04120AE184CA04120AE1C8CA91
:1019830004120AE111CB04120AE15BCB04120AE14F
:1019930090CB04120AE10ECC04120AE168CC0412C3
:1019A3000AE1C1CD04120AE140CE04120AE157CF85
:1019B30004120AE179CF04120AE185D004120AE184
:1019C30096D004120AE1AED004120AE1CED1041279
:1019D3000AE1EBD104120AE1BED204120AE1E2D217
:1019E30004120AE1F9D204120AE11DD304120AE136
:1019F3003FD304120AE131D404120AE189D4041258
:101A03000AE1FFD504120AE161D604120AE178D68D
:101A130004120AE1A6D604120AE1D8D704120AE195
:101A230055D804120AE1C2D804120AE102D90412F9
:101A33000AE164D904120AE114DA04120AE1E6DBCA
:101A430004120AE1D1DC04120AE1CBDD04120AE13B
:101A5300D1DE04120AE1EDDF04120AE1FBDF041216
:101A63000AE1D4E004120AE174E104120AE1B8E1E4
:101A730004120AE1CDE104120AE1DEE204120AE1F2
:101A830081E304120AE1D9E304120AE12BDB051214
:101A93000AE1D3DC05120AE190DD05120AE1E5DD76
:101AA30005120AE162DE05120AE13BD705120AE1DB
:101AB30059D705120AE19DD705120AE1C3D70512CA
:101AC3000AE1E9D705120AE101D805120AE119D89A
:101AD30005120AE15FF905120AE194D805120AE139
:101AE300D6D805120AE1EBD805120AE10DDA051280
:101AF3000AE116DA05120AE11FDA05120AE128DA09
:101B030005120AE132DA05120AE1DDCE05120AE115
:101B1300BDD205120AE1CBD205120AE1D0D20512D9
:101B23000AE182FE04120AE149FC05120AE175FC8E
:101B330005120AE1008002120AE1578002120AE14B
:101B4300C38002120AE14F8102120AE15CEE051220
:101B53000AE14D8202120AE1668202120AE18982D7
:101B630002120AE1AB8202120AE1E98202120AE1DD
:101B7300388302120AE1638302120AE1C18302126B
:101B83000AE1688402120AE1108502120AE18C85D7
:101B930002120AE1598602120AE1A08602120AE140
:101BA300EC8602120AE1748702120AE1AD8702127F
:101BB3000AE1038802120AE11F8802120AE14E8831
:101BC30002120AE15A8A02120AE1888B02120AE11E
:101BD300B48B02120AE1E88B02120AE1098C0212A9
:101BE3000AE1188C02120AE1238C02120AE1D28C58
:101BF30002120AE1428D02120AE1CD8D02120AE1BC
:101C0300D58D02120AE1428E02120AE17E8E021281
:101C13000AE1448F02120AE1179002120AE16C9062
:101C230002120AE10B9102120AE1659102120AE122
:101C3300AA9102120AE1439402120AE18695021262
:101C43000AE1709802120AE1549902120AE1389AE1
:101C530002120AE1499A02120AE1BB9A02120AE14C
:101C6300529B02120AE1B79B02120AE1A79C0212DD
:101C73000AE1CC9C02120AE1EA9C02120AE1069DE7
:101C830002120AE1799D02120AE1889D02120AE119
:101C9300109E02120AE10D9F02120AE11A9F02121C
:101CA3000AE1239F02120AE105A102120AE127A217
:101CB30002120AE137A202120AE165A302120AE143
:101CC300E4A302120AE1FFA402120AE13BA50212F5
:101CD3000AE115A702120AE1D2AA02120AE1E6AA50
:101CE30002120AE1F0AA02120AE1FAAA02120AE1B6
:101CF30004AB02120AE11DAB02120AE127AB021286
:101D03000AE194AB02120AE19FAB02120AE1C7ABEC
:101D130002120AE1D2AB02120AE137AC02120AE163
:101D230042AC02120AE166AC02120AE18AAC021268
:101D33000AE1FCAC02120AE145AD02120AE161AD0F
:101D430002120AE1D2AD02120AE11EAE02120AE148
:101D530067AE02120AE1A5AE02120AE126AF021231
:101D63000AE1CDAF02120AE19CB102120AE101B20B
:101D730002120AE12FB302120AE155B302120AE179
:101D83009DB402120AE1D7B702120AE1D5B90212D1
:101D93000AE1A0BB02120AE139BC02120AE13ABE0F
:101DA30002120AE1EFBE02120AE128BF02120AE19F
:101DB3008EBF02120AE198BF02120AE1C1C10212E8
:101DC3000AE100C302120AE157C302120AE102C484
:101DD30002120AE1B2C502120AE1FFC602120AE1C7
:101DE3001FC702120AE174C702120AE175C8021280
:101DF3000AE19DC802120AE1FCC802120AE1F4C911
:101E030002120AE16BCA02120AE17ECB02120AE154
:101E1300ECCB02120AE1EBCC02120AE145CF02122B
:101E23000AE16ECF02120AE1D4D002120AE156D2BD
:101E330002120AE1ADD202120AE15BD302120AE1F5
:101E430000D402120AE159D402120AE117D5021290
:101E53000AE1A9D502120AE108D602120AE14AD61A
:101E630002120AE17BD602120AE1D2D702120AE178
:101E7300008003120AE1328003120AE16B8003122D
:101E83000AE1298203120AE1FF8203120AE15E8357
:101E930003120AE1748403120AE1C08403120AE103
:101EA3004E8703120AE1288A03120AE16F8B031299
:101EB3000AE1078C03120AE1138C03120AE15C8C1A
:101EC30003120AE19E8D03120AE1948E03120AE1C2
:101ED300BE8E03120AE1148F03120AE16D8F0312FF
:101EE3000AE1E08F03120AE1169203120AE19893C2
:101EF30003120AE1839403120AE1CD9503120AE166
:101F0300059803120AE1029B03120AE1119B0312D3
:101F13000AE1A59B03120AE1509C03120AE1939C78
:101F230003120AE1FB9C03120AE1179D03120AE163
:101F3300469D03120AE1859D03120AE1809E031266
:101F43000AE12F9F03120AE1ACA103120AE1DEA208
:101F530003120AE1B6A303120AE138A403120AE149
:101F63006DA803120AE19CA803120AE1F7A8031261
:101F73000AE12AA903120AE1A2A903120AE1D5A9D7
:101F830003120AE136AA03120AE186AA03120AE13E
:101F930053AB03120AE10CAC03120AE1D0AC0312F7
:101FA3000AE14AAF03120AE1ACB003120AE1FDB140
:101FB30003120AE121B303120AE124B303120AE173
:101FC30053B303120AE14BB503120AE10AB6031233
:101FD3000AE139B603120AE157B703120AE11FB83F
:101FE30003120AE1DDB903120AE10FBA03120AE18F
:101FF30051BA03120AE150BB03120AE1C3BB031235
:102003000AE1ECBD03120AE14BBE03120AE19FBED3
:1020130003120AE1CEC003120AE1B1C103120AE1BD
:1020230039C203120AE127C303120AE13BC30312B5
:102033000AE14FC303120AE17CC303120AE1ACC3F2
:1020430003120AE167C503120AE179C603120AE122
:10205300CEC603120AE117C703120AE13EC70312F1
:102063000AE106C803120AE1ACC803120AE132CA44
:1020730003120AE179CA03120AE1EBCA03120AE165
:1020830040CC03120AE1E9CC03120AE11DCD03128D
:102093000AE135CD03120AE1D8CD03120AE154D087
:1020A30003120AE1FCD103120AE11AD203120AE174
:1020B30038D203120AE104D303120AE152D60312FF
:1020C3000AE1C88101120AE1008201120AE1F486E1
:1020D30001120AE1408701120AE1868701120AE12F
:1020E300BC8801120AE1218901120AE1968A0112D0
:1020F3000AE1A08D01120AE1C98E01120AE1DC98FE
:1021030001120AE16C9901120AE1569C01120AE1DB
:10211300639D01120AE1C69D01120AE10E9F01129D
:102123000AE17CA101120AE10EA301120AE19BA3B9
:1021330001120AE1BAA401120AE147A501120AE158
:1021430051A501120AE179A501120AE119A60112AA
:102153000AE104A701120AE1D1A701120AE1EEA7DD
:1021630001120AE117A801120AE144A801120AE1C7
:102173008BAA01120AE15AAB01120AE199AB0112CF
:102183000AE11BAC01120AE1BCAC01120AE1EEAC9C
:1021930001120AE135AD01120AE168AD01120AE14B
:1021A300ACAD01120AE1FBAD01120AE100AE01126E
:1021B3000AE15CAE01120AE1A0AE01120AE17AAFB4
:1021C30001120AE1DFAF01120AE145B001120AE18F
:1021D300C0B001120AE128B401120AE12BB50112C1
:1021E3000AE1A9B601120AE1BFB901120AE161BA13
:1021F30001120AE1AABC01120AE165BD01120AE15A
:10220300A4BD01120AE17CBF01120AE199BF0112C8
:102213000AE1A2BF01120AE1ABBF01120AE1B6BF94
:1022230001120AE1D5BF01120AE179C101120AE1E3
:10223300D6C101120AE1E0C101120AE1EAC10112A9
:102243000AE149C201120AE193C201120AE194C3ED
:1022530001120AE1EBC301120AE1FCC401120AE113
:1022630045C501120AE1FFC501120AE116C70112B1
:102273000AE1EBC701120AE132C901120AE136CAC7
:1022830001120AE12FCB01120AE147CB01120AE145
:102293007ECB01120AE188CB01120AE192CB011233
:1022A3000AE19DCB01120AE1BBCB01120AE103CC87
:1022B30001120AE161CC01120AE188CC01120AE1A0
:1022C3009ACC01120AE14FCD01120AE188CD011225
:1022D3000AE1AACE01120AE1FDCE01120AE1E3CF1F
:1022E30001120AE10AD001120AE17AD001120AE1CD
:1022F300F6D001120AE152D201120AE179D3011296
:102303000AE13BD401120AE109D501120AE1C7D55A
:1023130001120AE1AFD601120AE159D701120AE10B
:10232300C1D701120AE176D801120AE1D2D801120B
:102333000AE12AD901120AE1F0D901120AE113DAFA
:1023430001120AE1CEDA01120AE1F0DA01120AE11E
:1023530051DB01120AE181DD01120AE17ADE011289
:102363000AE126DF01120AE147E101120AE190E1E5
:1023730001120AE1DBE101120AE137E201120AE18B
:1023830095E201120AE1B9E201120AE1DDE201126A
:102393000AE112E301120AE13AE301120AE17FE3DF
:1023A30001120AE1D3E301120AE12CE401120AE16A
:1023B30026E501120AE1C4E601120AE109E7011266
:1023C3000AE132E701120AE1BBE701120AE12EE852
:1023D30001120AE13CE801120AE160E801120AE194
:1023E300B6E801120AE1D1E801120AE18CE901120F
:1023F3000AE1B8E901120AE1FBE901120AE15EEA26
:1024030001120AE16CEC01120AE198EC01120AE1F3
:1024130053ED01120AE137EE01120AE1CBEE01128C
:102423000AE197A705120AE1CFA705120AE1F0A76F
:1024330005120AE132A805120AE196A805120AE17B
:10244300A0A805120AE1B0A805120AE1E7A805123F
:102453000AE190AC05120AE158AE05120AE13CB05C
:1024630005120AE1DEB005120AE168B105120AE1BC
:10247300173000120AE1C03000120AE19F31001246
:102483000AE1AB3200120AE1CB3200120AE1ED336A
:1024930000120AE19D3500120AE10A3600120AE130
:1024A300DB3600120AE1E13700120AE15938001263
:1024B3000AE1943800120AE1ED3800120AE12839E2
:1024C30000120AE1713900120AE1053A00120AE129
:1024D3009B3A00120AE1703B00120AE1433C0012EE
:1024E3000AE1D13C00120AE1F73C00120AE1243D63
:1024F30000120AE1553D00120AE1223E00120AE1F0
:10250300323E00120AE1853E00120AE1923E0012B9
:102513000AE19F3E00120AE1A83E00120AE10C3FC5
:1025230000120AE16A3F00120AE1B53F00120AE114
:10253300D03F00120AE1F73F00120AE114400012F3
:102543000AE1204000120AE1B14100120AE1CA4146
:1025530000120AE1464200120AE1594200120AE15E
:10256300694200120AE10D4300120AE179440012A4
:102573000AE18C4500120AE12C4600120AE13646B4
:1025830000120AE1B54600120AE1C64600120AE14A
:10259300054700120AE1334700120AE1004800121E
:1025A3000AE1574800120AE1904800120AE1E6489E
:1025B30000120AE1044900120AE1524900120AE139
:1025C3001D4A00120AE16B4A00120AE1B84A0012DE
:1025D3000AE13B4B00120AE1654B00120AE19B4BF7
:1025E30000120AE1AA4B00120AE1094C00120AE1A7
:1025F300814C00120AE1C24C00120AE1124D001292
:102603000AE13D4D00120AE1574D00120AE1714DF6
:1026130000120AE1464E00120AE1504E00120AE18E
:102623008B4E00120AE19B4E00120AE1A44E0012E7
:102633000AE1F54E00120AE1094F00120AE12B509C
:1026430000120AE1405000120AE1D35000120AE1DD
:10265300475100120AE1EC5100120AE1F75100124E
:102663000AE15A5300120AE1765300120AE1C253F7
:1026730000120AE1305400120AE1625400120AE126
:102683007C5400120AE1DC5400120AE17B5500126B
:102693000AE1C65500120AE1195800120AE1B158BD
:1026A30000120AE1285900120AE1855B00120AE1CF
:1026B3009D5B00120AE1A05B00120AE1AC5B001211
:1026C3000AE1C05B00120AE1C85B00120AE1FF5B8A
:1026D30000120AE1F35C00120AE17D5D00120AE1D7
:1026E300FF5D00120AE17F5E00120AE1565F0012ED
:1026F3000AE1785F00120AE1116000120AE16E60DC
:1027030000120AE1716000120AE1E06000120AE1BE
:102713002C6200120AE13F6300120AE1CA6300124D
:102723000AE1DD6400120AE1A46500120AE1D5653D
:1027330000120AE1FB6500120AE1046600120AE1D5
:10274300336600120AE1E36600120AE1936700129E
:102753000AE1066800120AE1A96800120AE11C698D
:1027630000120AE15B6900120AE1A46900120AE19E
:102773000FF905120AE1D6F805120AE1D3F805129A
:102783000AE163F505120AE1FDF405120AE17AF4A0
:1027930005120AE1FFF905120AE197F905120AE1A8
:1027A30082F905120AE172F905120AE193FC051296
:1027B3000AE176C005120AE162C005120AE1BDBF53
:1027C30005120AE1CCBE05120AE1F8FF02120AE182
:1027D3001BF805120AE17DF705120AE16CF70512F1
:1027E3000AE12E9C05120AE1549B05120AE18A9A1A
:1027F30005120AE1F99805120AE1C29805120AE1E5
:10280300949805120AE1489805120AE1B197051256
:102813000AE1219705120AE1FB9605120AE1B09637
:1028230005120AE17A9605120AE1FD9505120AE1FD
:10283300B3BE05120AE1989505120AE19FBE05127F
:102843000AE15FBE05120AE11FBE05120AE1AEBB33
:1028530005120AE182BB05120AE111FC05120AE125
:1028630014E205120AE142E005120AE14795051256
:102873000AE16F9405120AE1DF9305120AE19393CB
:1028830005120AE16EDF05120AE10E9305120AE151
:10289300C99205120AE1AD9205120AE1559105129A
:1028A3000AE1F5DE05120AE1279105120AE1058224
:1028B30002120AE1F49005120AE1789005120AE186
:1028C30052FE03120AE1F9FD03120AE1C4FD0312E9
:1028D3000AE18FFD03120AE15BFD03120AE1EEFC3C
:1028E30003120AE1D6FC03120AE1B1FC03120AE166
:1028F3008AF903120AE15DF703120AE164F5031290
:102903000AE1F0F403120AE1A1F403120AE1E7DE9B
:1029130005120AE15BF403120AE1FDF303120AE173
:1029230031D80500000080FBE473870001006C1CB4
:1029330035000400301C25000200341C2600020070
:10294300361C27000200381C28000100421C290005
:102953000100431C84000400441C86000100481C41
:102963002A000100491C2B0001004A1C2C00010015
:102973004E1C2D0008005D192E0001004F1C2F0076
:102983000100501C30000100511C31000100521C99
:10299300320001006519330001006619340001009B
:1029A300531C36000100671938000100541C39001C
:1029B30001004D1C830002006A1C630001007219B0
:1029C300640001004B1C650001004C1C6D000100FC
:1029D300731971000800551966000100691C430052
:1029E30001005A1C440002005B1C450001005D1CF1
:1029F300460002005E1C470008006A1948000100F7
:102A0300601C4B000100611C040001006D1CA1004F
:102A13000100701C370001006F1C880001006E1C50
:102A23003C00010068193D000100551C49000200EB
:102A3300621C6700010074194D000200641C4E0003
:102A43000100661C4F000200671C3E000100591C78
:102A530051000100561C52000100571C5300010095
:102A6300581C540001006919000000000000000117
:102A730036360101000102010001030100010401D6
:102A8300060605020000070100340801000F0904CF
:102A930001010D0100FF0E080000170200001901DB
:102AA30000FF1A0100011B0100FE1C0100081D02AA
:102AB30000001F0100012001000121020000230189
:102AC300000F24020000260100012701000828024C
:102AD30000FF2A0100072B0102402C0100002D01F9
:102AE30000012E0100012F0100FF30010B1D3108F1
:102AF30000003A0100083B01000F3C0100013D01C9
:102B030000FF3E04000042040000460400004A04A3
:102B130000004E04000052040000560400005A0452
:102B23000000010371030103010301030103010316
:102B33002203020301031003000300030003000345
:102B430000030003000342030003240306030003FE
:102B530000030403120325032303250323030403B0
:102B630004030003000300034403000300032303DF
:102B730000036503210035038103000305030003FC
:102B83000003000300032503230303027102300142
:102B930060021102700201020202020280021002AC
:102BA30061023A004100630273027202620243024D
:102BB30000021302380000020002040212020002A3
:102BC30000020002000204020402370037003C0244
:102BD30044020002390000020002650200023502CD
:102BE30081020002050282028302000201017101D7
:102BF3000101010111010101310101010101800103
:102C0300100161013B001400630173017201620151
:102C130043010001130106013D01350004011201C6
:102C2300000100010001000104010401330133012B
:102C33003C0144013201360000010001650100013D
:102C430035008101000105018201830100010300B8
:102C53007100300160001100700031022003500444
:102C63008000100061000000140063007300720014
:102C7300620043000000130006000000000004008F
:102C830012000000000000000000040004003700F0
:102C930037003C0244000000000000000000650013
:102CA30000003500810000000500000083000000E3
:102CB3000304710402046004110470040204020496
:102CC3000104020410046104000414046304730483
:102CD30072046204430400041304060400040004A1
:102CE30004041204000400040004000451046400FA
:102CF300000400040004440400040004000400046D
:102D0300650400043504810464000504000483049D
:102D1300000436000100060000000F000000000060
:102D2300000000000000000003FFFF00000403FF99
:102D3300FF0000FFFF0FF4010005C404032000019E
:102D430000000B000000000000000003010F000062
:102D53000000000000000000000000000000000070
:102D63000000000000000000000000000000000060
:102D7300C8141615CE140214000000000000000051
:102D83000000000000000000D4140214DA1402143E
:102D9300E0140214E6140214EC140214F2140214E4
:102DA300F8141C15FE1402140000000000000000BB
:102DB3000000000004152E150A15021404152E1523
:102DC3000A150214F8141C15101502140000DC185F
:102DD300130064181F006A181F8070180100DC18A4
:102DE3000200EC170300F2170400F8170500FE17A2
:102DF30006000A183000281831002218320034184F
:102E030033003A18350040183400461836004C1881
:102E13001100581814005E1815001C18FFFF00005D
:102E2300000003002001C581000000002001C681CD
:102E33000000040042013A800000050042014B807B
:102E43000000060042015C80000007002001C781EA
:102E5300000010004203001C000011002003D517DE
:102E6300000012001003111C060000001001D81707
:102E73000A00000002000000040000000800000037
:102E8300100000002000000040000000800000004F
:102E93000001000000020000000400000008000020
:102EA3000010000000200000004000000104210683
:102EB3002E210828210B462110221E020A21051C5F
:102EC300210710210CEC200DF820641E1CFF0000CC
:102ED30007ECFDFDFDECDCDCCCBCACAC9C9C8C7C41
:102EE3007C6C6C5C5C5C4C4C3C3C2C2C1C1C03EAEA
:102EF300F5E5D5D5C5B5A5959585857575656555EF
:102F03005545453535252515150500160F00000BCC
:102F1300150B020002220F3300000E5A6967426547
:102F230065416C6C69616E6365303901030507099E
:102F33000B0D0F00020406080A0C0D000000040626
:102F4300000004060001040600020400034A49438A
:102F53004E181A25050200393D3F373C3C362C44B8
:102F63002D000119161816161823030030301718F0
:102F73001921301B1D1F30303016181920231A1C3D
:102F83001E300C0E020B040B0A0708000F0204028A
:102F9300010101010902E803000000BE040A000068
:102FA3007F000E00E803000005040400100803037B
:102FB3000A1E0C0A10080C281EFF000903010C0549
:102FC30008150404E004123847A2E792AF22E4F0A4
:102FD300A3F0A3F022A3122FD1A3F0227F0C0208A7
:102FE3005BE0F508E4F509F50AF50B227401F090AE
:102FF30004ABE0640F227409120B2C7F0402085BFC
:10300300A3A3E024F5C39413229004CB125B407A6C
:10301300147B0022C082C083901A8E74D0F0A374F4
:1030230024F0A374E2F0A37424F0901A9274B8F01D
:10303300A37424F0A374B2F0A37424F0A374EEF089
:10304300A37424F0A374F4F0A37424F0A374E8F03D
:10305300A37424F0A374A0F0A37424F0901A9E74B4
:10306300C4F0A37424F0A374CAF0A37424F0A3746B
:10307300BEF0A37424F0A374FAF0A37424F0901A9E
:10308300AF1250CD60061253371212E8901AAC12E9
:1030930047F07408F0A3E4F0A3F0901B4FF0901AEC
:1030A300B1F07C0BFDF97AB27B1A12121C7C0B7DFA
:1030B3000079007ABD7B1A12121C0247F974F712C9
:1030C300059474F7120BC4EAFEEBFF12461774055E
:1030D30012318D7403F0EE2402FAE43F12316724B7
:1030E3002DFCE43FFD8C828D831232A51231766074
:1030F300081239EF74FFF0A3F0EE242BE43F1C1CFD
:10310300FD8C828D83A3E0C0E08A828B83124628E4
:10311300D0E012317688828983124E20240312591B
:103123000A1213D87408120E257403F09004C01207
:10313300095D7402120BBC7903EEFAEFFB122692BF
:103143007402120B2CE9F5087007EEFAEFFB122557
:1031530072A90874090239FFF582E43FF583126509
:1031630075124E15FB8A828B83123185E8F0A3E931
:10317300F0EE22125B5E123185E8F0A3E91260DA09
:10318300E0221232708A828B8322F0A3E4F01231A0
:103193009522EE240DF582E43FF5832274F11205A6
:1031A30094EAFEEBFF8C088D09890A12327A8A822F
:1031B3008B83123270740F120E25123293E824FFA0
:1031C30018E934FFF988828983E50A12328590046D
:1031D300C51232829004C41232827411120E251267
:1031E3003293EE2404FCE43FFD880B8A828B83E058
:1031F300F50C8C828D83E0250CC3950B125B5AE88A
:10320300F0A3E9124584A3A3A3A3A3A3A3A3E06408
:103213000370081248E0F0A3E480031235861231EC
:10322300907409F0750CB2750D1A750E00780C12B6
:103233000AFA12357A1212107403120B2C750CFF52
:10324300750DFF780C120AFEAC08AD097903EEFA8E
:10325300EFFB1226927402120B2CE9F5087007EEAD
:10326300FAEFFB122572A9087F0702085BE024FF2F
:10327300F8A3E034FFF922EE2402FAE43FFB221222
:1032830032A512328922F0E824FF18E934FFF9222B
:10329300E0F50CA31232A512328988828983E50CEA
:1032A300F022E08882898322C082C083901ACEE014
:1032B300C39408400474078001E08A828B83F0334F
:1032C300333354F8F90247F974F0120594EAFEEB2C
:1032D300FF890C8C0E8D0F750A00A2AFE433F50B3A
:1032E300C2AF901AC8803F1233B350371233C4644D
:1032F300037030EE24F9FEEF34FFFF850882850961
:1033030083A3A3E02405FCA3E03400FDEEFAEFFB66
:103313001213D8EE24FF1EEF34FFFF7410250AF5B5
:103323000A150C124551126571E50C6006E5084556
:103333000970B4E50BA2E092AFA2AFE433F50BC280
:10334300AF901AC8802C2402FAE43509FB8A828BD9
:1033530083125B492406F582E438F5831233D18A5C
:10336300828B831233B9A3A31233D1050A150C122E
:10337300455112456660221233C4640270F1123360
:10338300B3E50840C11236B4A2E550E3850E828549
:103393000F837401F0E50C70D6E50BA2E092AF8EBB
:1033A300828F83E50AF0EE24FFFAEF34FFFB8035CA
:1033B3001236BFA2E6221233BD22125F3EA3A3A39D
:1033C30022850882850983125F3812557222E08EA6
:1033D300828F83F0EE24FF1EEF34FFFF2212275E5D
:1033E3007404120B2C7F0802085B74EC12059474AE
:1033F300F5120BC489138A128B0F851882851983E2
:10340300E4F004120BB4122482E9F89004AAE02930
:103413002434F508FA7B001212348A0A8B0BAE0AA5
:10342300AF0BEE4F700302356EEE2402F50AE43F54
:10343300F50BA808EE28F8E43FF9850A82850B838B
:1034430012316F2404F510E43FF511851082F583E2
:10345300E4F09004AAE0FCF8C3E498F895E0F98559
:103463000A82850B83E028F508A3E039F509900467
:10347300A8125802750E00780C120AFA7D00AA08E9
:10348300AB091212107403120B2CAC18AD19740192
:10349300120E25E0F9E50824FFFAE50934FFFB12D3
:1034A30024888A828B83E4F0EA24FFF508EB34FF57
:1034B300F509E50FC454F0F9901B50E0C4333354BD
:1034C300C0F89004A4E0A2E0E43313134849440F86
:1034D30012358EE512C454F045138508828509839D
:1034E300F0A808850A82850B83E0FA85108285118E
:1034F30083E02AC398F0850A82850B83E8F0A3E56D
:1035030009F0123586123190E4F0740A120E25E4A4
:10351300F07508BD75091AF50A7808120AFA12350A
:103523007A1212107403120B2C851882851983E00A
:103533006009EE240E1246AD4408F012267AE9F92A
:10354300E4F508F5097808120AFE7404120BBCEEC0
:10355300FAEFFB1226927402120B2CE97006EEFAB4
:10356300EFFB800BEEFAEFFB12123A7A007B00744A
:103573000B120B2C022FDF7C0B7D00EE2418FAE4D8
:103583003FFB2212461BE4F0A322E0850882850953
:103593008312359822F01257D62274F31205948AB7
:1035A3000A8B0BA2AFE433F50CC2AF7508007509A3
:1035B30000901AC8802C1237DB5024850A82850BB1
:1035C30083A3A312699E8E828F83A3A312533A12FD
:1035D3002680E9600A123601C2E6F08E088F0912CE
:1035E30037D0123A8970CFE508450960061236BB19
:1035F300D2E6F0E50CA2E092AF7F0502085B12363B
:1036030005221257EFE02274F0120594EAFEEBFF55
:103613008C0C8D0D750E00A2AFE433F50FC2AF75A0
:103623000800750900901AC88020850A08850B09CF
:103633001236BBD2E4F0E5081236B4D2E7F0E50A5D
:1036430024FBF582E50B34FFF583E0F50AA3E0F5EF
:103653000BE50A450B6043E50A12443C350BF58341
:10366300E0A2E750D9850A82850B83A3A312095DE3
:10367300AC0CAD0DEEFAEFFB1226867402120B2C86
:10368300E960BBE508450960A1E508240D1236C7CA
:10369300640170061236D0D2E4F0E50FA2E092AFD7
:1036A300E5084509600612256C750E01A90E023363
:1036B300E81244661236CA221236BF22E5082411E4
:1036C3001236C722F582E43509F583E022850882A4
:1036D300850983125F38E02274F212059474FE1296
:1036E3000BC4750C00750D00851882851983E4F0F1
:1036F300A3F0A2AF33F50AC2AF901AC8E0FEA3E06D
:10370300FF8035EE24FBF582EF34FF12656F780CF2
:10371300120AFEEEFCEFFD7AC87B1A12126A7402DB
:10372300120B2CEEFCEFFDAA18AB19121258AE08BF
:10373300AF09901ACEE014F0EE4F60271237DB503A
:103743001DEE240BF8E43FF988828983E024FFF01F
:10375300A3E034FFF0888289831250CD60A512372D
:10376300CC8099E50AA2E092AF901ACEE060319046
:1037730004ABE0640F6006901B4FE070237AA67BD6
:103783001A12276A9081B91209597AA67B1A12274D
:103793005E7404120B2C800874F0124A1712256011
:1037A300AA18AB1912125E8A0A8B0BAE0AAF0BEE84
:1037B3004F6013122494123601A2E28E828F83A3E8
:1037C30050D674E980D4023A918E0C8F0DEE24FB0F
:1037D300F582EF34FFF58322123605A2E72274F750
:1037E300120594EAFEEBFF12249412462512292BAC
:1037F300E964019004C7700AE02401F8A3E03400EF
:103803008004E0F8A3E0F9124C73125025901ACE0D
:10381300E070219004ABE0640F70197AA67B1A1252
:10382300276A9081B91209597AA67B1A12275E7406
:1038330004120B2CA9A8C2AF901ACEE00412384789
:10384300A2E7800DF0E9A2E7E433F8E922E508A254
:10385300E092AF024AB374F7120594EAFEEBFF124B
:10386300388EF0122494EEFCEFFD7AC87B1A121204
:1038730064A9A8C2AF901ACE122FC79004ABE0641C
:103883000F70057908122632024AB3123605C2E4D4
:103893002274F712059474EA120BC4EAFEEBFF904C
:1038A30004A4E060408518828519837401F0120E28
:1038B30025E4123966120E25AA82AB831213D88E21
:1038C300828F831236D6C0E0740A120E25D0E0121E
:1038D3005B6F740B120E25AA82AB831226AAAA1859
:1038E300AB19121B0A74160239FF74F7120594EA16
:1038F300FEEBFF122476E9F974DC69601E74DD695E
:10390300601974E469601474F369600F74DE6960AC
:103913000A74DF69600574DB697007EEFAEFFB1266
:103923002638024AB374F712059474EB120BC4EAF7
:10393300FEEBFF8518828519837406123966120E11
:1039430025AA82AB831213D8125B74740A120E2554
:10395300AA82AB831226AAAA18AB19121B0A7415E2
:103963000239FFF0EE2413FCE43FFD74022274F7E6
:1039730012059474F7120BC4EAFEEBFFEE242D122A
:1039830046AD606512423EAA18AB191213D87408EB
:10399300120E257403F09004C012095D1239EF1260
:1039A300095D9004D3E0F97404120BBCEEFAEFFB4B
:1039B30012247C7404120B2CE9F974DC69602374FF
:1039C300DD69601E74E469601974F369601474DE60
:1039D30069600F74DF69600A74E869600574DB6904
:1039E3007007EEFAEFFB122638023156EE1239F465
:1039F30022242BF582E43FF583227403120B2C025D
:103A03004AB374F21205948A088B09750C00750D7C
:103A130000750AE7A2AFE433F50BC2AF901AC88072
:103A2300031237CC123A8960351237DB50F3124652
:103A3300AA640170ECEE242FF582E43F123C38E0D7
:103A43006870DE780C120AFEEEFCEFFD7AC87B1A72
:103A530012126A7402120B2C901ACEE014F0E50BCA
:103A6300A2E092AFEE4F6013EEFAEFFB12249479CB
:103A7300F0EEFAEFFB122638750A00A90AAA08AB82
:103A830009122638800DE0FEA3E0FFEE4F227402F8
:103A9300120B2C7F0602085B74F412059474F71260
:103AA3000BC4EAFEEBFF8E828F83A3E064F3700303
:103AB300023B458E828F83A3E064DF7003023B45A4
:103AC3008E828F83A3E064E860788E828F83A3E085
:103AD30064DB606E1224D6E9F508705EEE240E12E4
:103AE30046AD6056123B4F12251EEA4B604C7408DC
:103AF300120E25123B5912095D7508FF7509FF78EF
:103B030008120AFE8E828F83A3A3A3A3A3A3A3A356
:103B1300E0F97404120BBC12247C7404120B2CE91C
:103B2300F50874F36508601274DF6508600C74E8C7
:103B33006508600674DB6508700F8E828F83A3E5CA
:103B430008F0EEFAEFFB1224E2022FF9EE240FFA4B
:103B5300E43FFB790922740212633774FFF0A31266
:103B63003B6622123B6A22124E29A3A32274F5124A
:103B730005948A088B097E008A828B83A3A3A3A35F
:103B8300A3A312300340027EE88A828B83A3A3A3FC
:103B9300A3A3A3A3A3A3A3E0C3941040047EE8803C
:103BA300138A828B83A3A3A3A3A3A3A3A3A3A3E0A7
:103BB300640F600A901B2CE0540870027EE8EA242C
:103BC3000BF582E43509123C38A3A3A3A3A3A3A353
:103BD300A3E0C398500CEA240B1236C7640F6002AB
:103BE3007EE89004C4E0F47003A3E0F470027EEC7A
:103BF3007A237B001212E2901AAF12534A901AAF43
:103C03001250CD6029850882850983A3A3A982AABE
:103C13008389088A09750A007808120AFA7C237DC9
:103C2300001253371212107403120B2C80027E1AE7
:103C3300EEF90264D8F583E0F88A828B83A3A3228A
:103C430074F5120594EAFEEBFF8E828F83A3A3A380
:103C5300A3A3A3A3A3E09004AB12621A9004C61219
:103C630062009004A612621F901B50F0F9120F6AB3
:103C7300901B50E06018EE2404FAE43FFB795012E5
:103C83000F52EE2406FAE43FFB79E1120F52901B28
:103C93004F122FEF6004740180027400901AB11266
:103CA3006206120AFA7C0B7D007AB27B1A1212109A
:103CB3007403120B2CEE2418F508E43FF509780879
:103CC300120AFA7C0B7D007ABD7B1A0264D074F76A
:103CD300120594EAFEEBFF8E828F83A3E070061237
:103CE30053371224DC8E828F83742C124A171226C8
:103CF30044024AB374F7120594EAFEEBFF901AAF3D
:103D03001250CD600D125337901AAFE4F0A3F012A6
:103D130012E88E828F837408124A17121B0A024A12
:103D2300B374F6120594901B4FE06013901AB1E040
:103D3300700D123D4512248EEA4B60031225720268
:103D43005E7A9004A6E0FB9004C6E0FA9004ABE030
:103D5300F92274F412059474E7120BC4EAFEEBFF24
:103D6300750B018E828F83A3A3A3A3A3A3A3E0A2B6
:103D7300E25068EE242BF582E43F12699C123E1355
:103D830012249AE97055908102E064017005750B65
:103D9300008048123E1B120AFA7C0B7D007411123C
:103DA3000BB41212107403120B2C12267AE9FA7454
:103DB3000E120BAC880889097808120AFE750830C0
:103DC3007509007808120AFE1239EF12095D125BB9
:103DD3001079011226987406120B2C851882851906
:103DE300837410123966120E25AA82AB831213CC88
:103DF3001239EF125B3C740B120E25125025740D11
:103E0300120E25E50B12488A121B0A7419022FFBA6
:103E1300EE2413FAE43FFB22EE240812620E22C0C2
:103E230082C083901B50E060031226EC0247F9C066
:103E330082C083901B47748EF0A3741AF0A374920C
:103E4300F0A3741AF0A3749EF0A3741AF0901C8468
:103E530074B3F0A3742CF0901B317470F0A374242A
:103E6300F0901AD374A6F0A37424F0901AD574AC0E
:103E7300F0A37424F0901B2CE044028001E4F002D0
:103E830047F9C082C083EAFCEBFD7903024E95C07B
:103E930082C083EAFCEBFD7905024E95C082C083A4
:103EA300790802600BC082C08374FE120BC4901A9F
:103EB300DB745AF0A37425F0901ADD7454F0A374E4
:103EC30025F0800D7AC87B1A12125E1248801226E2
:103ED30068901AC81250CD70EB901ACA1250CD6078
:103EE3000F7ACA7B1A12125E12488012266880E982
:103EF300901AC8E4F0A3F0901ACE122FD274028065
:103F0300027411120B2C0247F974F6120594E9FF9F
:103F1300745929F582E4342FF583E493FEFA7B0088
:103F2300121234EA4B6011EA2E12501B8A828B83E1
:103F3300A3A3A3A3E4F0802C7A027B00121234EA39
:103F43004B601D746F2FF582E4342FF583E4938A5D
:103F5300828B83F0A3741AF0901B27E0F9121240AE
:103F63007A007B00025E7AE9FC740629F8EAA2E093
:103F7300501EE875F00A84E5F0F96014740A28C34A
:103F830099F8E9C394054004740A28F8740B28F8D7
:103F9300ECC3941340047A1480027A06EA28790069
:103FA3002409F85001097A0A7B0012033DE8F9025B
:103FB3000ADEC082C083901B2CE05402600A121BED
:103FC30010E960047901800279000247F9C082C0D8
:103FD30083901B2CE054026016901ACEE0700C12F2
:103FE30050CA600BE0C812455E5004790180027923
:103FF300000247F9C082C0839080FFE0F8901AD096
:10400300E0C398500512123480047A007B00024703
:10401300F9C082C08312266879000247F974F71247
:10402300059474FE120BC4851882851983EAF0A3E4
:10403300EB12418FA3A3A3A3A3E0600A146060243F
:10404300FE60690241109004ABE0640F6018122611
:104053003EE9701285188285198312533A901AD754
:1040630012462812292B9004D3E0C0E085188285DC
:104073001983124DF3D0E012418F7414126333127B
:10408300699E7ACA7B1A121258A8A8C2AF901AD096
:10409300E004125350792012263274020239FF854C
:1040A3001882851983125F40741580D08518828524
:1040B3001983124172A3A3E0605385188285198383
:1040C300E02402F8A3E03400F9888289831267713F
:1040D300E0C0E0851882851983E0FCA3E0CC2406C8
:1040E300F582E43CF583D0E0125B7C8882898312FD
:1040F300534A85188285198312445A851882851973
:10410300836013124177600512417F4043AA18ABC5
:1041130019122668808412417760F212417F501C85
:1041230012456EFA851882851983124179F8748FC6
:10413300125016342FF583E4936A60148518828530
:104143001983124177640870C412456E640870BD08
:1041530012456E14124197240AC0E085188285190E
:1041630083124628D0E01241970402407FE0F8A36F
:10417300124E4022E0F8A3E012419E228518828568
:104183001983125B4D12419FC3940A221241A9F570
:10419300838882221241A912419E22C82406F582F5
:1041A300E438F583E022126337E0F8A3E022C0820B
:1041B300C083901ADF1250CD6008125F4112292B81
:1041C300800279000247F974F7120594EAFEEBFFC7
:1041D3001231957401F0EE2430F582E43FF5831239
:1041E30058AA12316F24321246ADC0E0EE2413F503
:1041F30082E43FF583D0E0F0EE24331246ADC0E015
:10420300EE2414F582E43FF583D0E0F0EE242CF5A0
:1042130082E43FF58312095D12423EEE242E1246DC
:10422300ADF91226927402120B2CE9F5087007EE11
:10423300FAEFFB122572A908024AB3EE2423FCE429
:104243003FFD22C082C08312263EE96004792080AC
:104253000279010247F9C082C083EA12443C124248
:10426300FDD2E0023E81C082C0831242F764017036
:1042730011124302400C8A828B83A3E0F912263881
:10428300806FEA24101242FAA2E650128A828B83CC
:10429300A3E0F9901AD912462812292B805312420F
:1042A300F76401700D12430250088A828B837430C5
:1042B30080368A828B83A3E0641B8A828B8370049B
:1042C30074228024A3E0700D1242F7F8747A12501E
:1042D30016342F800B1242F7F8746F125016342FD6
:1042E300F583E4938A828B83F0901B27E0F9121203
:1042F300400247F9EA240DF582E43BF583E022EA24
:104303001244663BF583E0A2E32274F7120594E9B5
:10431300FE1250CA7003024433EE6011741B6E70B8
:1043230013E0C8124436640570030243FE125F3083
:10433300E402440274E96E7062124452700B121B61
:1043430016E9600512446C606279EE120ED4901A7D
:10435300D112444F901AD1603B12446F901AD1701E
:104363000B12444F14F012108A02443312445AC2FF
:10437300E712457A1244366403700C125B4612440A
:104383003C1241A4D2E2F079ED120ED4124442124F
:10439300292B8075125F3374E9806474E16E703E7B
:1043A300121B16E9605512446C70509004CDE0C0A6
:1043B300E0125B462412F582E438F583D0E0F090F6
:1043C30004BCE0C0E0901AD1124170124170D0E0F9
:1043D300F09004BCE004F079011210728052741C56
:1043E3006E7018901AD112533A901AE1124628129D
:1043F300292B901AD1E4F0A3F08035125F30EEF050
:10440300901AD112533A122560125B46125B18E0E0
:10441300548060109004D3E0F9120F8E9004D2E020
:10442300F9120F82901AD1E4F0A3F0791012263218
:10443300024AB3240D1241A1222411F582E42290F1
:104443001AD112533E901AD5125F3A22E0F8A3E034
:10445300C824121241A122E0F8A3E0C81244661254
:1044630041A4222410F582E422901AD1125B4D124A
:104473005B1CE054042274F4120594750A00750B56
:1044830000A2AFE433FFC2AF1250CA600302453645
:1044930012462512292BE94410F8901AC880098581
:1044A300080A85090B124551124566700302453609
:1044B3001236BB586870E8780A120AFEAC08AD09D8
:1044C3007AC87B1A12126A7402120B2C901AD1E565
:1044D30008F0A3E50912457A12455E405D901ACFB4
:1044E300E014F0EFA2E092AF901AD1E0240EF8A30B
:1044F300E03400F9880889098882F58312533A90D9
:104503001AD1124574F9122524E9901ACCF01245F8
:1045130082E05480901AD16026125B492413124121
:10452300A1F9120F8E125B4624141241A1F9120F46
:10453300828018EFA2E092AF8011901ACE80A11270
:10454300445AA2E1B3E433F9121072022FFEE508D4
:1045530024FBF582E50934FFF5832224111241A1DE
:10456300A2E722126575E508450922851882851997
:10457300831233BDA3E022F0901AD1125B4D22A324
:10458300E4F08508828509832274F7120594EAFE14
:10459300EBFF122662EE24101246ADA2E3400C128A
:1045A30046AA640170059080FD80039080FEE0F9C7
:1045B300EEFCEFFD7AC87B1A121270E96046EEFA40
:1045C300EFFB901ADB12462812292BEE240E12461B
:1045D300AD54047020A8A8C2AF901ACFE0041253C0
:1045E30030FAE8A2E792AF124617A3E05401702114
:1045F30012256C801CEEFAEFFB901AD31246281298
:10460300292B800D8E828F83A374F1124A171225F2
:1046130060024AB312461B22EE240EF582E43FF5F4
:104623008322901ADD125F3A22C082C08312256C66
:104633000247F974F7120594EAFEEBFF7900901B29
:104643002CE05402700CEE24301246AD5404600288
:1046530079E8901B2CE05460700CEE24301246ADC8
:104663005402600279E88E828F83A3A3A3A3E0F8A8
:10467300908103E0C398500279E8EE242E1246ADF0
:10468300700CEE242B1246AD700479F5800BE970A3
:104693000512254EE9F9E96007EEFAEFFB12263819
:1046A300024AB334FFF509EE240DF582E43FF583A6
:1046B300E022C082C0838A828B83740DF0121B0AAE
:1046C3000247F9C082C0838A828B83E4F0A3F0EAB5
:1046D30024301242FA54049080FD7012E0F8901ACC
:1046E300CFE0C398401279F11226380247F9E0F877
:1046F300901ACEE0C39850EE901B27E0F9121240B7
:1047030080E974F6120594E9FE244CFAE43400FBC4
:10471300121234EA4B6012EE8A828B83A3A3A3A303
:10472300F0EA244C12501B80047A007B00025E7A6C
:10473300C082C083901AE374BAF0A37425F0A37403
:10474300EAF0A37425F0A374C0F0A37425F0A37456
:10475300C6F0A37425F0A374E4F0A37425F0A37446
:10476300D8F0A37425F0A374D2F0A37425F0A37436
:10477300F0F0A37425F0A374F6F0A37425F0A374EA
:10478300FCF0A37425F0A37408F0A37426F0A374BB
:10479300CCF0A37425F0A374B4F0A37425F0A37430
:1047A300AEF0A37425F0901AFF74DEF0A37425F025
:1047B300A37402F0A37426F0A37422F0A37427F069
:1047C300A3740EF0A37426F0A37414F0A37426F05C
:1047D300901B23E4F0901B26F0901B0F1247F074FC
:1047E30002F0901B181247F07401023E817432F0FC
:1047F300A37426F0A322D083D082020ADE74F512BA
:10480300059474F1120BC48518828519837402F020
:104813007401120E25E9F060047AFF7BFF74021223
:104823000E2512534A75081B75091B750A00780873
:10483300120AFA7C0B7D007407120E25AA82AB8341
:104843001212107403120B2CAA18AB19121B0A7440
:104853000F0264D574F712059474FD120BC4851806
:1048630082851983740AF07401120E25E9F074022B
:10487300120E25EA12488A121B0A0239FD85188294
:10488300851983EAF0A3EBF0AA18AB192274F61288
:10489300059474F7120BC4EAFEEBFF1248E01231E1
:1048A3008D7402124A08AA18AB191213CCEE242EE7
:1048B30012315B2430125917120AFE7402120BBC18
:1048C30079831A1AEFFB1226927402120B2CE9F564
:1048D300087007EEFAEFFB122572025E7312461B95
:1048E30074012274F01205941263BE120DB6780897
:1048F300790C12042D7808120AF67A127B1B023304
:10490300E074F412059474C6120BC49004ABE06413
:104913000F6010851882851983742E12488A122617
:104923004480277A097B1B12276A12300C12034535
:1049330088088909E4F50AF50B7808120AF67A095A
:104943007B1B12275E7404120B2C743A022FFB7428
:10495300F5120594EAFEEBFF8E828F83A3E0F860E5
:10496300030249F1EE242D1246AD64026007E064B0
:1049730003600278E8EE2423F582E43FF5831230E6
:1049830005400478E8806AE87064EE2423FAE43F83
:10499300FB79E1120F52EE242EFAE43FFB79501219
:1049A3000F52EE242D1246AD6402700E125B0612F6
:1049B3005B3C9004BA12502580129004BA74FEF046
:1049C300A304124A087AB17B041213D8EE241812F6
:1049D3003E1E120AFA7C0B7D007A1B7B1B121210FF
:1049E3007403120B2CEEFAEFFB1225A8E9F8E8602A
:1049F30011E88E828F83A3125D687417124A17120F
:104A030026440264D8F0EE2425FCE43FFD228E8286
:104A13008F837429F0EEFAEFFB2274F61205947477
:104A2300F7120BC4901B26E0703B7401F0F91210CF
:104A33003CAA18AB1912267475081B75091B780854
:104A4300120AFE7508017509007808120AFE90041F
:104A5300C012095D7406120BBC7A037905122698FD
:104A63007406120B2C025E7574F7120594EAFEEBC2
:104A7300FF79011210428E828F83E064207004A3B9
:104A830074EBF0901B26E0A2E25003C2E2F0E0A236
:104A9300E15008124CB51225A2800C8E828F8374CC
:104AA3002A124A171226448007EEFAEFFB1226E079
:104AB3007F0102085B74F412059474FE120BC4EABE
:104AC300FEEBFF79011210427A097B1B12276A7AE7
:104AD300127B1B12276A124DFF85188285198312D8
:104AE3004E33E0F50B700FAA18AB197953120F521E
:104AF300126565120F52123E1B120AFA7C0B7D00DF
:104B03007A1B7B1B1212107403120B2C85188285DF
:104B1300198312533AA90B12259C901B26E0A2E19C
:104B2300500C7A008E828F83A3E0F91225A2901B8A
:104B330026E4F07402022FFB74F7120594EAFEEBED
:104B4300FF8E828F83A374EBF0901B26E0A2E150CB
:104B5300077A0079EB1225A2EEFAEFFB1225D802B1
:104B63004AB374F7120594EAFEEBFF79011210427F
:104B73007A097B1B12276A7A127B1B12276A901B06
:104B830023E4F0901B26F07AFF7BFF8E828F83A3B2
:104B9300E0F912259C024AB374F7120594EAFEEB7E
:104BA300FF1225D2024AAC74F7120594EAFEEBFF1A
:104BB30079011210428E828F83A3A3A3A3E0600422
:104BC3007400800274EB124BFC5003C2E2F0E0A2CB
:104BD300E15008124CFE1225A28014A2E050108E60
:104BE300828F83742AF0A374EB124A17122644EEC1
:104BF300FAEFFB122584024AB38E828F83A3F090CF
:104C03001B26E0A2E22274F6120594EAFEEBFF9063
:104C13001B26E0D2E1F0790112103C8E828F83A330
:104C2300E0703C12267AE9FAEE240DF508E43FF52C
:104C3300097808120AFE7508017509007808120A36
:104C4300FE124C7312095DEE2402FCE43FFD79056C
:104C53001226987406120B2CE98E828F83A3F08E92
:104C6300828F83A3E060067A00F91225A2025E7A9E
:104C7300124C7722EE240BF582E43FF5832274F77E
:104C8300120594EAFEEBFF79011210428E828F83A4
:104C9300E064207004A374EBF0901B26E0A2E250C2
:104CA30003C2E2F0E0A2E15006124CB51225A202C3
:104CB3004AB3C2E1F07A008E828F83A3E0F92274B3
:104CC300F7120594EAFEEBFF79011210427A097B91
:104CD3001B12276A8E828F83A3A3A3A3E0600474AD
:104CE30000800274EB124BFC5003C2E2F0E0A2E13D
:104CF3005006124CFE1225A2024BF2C2E1123B6691
:104D0300A3E0A2E4E433FA8E828F83A3E0F9227452
:104D1300F7120594EAFEEBFF79011210428E828F9F
:104D230083A374EB124C015003C2E2F0E0A2E15002
:104D330006124CB51225A2024AB374F7120594EA7F
:104D4300FEEBFF7A097B1B12276AEEFAEFFB1225B3
:104D5300FC024AAC74F7120594EAFEEBFF7A097B76
:104D63001B12276AEEFAEFFB1225FC024AB374F713
:104D730012059474EF120BC4EAFEEBFF125B107A78
:104D8300B17B041213C6E9606285188285198374A6
:104D930009F07401120E2574EFF0124DFFF874023E
:104DA300120E25E8124E33A3A3E0C0E07404120EE2
:104DB30025D0E0124E20640870158E828F83A3A342
:104DC300124DF3E0C0E07405120E25D0E0800674A6
:104DD30005120E25E4125B6F7406120E25AA82AB30
:104DE300831226AAAA18AB19121B0A74110239FFDF
:104DF300125B4D2407F582E438F58322124E15FB2E
:104E03008A828B83125B4088828983E0FCA3E0F96A
:104E1300EC22EE2402F8E43FF9E8FAE922124E24E8
:104E230022124E29E022F08E828F83A3A3A3A32212
:104E3300F0A3E9125B5E124E3D22E0F8A3125F413C
:104E4300A3A322C082C0831226EC0247F9C082C00A
:104E530083901B4374E3F0A3741AF0A374FFF0A3CD
:104E6300741AF0901C7E74EFF0A3742BF0A3748D6E
:104E7300F0A3742BF0901B2F7496F0A37425F0907D
:104E83001B2CE04401023E81C082C083EAFCEBFD9F
:104E930079021226500247F9C082C0837906026064
:104EA3000B74F612059474FE120BC4901B28125057
:104EB300CD60077A287B1B122668901B2EE4F090A6
:104EC30017A81250CD60268007AA18AB19122668BE
:104ED300901B27E0F912124C8A088B09A808A9092C
:104EE300851882851983125025E84970DC74020203
:104EF3005E7774F7120594E9FA7B00901B27E0F9BB
:104F0300121276024AB374F712059474F0120BC4AA
:104F1300EAFCEBFDE9FE8C828D83E0F87485125088
:104F230016342FF583E493C0E07401120E25D0E00C
:104F3300F0640B700DEE8C828D83A3F01226CE02EB
:104F43005009E07003025009640C6003024FFA74C5
:104F53001A6E700B7404120E25E4F0A3024FF97459
:104F630004120E25ECF0A3EDF0EC242F12500EC02A
:104F7300E07403120E25D0E01260D1120E0E7406F7
:104F8300120E25120DF68C828D83125B33740A1276
:104F93000E25125025EC240E12500E541060098574
:104FA3001882851983E48013EC241212500EF890B2
:104FB30004CDE0C398851882851983F0E0C0E074BE
:104FC3000C120E25D0E0F0EC241512500EC0E07444
:104FD3000D120E25D0E0F0EC241612500EC0E07432
:104FE3000E120E25D0E0F0EC241712500EC0E07420
:104FF3000F120E25D0E0F07402120E25EEF07401AC
:10500300120BB4121B0A74100239FFF582E43DF54A
:1050130083E02228F582E422F8E43BF98A828B8339
:10502300A3A3E8F0A3E9F022C082C083901B2EE083
:10503300640370047901800279000247F974F7125E
:105043000594901B2EE01250B712699C8A828B83C1
:10505300E0C2E7F025E0F8EC1250163DF583A3E437
:1050630093FE1250B7F5831250CD6005EE901B2EC0
:10507300F08A828B83E01250C3EC28F582ED39F578
:1050830083E493FCC4540F25E0F8743D12501634A6
:105093001BF5831250CD70051226BC8014EC540FFF
:1050A30025E0FCE82CF582E439F583124628122921
:1050B3002B024AB31250C3747C28F582741C392224
:1050C30025E0F8E433F922901AD1125B40E8492233
:1050D30074F112059474FE120BC4890AEAFEEBFF05
:1050E3001251CFFA7B001212348A088B09EA450960
:1050F30060388A828B83E50AF0A3E4F08E0C8F0D6F
:10510300F50E780C120AFAA80A1251DCEA2402FA04
:10511300E43509FB1212107403120B2CAA08AB0915
:10512300901B27E0F912124080128518828519839B
:10513300E50AF0791AAA18AB191226387402120B71
:105143002C02326B74F212059474FE120BC4890B99
:105153008A088B091251CFF50AFA7B001212348A9E
:105163000C8B0DAE0CAF0DEE4F604A8E828F83E534
:105173000BF0A3E4F0A80AEE28F8E43FF98E828F3F
:10518300831250238E828F83A3A3A3A3E4F0F50A93
:105193007808120AFAA80B1251DC12357E1212108B
:1051A3007403120B2CEEFAEFFB901B27E0F912129B
:1051B3004079008014851882851983E50BF0791AEC
:1051C300AA18AB19122638791A023A91744E29F5A6
:1051D30082E4342FF583E49322746428F582E43463
:1051E3002FF583E493FC7D0022C082C083E9901BEA
:1051F30027023E8174F612059474FE120BC4EAFE74
:10520300EBFFEE542070378040A8A8C2AF901AD0AD
:10521300E014125330F508E8A2E792AF8A828B8339
:10522300125327901B2A12534A122644851882854B
:105233001983E0641560077A2A7B1B1226687ACAF1
:105243007B1A12125EEA4B70C0EF54807012801CFE
:10525300901B2A12534A1226447A2A7B1B12266871
:10526300901B27E0F912124CEA4B70E4EE541060E5
:105273000E851882851983742D12488A122644EEEE
:10528300A2E0500E851882851983742412488A126D
:105293002644EE5402600E85188285198374251204
:1052A300488A122644EE5404600E851882851983B9
:1052B300742612488A122644EE5408600E8518821A
:1052C300851983742812488A122644EE54406010CC
:1052D3007401120E25126332742C12488A1226446A
:1052E300EE548060107401120E25126332742F1273
:1052F300488A122644901B281250CD6020A8A8C2C9
:10530300AF901B2812533A901B28E4F0A31253507A
:105313001253491226447A2A7B1B1226687A007B91
:1053230000024EF0E0851882851983F022F0E8A28E
:10533300E7E43322901AAF12533E22E0FAA3E0FBD4
:1053430022A3A3A3A3A3A3EAF0A3EBF02212533057
:10535300FEE8A2E792AF22C082C083901B2A125BB1
:105363003CEA687002EB697007901B2AE4F0A3F033
:105373000247F974F7120594EAFEEBFFEE4F700350
:105383001227CAA2AFE433F508C2AF8E828F83120D
:1053930050CD6028E824FBFAE934FFFB901B2A1266
:1053A300699EE86C7002E96D7007901B2AE4F0A314
:1053B300F08E828F83E4F0A3F01212E8023850C01B
:1053C30082C083901B5174B0F0A37426F0A374C2FF
:1053D300F0A37426F0A374C8F0A37426F0A3747E1C
:1053E300F0A37425F0A374CEF0A37426F0A374780D
:1053F300F0A37425F0A37484F0A37425F0901B5FCD
:1054030074FEF0A37426F0A374D4F0A37426F0A35F
:1054130074DAF0A37426F0A374E6F0A37426F0A361
:1054230074E0F0A37426F0901B50023E80C082C04B
:10543300839004BAE064FE7003A3E0F470097CB1C6
:105443007D041213CC80158A828B83A3A3A3A3A309
:10545300A3A3A37402F01255B21250250247F9C058
:1054630082C0839004C4C3E094FEA3E094FF40048D
:105473007903800279020247F9C082C0831255BDC5
:105483008C828D83125572687039740268701C8A1D
:10549300828B831254CBE06870298A828B83A31298
:1054A30054CBA3E068701C7901801A7403687013ED
:1054B300EC2405FC50010DEA2405FA50010B1213EC
:1054C300D2800279000247F9A3A3A3A3A3E0F88C37
:1054D300828D83A3A3A3A3A32274F61205947E0053
:1054E300740A120E25E0125566FF8A828B83A3A3EA
:1054F300A3A3A3A3A3A3E06F706474026F704E8A87
:10550300828B83C082C08388828983A3A3A3A3A33E
:10551300E0F50888828983A3A3A3A3A3A3E0FBAA3E
:1055230008D083D082E06A7003A3E06B7030888276
:105533008983A3A3A3E0FA88828983A3A3A3A3E017
:10554300F9EA6C7002E96D70157E01801174036FC6
:10555300700CE82405FCE439FD1213D2E9FEEEF9E0
:10556300025E7AF8A3E0F98882898312557222A336
:10557300E01313543F540322C082C0838A828B8377
:10558300A3A3A3A3A3A3A3A3E0640270141255B21D
:10559300E0687003A3E06970047901800F790080EB
:1055A3000BEAFCEBFD7AB17B041213C60247F990B8
:1055B30004BA125B408A828B83228A828B831255C0
:1055C30072F82274EC120594EAFEEBFF8C128D1331
:1055D300750A008C828D83A3A3A3A3A3A3A3A3E033
:1055E300F510E9A2E75008750CFF750DFF800690D2
:1055F30004C0125802E9C2E7F511EE240E1246ADBB
:10560300542060071257E3740880041257E3E4122E
:10561300580A540460071257EB748080051257EB45
:10562300741012580A541060061257BBE4800B9092
:1056330004CDE0C0E01257BBD0E012580AA2E050FC
:1056430003750A20540860067410450AF50A8E8211
:105653008F83A3A3E024FFF508A3E01246A6C39417
:1056630002E0400B640B6005E01412358E740345B1
:105673000AF50A750B009004E0E0640170118E8254
:105683008F83A3A3A3A3E0C394674003750B108583
:10569300110E750F00740E780E120D04E50F450BF5
:1056A300F50B7414120E25E0F50EA3E0F50F74024A
:1056B3006511700E9004C512358D9004C41257F90C
:1056C30080137403651170121257C57CD47D04AA2C
:1056D30008FB1213D81257D28004E5116028E51095
:1056E3006014E50E650C7004E50F650D70087440D9
:1056F300450AF50A8010850882850983E50D12584D
:1057030010E50C12359485100C750D00740A780C95
:10571300120D04E50D450BF50B740265107015852C
:105723001282851383A312358D851282851383120A
:1057330057F980137403651070121257C5AC12AD7C
:1057430013AA08FB1213D81257D28004E510601075
:10575300850882850983E50F125810E50E123594EA
:10576300A808A909E824FFF508E91246A6700590E0
:1057730004B080039004BCE0FA04F0EA88828983D1
:10578300124584E50B125810E50AF0EE2404F8E400
:105793003FF912327AAC088A828B83E0F50A888259
:1057A3008983E0250AC39C125B5AECF0A3E5091236
:1057B3005CD6E4F0F9022FDFEE2412F582E43FF524
:1057C3008322E50824F9F508E50934FFF5092212D7
:1057D30057D622E50824FFF508E50934FFF5092229
:1057E300EE1244663FF583221257EF22EE2411F5A1
:1057F30082E43FF58322E0850882850983F022E075
:10580300F50CA3E0F50D22F012461BE022123598A9
:10581300850882F5832274EE120594890A8A0B8C1B
:10582300108D11750C1A7416120E25126571AA08C3
:10583300FB12251E8A0E8B0FAE0EAF0FEE4F60606C
:105843007414120E251258AAE8F0A3E9123190E558
:105853000AF085080C85090D750E00780C120AFAFA
:1058630012357A1212107403120B2C7412120E25B5
:1058730012095DAC10AD11A90BEEFAEFFB122692E3
:105883007402120B2CE9F50C7016E50A24F9600377
:10589300147006123601D2E5F0EEFAEFFB12257210
:1058A300A90C7F0A02085B125F4F12461C2274F692
:1058B30012059474F7120BC4EAFEEBFF7801EE2491
:1058C3002F1246AD60027805124617E812318D7427
:1058D3000412590A1213CCEE242C12315B242E121B
:1058E3005917120AFE7402120BBC79031A1AEFFB42
:1058F3001226927402120B2CE9F5087007EEFAEFE8
:10590300FB122572025E73F0EE2423FCE43FFDAA32
:1059130018AB1922F582E43FF5831232A5124E2407
:1059230004F078082274F21205948A088B09ECFEBD
:10593300EDFF8A828B837405F0EE24321246AD8A22
:10594300828B83A3A3F0EA2403F50AE43509F50B5C
:10595300850A82F583125802125B06120E0EE50CBD
:1059630012443C350DF583120DF6125B10AA0CABF5
:105973000D1213CC850A82850B83125F47FAA3E0CD
:10598300FB88828983A3A3A3125344EE242F1246D8
:10599300ADC0E0125B25D0E0125B642415F582E410
:1059A30038F583E4125B64125B18E4125B6F850ABB
:1059B30082850B83E02416FAA3E03400FB1226AAA7
:1059C3008E828F83A3A3A3A3A3A3A3E0C0E0850A2E
:1059D30082850B83125B49240DF582E438F583D06D
:1059E300E0125B53FAA3E0FB850A82850B83125B0B
:1059F3003CE8240BFCE439FD8A828B83E08C828DA6
:105A030083F0A3E4125B7CE0F50B8C828D83A3E02F
:105A1300450B125B5AA3E0FCA30A0AAB83A2E7E49B
:105A230033C0E0E8240FF582E439F583D0E0F07465
:105A3300075C600478018002780075F00374075CEA
:105A4300A428F8EA28FAE43BFBE5082405F8E43542
:105A530009F98A828B831232A5125B7C85088285C1
:105A6300098312534488828983E0F50A540725E0A9
:105A7300FCE50AC4540F5407F50A750B0074037848
:105A83000A120D04EC250AF8EA28F8E43BF9850824
:105A930082850983A3A3A3A3A3A3A3A3A3E8F0A33A
:105AA300E9124E20FA8E828F83A3A3E02AFAA3E0A1
:105AB3003400FBC3EA98EB9940308E828F83A3A313
:105AC300E0F8850882850983A3A3A3A3A3A3A3A3C3
:105AD300A3E0FA8E828F83A3A3A3A3E0C39A2885AE
:105AE3000882850983A3A3A380108508828509837F
:105AF300A3A3A3A3A3A3A3124582A3A3A3A3A3F036
:105B0300023A96EE2425F582E43FF58322EE241330
:105B1300FCE43FFD22125B1C22240EF582E438F5DF
:105B23008322125B2922E82410F582E439F58322CB
:105B3300A3A3A3A3A3A3A3A3A3125B4022E0F8A35D
